:020000040804EE
:10000000809101207D030408233A04088932040802
:10001000213A0408DB1404086141040800000000D0
:10002000000000000000000000000000BD02040805
:100030006F1504080000000019030408813A040841
:100040009703040897030408970304089703040818
:100050009703040897030408970304089703040808
:1000600097030408970304089703040897030408F8
:1000700097030408970304089703040897030408E8
:1000800097030408970304089703040897030408D8
:1000900097030408970304089703040897030408C8
:1000A00097030408970304089703040897030408B8
:1000B000493D0408970304089703040897030408BC
:1000C0009703040897030408970304089703040898
:1000D0009703040897030408970304084D41040894
:1000E0009703040897030408970304089703040878
:1000F0009703040897030408970304089703040868
:100100009703040897030408553D0408970304085F
:1001100097030408970304086D3D04089703040837
:100120009703040897030408970304089703040837
:100130009703040815180408970304089703040894
:100140009703040897030408970304089703040817
:100150009703040897030408970304089703040807
:1001600097030408970304089703040897030408F7
:10017000970304089703040897030408000000008D
:10018000970304089703040800F002F800F086F8CB
:100190000AA090E8000C82448344AAF10107DA45E2
:1001A00001D100F07BF8AFF2090EBAE80F0013F0AE
:1001B000010F18BFFB1A43F0010318477CF400003D
:1001C000BCF400000A444FF0000C10F8013B13F09F
:1001D000070408BF10F8014B1D1108BF10F8015BA0
:1001E000641E05D010F8016B641E01F8016BF9D193
:1001F00013F0080F1EBF10F8014BAD1C0C1B09D1EA
:100200006D1E58BF01F801CBFAD505E014F8016B5B
:1002100001F8016B6D1EF9D59142D6D370470000ED
:10022000103A24BF78C878C1FAD8520724BF30C822
:1002300030C144BF04680C607047000000230024F4
:1002400000250026103A28BF78C1FBD8520728BFE6
:1002500030C148BF0B607047642900F011827529D6
:1002600000F00E82732900F0E485002070471FB56E
:100270000DF096FC9DE8030000F01CFD00F0FAFC78
:100280000400002000210DF075FC401C606000F0AF
:10029000E7FD1FBD10B500F04CFE10BD00F06DFF76
:1002A0001146FFF7E4FF07F08DFB01F07FF803B480
:1002B000FFF7F0FF03BC01F0C9F800002C4B1968F0
:1002C0000868B0E8F04F80F30988BFF36F8F4FF0F4
:1002D000000080F3118870470000000008480068A3
:1002E000006880F308884FF0000080F3148862B63D
:1002F00061B6BFF34F8FBFF36F8F00DF00BF00BF4A
:1003000008ED00E0DFF80C00016841F470010160C5
:10031000704700BF88ED00E0EFF30980BFF36F8FF7
:10032000134B1A681EF0100F08BF20ED108A20E949
:10033000F04F106009B44FF0500080F31188BFF304
:100340004F8FBFF36F8F0CF01FFD4FF0000080F355
:10035000118809BC19680868B0E8F04F1EF0100F4A
:1003600008BFB0EC108A80F30988BFF36F8F704725
:10037000B8C60120EFF305807047000009488047A8
:1003800009480047FEE7FEE7FEE7FEE7FEE7FEE777
:10039000FEE7FEE7FEE7FEE704480549054A064B8F
:1003A00070470000413B040889010408808900204F
:1003B00080910120808B0120808B012010B500F0FE
:1003C00059FC001D10BD00BFADD7000070B506463A
:1003D00000F04CFC056806F10B0020F00704B44265
:1003E0009CBF002070BD2B466A68BAB11068A0425D
:1003F00010D304F1080188423CBF5068586007D30D
:100400005168101941601168091B0160586014603F
:10041000101D70BD13465268002AE7D121462846B8
:1004200000F034FC0028DED170BD70B50446051F15
:1004300000F01CFC0068002C14BF446870BD002C48
:1004400018BFAC423CBF20466468F8D301680A1864
:10045000AA4218BF456003D12A68054611440160CD
:1004600028684119A1421CBF6C6070BD6168696059
:1004700021680844286070BD53EA020C00F06980CE
:100480002DE9F04B4FF00006002B1FBFB3FA83F5A8
:1004900003FA05F424FA05F65E4012BF1643B2FAD9
:1004A00082F502FA05F4C5F120051EBF22FA05FC0B
:1004B00044EA0C04203556EA044C4FEA144418BFB1
:1004C000641C4FF000084FF00009904271EB030CE0
:1004D00039D3002919BFB1FA81F701FA07F6B0FA4A
:1004E00080F700FA07F6C7F120071EBF20FA07FCC5
:1004F00046EA0C062037B6FBF4FCA7EB0507103FD5
:1005000007F01F0BCBF120060CFA0BFB2CFA06F6BA
:1005100044BFB3460026202FA4BF5E464FF0000B19
:100520005BEA060C08BF4FF0010B19EB0B09ABFBA4
:10053000027C48EB0608C01B06FB02CC0BFB03CC7D
:1005400071EB0C01C1E70B46024641464846BDE847
:10055000F08B13B54FF000004FF00001AFF30080B7
:10056000BDE81C40704710B50446FFF727FF006840
:10057000005DC00602D504F1200010BD204610BD6C
:1005800010B50446FFF71AFF0068005D000704D5A8
:10059000DF2C02D0A4F1200010BD204610BD0FB406
:1005A000014610B504AA039800F048FC10BC5DF8A1
:1005B00014FB00000FB41CB5084B06AA7B44694627
:1005C0000090059800F00BFC04460020694600F0FE
:1005D00019FC20461CBC5DF814FB00004508000017
:1005E00070B5044685690068C10601D5302600E073
:1005F0002026C00707D070BDD4E9012130469047BE
:10060000206A401C20626D1EF6D570BD70B5044690
:1006100085690078C00707D170BDD4E90121202089
:100620009047206A401C20626D1EF6D570BD70B5E3
:100630000C460546012A05D02878800600D5EA69CF
:10064000002302E0012305E05B1C934202D2E05C40
:100650000028F9D1A869E618C01AA861286A1844C8
:1006600028622846FFF7BCFF04E0D5E9012114F811
:10067000010B9047B442F8D32846FFF7C7FF70BD7F
:100680002DE9F0410646002410687529314616A56B
:1006900010D0AFF30080002802DA404213A507E033
:1006A00031688A0701D512A502E0490704D511A5D2
:1006B000012401E0AFF3008000210A2206F12407A3
:1006C00009E0B0FBF2FCB0FBF2F302FB1C0030309F
:1006D00078541846491C0028F3D123462A46304650
:1006E000BDE8F04100F01CBB000000002D00000040
:1006F0002B000000200000002DE9F05F8946044631
:100700004FF0000ADFF824B1FB44C0F820A02046D7
:10071000E168884700287DD0252806D0D4E901214A
:100720009047206A401C2062F1E700255F46204682
:10073000E16888472028064607DB312E05D2B81924
:1007400010F8200C08B10543F1E7A80701D525F002
:100750000405C4F81CA00027C4F818A02A2E09D04C
:10076000304603F047FD38B304EB8708303EC8F845
:10077000186019E059F8041B204604EB87029161C8
:10078000E1688847012F064618D1E069002820DA81
:1007900025F020051DE0D8F8180000EB800006EBDE
:1007A00040003038C8F818002046E16888470646FF
:1007B00003F020FD0028EED1012F0AD02E2E08D103
:1007C0002046E16888477F1C0646022F45F0200539
:1007D000C4DBA069002803DA404245F00105A061AE
:1007E000E80701D025F01005A6B1A6F141001928AF
:1007F00002D8203645F400654A4631462046256039
:100800004D46FFF729FD60B1012807D0ED1D25F009
:10081000070000E007E000F1080978E705F10409A6
:1008200075E730467AE7206ABDE8F09F8BEE00005E
:10083000401ECAB210F8011F8A4202D00029F9D125
:100840000020704740EA010310B59B070FD1042A2E
:100850000DD310C808C9121F9C42F8D020BA19BA8B
:10086000884201D9012010BD4FF0FF3010BD1AB1F0
:10087000D30703D0521C07E0002010BD10F8013B45
:1008800011F8014B1B1B07D110F8013B11F8014B6C
:100890001B1B01D1921EF1D1184610BD40EA010385
:1008A000024630B59B0710D14FF0013400E008C27A
:1008B00008C91D1B9D4315EAC41FF8D013F0FF01A2
:1008C00002F8011B0DD01B0AF8E711F8013B002BC1
:1008D00002F8013B05D011F8013B002B02F8013B67
:1008E000F3D130BD2DE9F041054690460E4600207B
:1008F000044600E0641C44450BD2285DFFF733FE3C
:100900000746305DFFF72FFE381A02D1295D002916
:10091000F0D1BDE8F08110B5431C02E010F8011BD6
:1009200071B18107FAD14FF0013202C88C1A8C43A1
:1009300014EAC211F9D0C01A0A0603D0C01E10BDB5
:10094000C01A10BD0A0401D0801E10BD0902FCD0DF
:10095000401E10BD032A40F2308010F0030C00F05E
:10096000158011F8013BBCF1020F624498BF11F8E9
:1009700001CB00F8013B38BF11F8013BA2F10402A2
:1009800098BF00F801CB38BF00F8013B11F003031A
:1009900000F06780083AC0F0088051F8043B083A3C
:1009A00051F804CBA0E80810F5E7121D5CBF51F820
:1009B000043B40F8043BAFF30080D20724BF11F89A
:1009C000013B11F801CB48BF11F8012B24BF00F8FF
:1009D000013B00F801CB48BF00F8012B7047431AD8
:1009E00028BF9A427FF6B6AF032A1044114440F262
:1009F000268010F0030F1EBF11F8013D521E00F8B3
:100A0000013D10F0030F7FF4F6AF11F0030300F087
:100A10006D80083AC0F00B8051F8043D083A51F857
:100A200004CD40F8043D40F804CDFFF7F3BF121D9C
:100A30005CBF51F8043D40F8043DAFF30080D2079D
:100A400024BF11F8013D11F801CD48BF11F8012C68
:100A500024BF00F8013D00F801CD48BF00F8012C8B
:100A6000704710B5203AC0F00B80B1E81850203A1A
:100A7000A0E81850B1E81850A0E81850BFF4F5AF3E
:100A80005FEA027C24BFB1E81850A0E8185044BFC8
:100A900018C918C0BDE810405FEA827C24BF51F835
:100AA000043B40F8043B08BF7047D20728BF31F829
:100AB000023B48BF11F8012B28BF20F8023B48BF7A
:100AC00000F8012B7047431A28BF9A427FF6C9AF3E
:100AD000104410F0030F11441EBF11F8013D521EC7
:100AE00000F8013D10F0030F7FF4F6AF103AC0F0AC
:100AF0000A8010B531E91850103A20E91850BFF4B7
:100B0000F9AFBDE81040530724BF31E9081020E9D0
:100B1000081044BF51F8043D40F8043D12F0030FA3
:100B200008BF7047D20728BF31F8023D48BF11F80F
:100B3000012C28BF20F8023D48BF00F8012C704767
:100B400002F0FF0343EA032242EA024200F002B845
:100B50004FF000020429C0F0128010F0030C00F0E6
:100B60001B80CCF1040CBCF1020F18BF00F8012B64
:100B7000A8BF20F8022BA1EB0C0100F00DB85FEA32
:100B8000C17C24BF00F8012B00F8012B48BF00F8FE
:100B9000012B70474FF0000200B51346944696466D
:100BA000203922BFA0E80C50A0E80C50B1F1200180
:100BB000BFF4F7AF090728BFA0E80C5048BF0CC02E
:100BC0005DF804EB890028BF40F8042B08BF70478C
:100BD00048BF20F8022B11F0804F18BF00F8012BFE
:100BE000704700004FF0013C50F8042B51F8043BD3
:100BF0009A4221D1A2EB0C03934313EACC1317D1F1
:100C000050F8042B51F8043B9A4215D1A2EB0C0387
:100C1000934313EACC130BD150F8042B51F8043B47
:100C20009A4209D1A2EB0C03934313EACC13DBD015
:100C30004FF00000704700BFD01A01BAB1FA81F13D
:100C400001F0180122FA01F0CB40C1F12001DBB222
:100C5000C0B2C01A2CFA01F3D11A914311EAC311A0
:100C6000E6D17047704770477047000000487047F2
:100C70001CD101200048704734D101200048704742
:100C800014D10120704770477047704738B504464B
:100C90000A4600206946AFF30080002808BF38BD2F
:100CA00002460099204600F07BF9012038BD012062
:100CB00000F05BBAF8B5AFF30080054600200C46A3
:100CC000102000BF0646A819A0420DD93246694639
:100CD0000020AFF30080070008BF00F046FA00983C
:100CE000A04218BF0546C419FFF7C0FF05600746BC
:100CF000F01D20F007004619284600F00AF8B4421B
:100D000008BFF8BDA21B31463868BDE8F84000F0C6
:100D100047B900210160C0E90110704710207047F9
:100D20002DE9F0470D4699469246044600F1240805
:100D30000168880604D5E06921F01001216000E017
:100D40000120A84201DD471B00E00027A1697A19B4
:100D500002EB0900081AA0612078C00602D42046E0
:100D6000FFF73EFC002608E0D4E901211AF806004E
:100D70009047206A401C761C20624E45F4DB2078A8
:100D8000C0060AD52046FFF72BFC06E0D4E9012176
:100D900030209047206A401C2062381EA7F10107CE
:100DA000F4DC07E0D4E9012118F805009047206A37
:100DB000401C2062281EA5F10105F3DC2046FFF748
:100DC00025FC2078000602D50220BDE8F08701202E
:100DD000FBE7000001694A1C02610878704700B512
:100DE0008FB0CDE901310021059105497944CDE964
:100DF000031011466846FFF77FFC0FB000BD0000EE
:100E0000E5FFFFFF0A6802F8010B0A60704710B5A2
:100E1000436913B1AFF3008001E0FFF708FC012044
:100E200010BD127800F124010A7000224A700122DC
:100E3000EDE711684FF0FF32E9E70000074B70B5AE
:100E40000D467B44FFF7CBFF0446284600F0C2F86E
:100E500010B14FF0FF3070BD204670BD235300002D
:100E600010B542485421FFF795FE41485421FFF741
:100E700091FE40485421FFF78DFE3F493B483C4AD4
:100E80003F4B08603D490A603A491960531C0365AD
:100E9000481C1065012008653B48344A39A1784454
:100EA00000F0C0F820B9384878440A3800F056F904
:100EB00037482F4A35A1784400F0B4F820B93448B7
:100EC00078440A3800F04AF932482A4A2FA1784477
:100ED00000F0A8F820B92F4878440A3800F03EF90D
:100EE00040232248DC000021224600F077F820B1A0
:100EF00025487844543800F031F91D4822464023F3
:100F0000002100F06BF820B121487844543800F0FB
:100F100025F9184822461023002100F05FF8002828
:100F200006D01C487844BDE81040563800F016B989
:100F300010BD104870B5006D20F001040B4800F0A2
:100F4000E7F80B4800F0E4F80A4800F0E1F809E09F
:100F5000206D20F00105204600F0DAF82046FFF76A
:100F600064FA2C46002CF3D170BD0000D488002018
:100F7000C0D001202889002018C701205C00002073
:100F80001CC7012072000000DEE6000077000000B0
:100F9000CDE60000BDE600000048704714D10120F6
:100FA000034640688C46002818BF88423CBF034671
:100FB0004068F8D318681844884207D00CF1030041
:100FC00020F00700001D411A521A0146081D0A6050
:100FD000FFF72BBA007B00F08000704770B5C46843
:100FE000A50713D0650211D4B2F5807F09D0B2F500
:100FF000007F06D0B2F5806F08D1012300F12401F3
:1010000006E05D1E6FF07F46B54201D3012070BD42
:101010000161C361416024F470611143C16000202B
:1010200070BD00002DE9F0410C46074616461046FB
:1010300000F06EF82078611C61280AD0722802D076
:1010400077283CD102E00125002405E00225042494
:1010500002E0082448F2020511F8010B2B2806D003
:10106000622809D011F8010C74280AD00BE045F071
:10107000030544F00204EFE745F0040544F00104E1
:10108000EAE744F010043846214603F0D9F8411C41
:1010900015D00021316171604FF40071F560F1618C
:1010A0007061200704D530460222002100F08AF842
:1010B000306D40F0010030653046BDE8F081002021
:1010C000FBE72DE9F0410D460646104C206DC107A7
:1010D00004D0410804D020F00104F7E722460EE0D6
:1010E0005420FFF773F907000ED0206D47F001017F
:1010F0000843542120653846FFF74CFD3A462946FF
:101100003046BDE8F0418DE70020D6E7D4880020C6
:101110002DE9F04704464FF000094FF0FF37C5684E
:10112000D4E90486A80707D0204600F0FBF8304633
:1011300003F067F8002802DA3846BDE8F087280592
:1011400002D54046FFF771F94C212046FFF722FDFA
:10115000206D20F0010020654846EEE710B500F054
:1011600033F9BDE8104000F02AB910B500F046F997
:10117000BDE8104000F023B970477546FFF70CFF3B
:10118000AE4605006946534620F00700854618B074
:1011900020B5FFF701F9BDE820404FF000064FF001
:1011A00000074FF000084FF0000B21F00701AC469C
:1011B000ACE8C009ACE8C009ACE8C009ACE8C009BB
:1011C0008D4670472DE9F041044616460D464769A5
:1011D000007B80072ED0384603F025F850BB3EB385
:1011E000012E02D0022E25D104E0204600F034F971
:1011F00005441DE0384603F010F8E168002841F08E
:101200001001E16005DA204600F058F80120BDE841
:10121000F081C9030BD56268E16A914200D811469A
:10122000A26911442269891A814200DD08460544F9
:10123000002D01DA0220EAE7E16A6068E268814293
:1012400006D29103E06203D522F4003141F010028E
:10125000A6690027AE4213DCE16A814201D90B4640
:1012600000E0034603EB060C2369ACEB030CAC4532
:1012700006DD814201D98C4600E084469C4505D1BB
:10128000A760276042F02000A5620DE0AD1BE66973
:10129000AE1B8142A66000D90846C01A281A2060F9
:1012A0005819606022F0200003490840E0600020E7
:1012B00084F84870ABE70000BFCFD7FFC16821F4C6
:1012C000001141F08001C160002181600160704720
:1012D0002DE9F047814614460E464FF0FF3832485C
:1012E000D5685769054209D03846A16902F0D6FF92
:1012F000002811DB2C48C0430540E5602B463246F0
:101300004946384602F0CDFFA16920F00042B21AEA
:1013100011440028A16103D02046FFF7CFFF4046CB
:10132000BDE8F08770B504460569C06A6168884207
:1013300000D80846E16821F42011E160C90312D504
:10134000A84208D02246411B2846FFF7C1FF10B132
:101350004FF0FF3070BD0020E562C4E90150E06845
:1013600020F48030E060002070BD10B50446C068F5
:1013700020F02000E060A16AA06988420DD02046DC
:10138000FFF7D0FFE06820F4405040F01000E0602C
:10139000A06AA0612069E062606044F24001E068F8
:1013A0008843E06010BD00001000020010B5044644
:1013B000AFF300802046BDE81040FEF778BF00285C
:1013C00001D000F043B8704710B5014602A000F00C
:1013D00064F8012010BD000053494752545245445F
:1013E0003A2052656469726563743A2063616E27BE
:1013F00074206F70656E3A200000000010B501285F
:1014000005D0002103A000F048F8012010BD09A17B
:10141000F8E7000053494752544D454D3A204F7567
:1014200074206F662068656170206D656D6F7279DC
:10143000000000003A2048656170206D656D6F7294
:101440007920636F727275707465640001491820A9
:10145000ABBEFEE72600020010B50146C268900749
:1014600003D0900607D5886A0AE0FFF707FC012140
:101470000160881E10BD8B69486818440B69C01A4A
:1014800091F848301BB191F84910401A10BD110372
:10149000FCD50028FADD401E10BD70B505460C468F
:1014A0000A2000E06D1C00F011F835B12878002802
:1014B000F8D102E0641C00F009F814B1207800288B
:1014C000F8D1BDE870400A20AFF3008008B5694646
:1014D0008DF800000320ABBE08BDFEE710B50C4A36
:1014E000002100BF01EB810303EBC11332F823405D
:1014F000844205D102EB830393F80832012B05D017
:10150000491CC9B20329EDD3002010BD012010BD34
:1015100000C00120F8B500263546EC4624E0002442
:1015200047193B5DA3F1410EBEF1050F01D8373BD2
:1015300009E0A3F1610EBEF1050F01D8573B02E0AF
:10154000303B092B01D80CF80430641CE4B2022CA7
:10155000E7D39DF801309DF8004043EA041393550A
:10156000761CAD1CF6B2EDB28D42D8D3F8BD7047F3
:101570002DE9F04F4FF0000989B006464F463088FC
:1015800043BA07EB870000EBC7127E4830F8221001
:1015900099427DD109F1010101F0FF09B17808916B
:1015A00000EB8204F17884F80412B18849BA09B2D8
:1015B000002901DD012500E000250095642591FB4F
:1015C000F5FC0FFA8CFCCDF818C01CFB05FC91FB58
:1015D000FCF80CFB181BF18849BA09B291FBF5FC29
:1015E0000FFA8CFA1AFB05FC91FBFCF80CFB1811A6
:1015F00007913189804649BA0591718996F80CC0E6
:1016000049BA090441EA0C2196F80DC041EA0C01DF
:101610000491F18949BAB1FBF5F10391318A0225B0
:1016200049BA0291718A05EB820549BA01910021FC
:10163000A4F802127B214155B4F8020252A2401CC8
:1016400080B2A4F802024044284451A104F20224CA
:10165000FEF7B0FF218852A2084480B220804044A7
:10166000284450A1089BFEF7A5FF218850A20844FA
:1016700080B2208040442844A3784AA1FEF79AFF14
:101680002188084480B22080A4F20224009900E05E
:101690006EE04044069B2844CDF800B046A209B154
:1016A00047A100E049A1FEF785FFB4F802125346B6
:1016B0000844A4F8020207980090B4F8021247A266
:1016C00001EB080028443EA104F20224FEF772FF59
:1016D000218843A2084480B220804044284431A19C
:1016E000059BFEF767FF21883EA2084480B2208058
:1016F000404428443CA1049BFEF75CFF21883DA2A6
:10170000084480B220804044284426A1039BFEF771
:1017100051FF218839A2084480B2208040442844E7
:1017200020A1029BFEF746FF218835A2084480B223
:101730002080404428441BA1019BFEF73BFF2188E9
:1017400030A2084480B22080404428442FA1FEF7F4
:1017500031FF21887D22084480B2208040444255D8
:101760002088401C20800020C4F80A000120A071BD
:101770007F1CFFB2032FFFF402AF09B04846BDE85B
:10178000F08F000000C001206E616D650000000058
:10179000222573223A224E6F64652564222C0000B4
:1017A00042617400222573223A25642C0000000057
:1017B000525353490000000054656D700000000052
:1017C000222573223A25642E25642C0022257322BB
:1017D0003A2D25642E25642C0000000048756D000C
:1017E00050727300414C5300222573223A25752C08
:1017F00000000000504D323500000000575300003B
:10180000574400005261696E0000000022257322D7
:101810003A3000002DE9F041154D00246F69154E56
:10182000F8074FF001080AD0C5F814807068006806
:10183000002804DB3068543007F065FC0446780665
:1018400008D54020686131680B48C1F8588007F01E
:101850005AFC04434FF480306861002C06D00749DD
:1018600000030860BFF34F8FBFF36F8FBDE8F081B7
:101870000090024020000020A40C002004ED00E0B5
:10188000064A136823F440731360136813601368E7
:1018900043F001031360017070470000103C0240E8
:1018A000094910B50C6824F440740C600C6844F4C9
:1018B00040740C600C6844F001040C600260BFF3DB
:1018C0006F8F436010BD0000103C0240074A136850
:1018D00023F440731360136843F480731360136838
:1018E00043F001031360018070470000103C024088
:1018F000074A136823F440731360136843F40073BA
:101900001360136843F00103136001607047000027
:10191000103C024017490868C206174805D5C2693D
:1019200042F01002C26110220A600A68920605D5D0
:10193000C26942F00802C26120220A600A685206A7
:1019400005D5C26942F00402C26140220A600A68F9
:10195000120605D5C26942F00202C26180220A6005
:101960000A68920705D5C26942F02002C2610220CE
:10197000086070470C3C0240500B002070B51149C4
:1019800004460020C86100F021FA06460E4D09E029
:10199000601C07D024B100F019FA801BA04201D9C5
:1019A000032070BD2868C003F2D42868C00701D0A6
:1019B00001202860286810F0F200F2D0FFF7AAFF9B
:1019C000012070BD500B00200C3C024070B5074D4B
:1019D0006C6800F0EBFC00F069F8054805602868C9
:1019E00080F30888A446BDE8704060470000030803
:1019F00008ED00E02DE9F0410446876D00F0E6F9BE
:101A0000064694F835000025022806D0802060653F
:101A100084F834500120BDE8F0812068016821F08D
:101A2000160101602068416921F080014161206C4C
:101A300008B9A06C20B12068016821F0080101609C
:101A40002068016821F0010101600CE000F0BEF99E
:101A5000801B052807D920206065032084F8350005
:101A600084F83450D7E720680068C007EED194F8B6
:101A70005C103F208840B860012084F8350084F86D
:101A800034500020C7E790F83510022903D0802198
:101A9000416501207047052180F835100068016814
:101AA00021F0010101600020704700000B4A10B5D1
:101AB0004FF0FF30106000211160121D10601160A6
:101AC000064A103A10601160121D10601160121D5C
:101AD0001060116000F072FB002010BD2038024041
:101AE00070B5044600F072F90546601C02D0044847
:101AF0000078044400F06AF9401BA042FAD370BD9C
:101B0000080000200348016841F000410160002006
:101B100070470000103C02402DE9F0471B4E05467F
:101B20001446307E1F468946012808D001203076B1
:101B30004CF250384046FFF721FF18B114E0022064
:101B4000BDE8F0879DB1012D16D0022D19D0224697
:101B50003B464846FFF7A4FE4046FFF70FFF0C49FF
:101B60000A6822F001020A6000213176E8E7E1B25A
:101B70004846FFF785FEEFE7A1B24846FFF7A6FE0D
:101B8000EAE721464846FFF7B3FEE5E7500B0020A1
:101B9000103C0240074900200A68002A09DA054A79
:101BA000054B0C3A1360054B13600968002900DAF5
:101BB00001207047103C024023016745AB89EFCDFF
:101BC0002DE9F84FDFF8BCA10022012503264FF0D4
:101BD0000F090AF1040BAAF1040E00BF0B6805FA05
:101BE00002F42340A34270D10F7907F00307012FBD
:101BF00001D0022F16D187684FEA420806FA08FC86
:101C000027EA0C07D1F80CC00CFA08FC4CEA070CC8
:101C1000C0F808C04768A7430C79C4F30014944087
:101C20003C4344600C79E443A4070AD0C4684FEAFB
:101C3000420C06FA0CF7BC438F6807FA0CF72743EF
:101C4000C7600C7904F00304022C12D1D40800EB15
:101C5000840CDCF820405707FF0E09FA07F824EA45
:101C60000804D1F8108008FA07F848EA0408CCF80C
:101C7000208004684FEA420C06FA0CF7BC430F7947
:101C800007F0030707FA0CF7274307604C6814F4C2
:101C9000403F70D03C4C276847F480472760246859
:101CA00022F0030704F480440094384C07EB040C42
:101CB000DCF8084897074FEA177809FA08F7BC4399
:101CC000334FB84202D1002724E054E0314FB842EC
:101CD00001D101271EE0304FB84201D1022719E09F
:101CE0002E4FB84201D1032714E02D4FB84201D145
:101CF00004270FE02B4FB84201D105270AE02A4FF5
:101D0000B84201D1062705E0284FB84201D1072784
:101D100000E0082707FA08F72743CCF80878DAF834
:101D200000405746D1F804C09C435FEACC2C00D554
:101D30001C433C60DBF800405F46D1F804C09C4384
:101D40005FEA8C2C00D51C433C60DEF800407746EF
:101D5000D1F804C09C435FEA8C3C00D51C433C6036
:101D6000084F083F3C68D1F804C09C435FEACC3C74
:101D700000D51C433C60521C102AFFF42FAFBDE875
:101D8000F88F0000083C0140443802400030014018
:101D9000000002400004024000080240000C024023
:101DA000001002400014024000180240001C0240D3
:101DB000426921EA02030A4043EA02418161704715
:101DC0000AB1816170470904FBE70000014880689F
:101DD000704700000800002070B5040025D094F87A
:101DE0003D00002520B984F83C50204600F050F911
:101DF000242084F83D002068016821F00101016081
:101E00002068016841F4004101602068016821F404
:101E10000041016000F084FB4D4A6168914201D8A5
:101E20004C4900E04C49884201D2012070BD4B4929
:101E30002368B0FBF1F15E6826F03F060E435E605A
:101E40006368934206D94FF4967359434FF47A73FB
:101E5000B1FBF3F12368491C1E6A26F03F063143AB
:101E600019626168914210D84900401EB0FBF1F23E
:101E7000521CC2F30B02042A01D2042022E0B0FB60
:101E8000F1F0401CC0F30B001CE0A268F2B301EBC0
:101E9000C10303EB0116431EB3FBF6F35B1C43F4D3
:101EA00080431B0549D092B301EBC10202EB011143
:101EB000401EB0FBF1F0401CC0F30B0040F480402A
:101EC00040F400402168CA694CF6FF739A431043FE
:101ED000C861D4E9071001432068026822F0C002FB
:101EE00011430160D4E9030101432068826848F28C
:101EF000FF339A4311438160D4E905010843216807
:101F0000CA6822F0FF021043C86001E00EE016E04C
:101F10002068016841F0010101602564202084F8F7
:101F20003D00256384F83E50002070BD01EB410662
:101F3000431EB3FBF6F35B1CB3E70120C2E701EBE2
:101F40004101401EB0FBF1F0401CC0F30B00B7E7AD
:101F5000A086010080841E0000093D0040420F0061
:101F60002DE9FF4F83B09A46DDE911979346044669
:101F7000DDF84080FFF72AFF054694F83D00202851
:101F80007FD11923012240492046009501F0C4FA6F
:101F9000002876D194F83C00012872D0012084F802
:101FA0003C0020680168C90703D1016841F00101C4
:101FB00001602068016821F400610160212084F83B
:101FC0003D00402084F83E0000262664C4F82480AA
:101FD000A4F82A90608D20852C48E062CDE9007538
:101FE00053465A462046049901F01CFA70B930E075
:101FF0002A463946204601F00EFB58B1206C0428D1
:1020000004D12068016841F400710160012007B02B
:10201000BDE8F08F606A216800780861606A401C42
:102020006062218D491E89B22185628D521E6285B2
:1020300022685369DB435B070BD469B100781061F8
:10204000606A401C6062208D401E2085608D401EAD
:102050006085208D0028CBD12A463946204601F0E4
:1020600035FA0028CAD154F83D0B016841F40071DB
:102070000160202004F81E09E67766770020C6E795
:10208000FFE70220C3E70000020010000000FFFF8E
:1020900010B586B0044614216846FEF77BFD13494F
:1020A0002068884220D112480021026842F00202D2
:1020B0000260006800F002000590C020009012202D
:1020C000CDE90101032003900420049069460948EA
:1020D000FFF776FD06481030016841F400110160F9
:1020E000006800F40010059006B010BD00540040D8
:1020F000303802400004024000684AF6AA2101601C
:10210000002070470248816802781144816070475E
:10211000080000200B4810B5016841F4007101600F
:10212000016841F480610160016841F480710160DF
:10213000032000F08FF80F2000F006F800F040F8C0
:10214000002010BD003C024010B5014688B00022BE
:10215000362000F05FF8362000F04EF813480024D7
:10216000016841F010010160006805A900F010004D
:102170000690684600F0B4F900F0D2F90C4940002E
:10218000B0FBF1F10C480B4A491E026040F2E73205
:10219000C0E90324C0E9011400F0A6FC10B101203D
:1021A00008B010BD044800F0FDFCF9E740380240DB
:1021B00040420F0000100040080B00207047000054
:1021C0000C4882B0016841F480410160006800F46D
:1021D000804000900748001F016841F08051016075
:1021E0000068002200F0805000900F21901E02B085
:1021F00000F010B844380240002809DB00F01F024C
:10220000012191404009800000F1E020C0F8001158
:1022100070470000F0B40E4B1B680C46C3F302235A
:10222000C3F10705042D00D90425191D072901D282
:10223000002300E0DB1E012606FA05F1491E2140BD
:1022400099409E40761E16403143F0BC01F0C2BF5B
:102250000CED00E0064900F0070208684FF6FF03A6
:10226000184040EA0220034A10430860704700000B
:102270000CED00E00000FA052DE9F0470E460500E0
:1022800065D0DFF81481D8F80000F7B200F007003D
:10229000B04207D288F80070D8F8000000F00700BC
:1022A000B04254D128683D4C810712D5400703D570
:1022B000206840F4E05020602878000703D52068AB
:1022C00040F4604020602068A96820F0F0000843D6
:1022D00020602878C0072DD0304968680839012867
:1022E00012D0022813D0032811D0096889070029C9
:1022F0002DDA216821F0030101432160FFF766FD1B
:10230000814641F2883A0EE009688903EFE70968DF
:102310008901ECE7FFF75AFDA0EB0901514502D90D
:102320000320BDE8F0872068696800F00C00B0EB7E
:10233000810FEFD1D8F80010404601F00701B142FB
:1023400007D90770006800F00700B04201D00120F3
:10235000E7E72878400705D52068E96820F4E050D1
:10236000084320602878000706D52068296920F4F2
:10237000604040EAC100206000F0F2F82168084A9D
:10238000C1F30311515CC840064908600648006863
:10239000FFF7DAFE0020C4E7003C024008380240A4
:1023A000ECE80408B4C601200C0000202DE9F0413F
:1023B000FFF70CFD444C0546206840F0010020600A
:1023C00005E000BFFFF702FD401B022847D8206848
:1023D0008007F7D5206840F080002060FFF7F6FC0A
:1023E0000546394E00200836306041F2883704E057
:1023F000FFF7ECFC401BB84231D8306810F00C0FEE
:10240000F6D1FFF7E3FC0546206820F45020206059
:1024100005E000BFFFF7DAFC401B64281FD82068E6
:102420008003F7D4FFF7D2FC0546206820F08070C7
:10243000206004E0FFF7CAFC401B02280FD8206888
:102440008001F7D4FFF7C2FC0546206820F08060C9
:10245000206007E0FFF7BAFC401B022802D90320E6
:10246000BDE8F08120680001F4D417491748091D20
:102470000860154916488431086013480C3001681B
:1024800021F4F8510160016821F4005101600168F4
:1024900041F41F010160016841F4001101600A4824
:1024A0007430016821F001010160016841F0807120
:1024B000016009490748086008480068FFF744FEC2
:1024C0000028CDD00120CBE70038024010300004B6
:1024D000003000200024F400B4C601200C000020CD
:1024E0000F2202600C4A136803F003034360136871
:1024F00003F0F0038360136803F4E053C3601268D1
:102500004FF4E05303EAD20202610448006800F08D
:10251000070008607047000008380240003C024095
:102520000448054900680968044AC1F38221515CE6
:10253000C8407047B4C6012008380240FCE80408CF
:102540000448054900680968044AC1F34231515CF6
:10255000C8407047B4C6012008380240FCE80408AF
:10256000154810B5006810F00C02144813D0144937
:10257000042A0FD0082A0ED10F4C241F226823688A
:1025800002F03F025B0207D52068C0F38810A0FB71
:10259000010106E0084610BD2168C1F38811A1FBC6
:1025A00000010023FDF768FF2168C1F30141491CC8
:1025B0004900B0FBF1F010BD083802400024F400DF
:1025C00040787D012DE9F84F04006ED02078DFF8C7
:1025D0004C93C007A9F104054AD009F10400016831
:1025E000C1F38101012908D00068C0F381000228ED
:1025F0000AD1D9F80000400206D52868800337D5F3
:1026000060680028E1D033E06068B0F5803F10D00A
:10261000B0F5A02F286810D020F4803028602868FA
:1026200020F4802028606068A8B1FFF7CFFB064641
:102630000DE0286840F48030F4E740F48020286002
:10264000F7E700BFFFF7C2FB801B642873D8286838
:102650008003F7D50CE0FFF7B9FB064605E000BFA5
:10266000FFF7B4FB801B6428F0D828688003F7D4F8
:102670002078DFF8AC8280074FF0000A3ED5A748EB
:10268000001D016811F00C0F08D00068C0F3810034
:1026900002280BD1D9F80000400207D4286880072F
:1026A00016D5E068012800D112E033E1E068B8B146
:1026B0000120C8F80000FFF789FB064605E000BFCF
:1026C000FFF784FB801B0228C0D828688007F7D555
:1026D0002868216920F0F80040EAC10028600DE078
:1026E000C8F800A0FFF772FB064604E0FFF76EFB98
:1026F000801B02281FD828688007F7D4207800079D
:1027000022D5864F87486169703771B10121016018
:10271000FFF75CFB064604E0FFF758FB801B02282E
:1027200009D838688007F7D50EE0C0F800A0FFF799
:102730004DFB064605E082E0FFF748FB801B0228C0
:102740007DD838688007F7D42078400768D5DFF84F
:10275000CCB100270BF13C0BDBF80000C0000BD420
:10276000DBF8001041F08051CBF80010DBF80000DE
:10277000012700F0805000906B4E3068C00510D4E7
:10278000306840F480703060FFF720FB009005E077
:10279000FFF71CFB0099401A022850D83068C0058A
:1027A000F6D55E4EA0686C3601280FD0052830683B
:1027B00010D020F001003060306820F0040030605C
:1027C000A068B8B1FFF702FB00900FE0306840F05E
:1027D0000100F4E740F004003060F7E7FFF7F6FA95
:1027E0000099411A41F28830814266D830688007EA
:1027F000F4D50EE0FFF7EAFA009007E0FFF7E6FAFB
:102800000099411A41F28830814256D830688007D9
:10281000F4D42FB1DBF8001021F08051CBF8001078
:10282000A069C8B33D49091D0968C1F381010229A6
:102830004AD00228504607D0C8F8600000E03CE0CB
:10284000FFF7C4FA04463BE04746C8F86000FFF7CC
:10285000BDFA064605E000BFFFF7B8FA801B022864
:102860002BD828688001F7D4D4E907010843A16A6E
:102870002E4A490802EB0141626A41EA821108438B
:1028800094F82C1040EA0161C9F800100120386664
:10289000FFF79CFA044606E03EE000BFFFF796FA19
:1028A000001B022809D828688001F7D534E000BF52
:1028B000FFF78CFA001B022802D90320BDE8F88F2D
:1028C00028688001F4D427E00128F7D0D9F8000067
:1028D000E26900F4800191421CD1226A00F03F01BC
:1028E000914217D147F6C071626A0140B1EB821F75
:1028F00010D1A26A4FF0FF3300F4403103EB5202D3
:10290000B1EB024F06D194F82C1000F07060B0EBE0
:10291000016F01D00120D1E70020CFE70438024049
:1029200000004742800E4742007000400000FFFF59
:1029300010B5040011D02068016821F00C0101607D
:102940002068416821F060014160204600F060F895
:1029500000206071A060207110BD012010BD00003A
:102960002DE9F0470446007900278A4601280ED059
:102970000125257160794FF00009012809D0042054
:10298000A060012784F804903846BDE8F087022053
:10299000FBE74FF0020884F80580FFF717FA0646B8
:1029A00011E000BFFFF712FA801B02280BD9206844
:1029B0004068C043C00706D06571C4F8088084F839
:1029C00004900120E1E720684068C043C007E9D1D6
:1029D00020688068E060CAF800006571D2E770B5D1
:1029E000040003D06079002510B105E0012070BD1E
:1029F0002571204600F01AF80220607120680168F5
:102A000041F00401016001206071A560002070BDEB
:102A100000680449884204D10348016821F040015C
:102A200001607047000806503438024008B500685D
:102A30000649884208D10648016841F0400101601A
:102A4000006800F04000009008BD0000000806503B
:102A5000343802407047704770B590F83C20012A26
:102A600032D0012480F83C40022280F83D200368E7
:102A70005A689D6822F070060A6832435A60134B08
:102A800002689A4214D0B2F1804F11D0104B9A4292
:102A90000ED0104B9A420BD00F4B9A4208D00F4BDE
:102AA0009A4205D00E4B9A4202D00E4B9A4204D164
:102AB000496825F080031943916080F83D4000216A
:102AC00080F83C10084670BD022070BD0000014037
:102AD0000004004000080040000C004000040140D9
:102AE000004001400018004010B5040003D094F8E5
:102AF0003D0010B107E0012010BD002084F83C002B
:102B0000204600F01FF8022084F83D00211D2068B7
:102B100001F032F9012084F8460084F83E0084F880
:102B20003F0084F8400084F8410084F8420084F8B3
:102B3000430084F8440084F8450084F83D000020F8
:102B400010BD000008B501681448B1F1804F14D0E1
:102B5000134A914220D1016841F0080101600068E8
:102B6000002200F00800009005213220FFF752FB00
:102B70003220BDE80840FFF73FBB016841F001018A
:102B800001600068002200F00100009005211C2077
:102B9000FFF740FB1C20ECE708BD00004038024076
:102BA000000C004090F83D10012901D00120704731
:102BB000022180F83D100168CA6842F00102CA6033
:102BC00000681149884214D0B0F1804F11D00F49EC
:102BD00088420ED00E4988420BD00E49884208D058
:102BE0000D49884205D00D49884202D00C498842DF
:102BF00004D1816801F00701062903D0016841F082
:102C00000101016000207047000001400004004005
:102C100000080040000C004000040140004001405A
:102C20000018004070B5044690F83C0000250128CB
:102C300017D0012684F83C60022084F83D0020680B
:102C4000826822F0770222F47F428260086850286E
:102C500038D00DDC20284FD005DC90B3102811D1DE
:102C60004AE0022070BD302846D040280AD13BE01F
:102C700060282FD070280DD0B0F5805F03D0B0F55C
:102C8000005F12D0012584F83D60002084F83C00EC
:102C9000284670BDCB68D1E90121206801F0D0F849
:102CA0002068816841F0770109E0CB68D1E9012112
:102CB000206801F0C5F82068816841F48041816096
:102CC000E1E719E0CA684968206801F0CBF85021B3
:102CD000206806E0CA684968206801F0D4F86021DD
:102CE000206801F0B7F8CEE7CA684968206801F0AB
:102CF000B9F840212068F4E7226801461046F0E761
:102D0000704770B50446006801694FF00005C9437B
:102D1000890715D4C168C943890711D4E91E016127
:102D200001202077206880698007204602D0FFF7C5
:102D3000E7FF04E000F098F8204600F096F82577C9
:102D400020680169C943490717D4C168C9434907C5
:102D500013D46FF00401016102202077206880699C
:102D600010F4407F204602D0FFF7CAFF04E000F0D5
:102D70007BF8204600F079F8257720680169C9437F
:102D8000090716D4C168C943090712D46FF00801B6
:102D90000161042020772068C0698007204602D0A6
:102DA000FFF7AEFF04E000F05FF8204600F05DF8AA
:102DB000257720680169C943C90617D4C168C9438A
:102DC000C90613D46FF01001016108202077206834
:102DD000C06910F4407F204602D0FFF791FF04E065
:102DE00000F042F8204600F040F82577206801699D
:102DF000C943C90708D1C168C943C90704D1891E9D
:102E00000161204600F032F820680169C9430906D3
:102E100009D4C168C943090605D46FF08001016176
:102E20002046FFF717FE20680169C943490609D407
:102E3000C168C943490605D46FF0400101612046CD
:102E400000F01EF820680169C94389060BD4C168E7
:102E5000C943890607D46FF0200101612046BDE80F
:102E60007040FFF7F8BD70BD7047704700680349B8
:102E7000884201D1FFF746B97047000000100040BA
:102E80007047704770470000F8B50168044608684D
:102E9000CA684B6910F00F0F4FF0000559D003F0CE
:102EA000010602F49077374365D0C10705D0D105FC
:102EB00003D5216C41F001012164410705D5D907F3
:102EC00003D0216C41F002012164810705D5D907A7
:102ED00003D0216C41F004012164010707D502F001
:102EE0002001314303D0216C41F008012164216CA1
:102EF00000293AD0800604D5900602D5204601F07C
:102F000003F820684069216CC0F38010090700D4E1
:102F100060B3204600F0D1FF20684069400621D50B
:102F20002068143050E8001F21F0400140E80012F2
:102F3000002AF5D1A06BA8B16C490165A06BFEF722
:102F4000A2FD002811D0A06B016D01B0BDE8F040DA
:102F5000084783060FD593060DD52046BDE8F840F7
:102F600000F0D2BF2046FFF78DFFF8BD2046FFF7E7
:102F700089FF2564F8BD266B2023012E79D1C60672
:102F800077D5D60675D50868486800904869400628
:102F900040D5A16B086840680004000CEAD0A28DFF
:102FA0008242E7D9E085C869B0F5807F2DD02068DE
:102FB0000C3050E8001F21F4807140E80012002A14
:102FC000F5D12068143050E8001F21F0010140E8DD
:102FD0000012002AF5D12068143050E8001F21F0BB
:102FE000400140E80012002AF5D184F83E30256304
:102FF00020680C3050E8001F21F0100140E800125A
:10300000002AF5D1A06BFEF7F5FCA08DE18D401AEA
:1030100081B229E0A08DE18D401A81B2E08D0028B7
:10302000A8D00029A6D020680C3050E8002F22F448
:10303000907240E80026002EF5D12068143050E848
:10304000002F22F0010240E80026002EF5D184F87E
:103050003E30256320680C3050E8002F22F010022B
:1030600040E80023002BF5D12046FFF70AFFF8BD0A
:10307000FFE705062BD5150629D594F83D00212834
:10308000F5D1A068B0F5805F01D12069B0B1206AA8
:10309000411C2162216800784860E08C401E0004D9
:1030A000000CE084E3D12068C16821F08001C16098
:1030B0002068C16841F04001C160D8E7206A0088FB
:1030C000C0F308004860206A801C2062E5E74006E3
:1030D000CDD55006CBD5CA68204622F04002CA6042
:1030E00084F83D3000F0CFF8C1E70000AB3E0408A3
:1030F00070B5040004D094F83D00002510B106E03E
:10310000012070BD84F83C50204600F023F82420B4
:1031100084F83D002068C16821F40051C160204658
:1031200000F052FF2068016921F49041016120689C
:10313000416921F02A0141612068C16841F40051D0
:10314000C1602564202084F83D0084F83E00002002
:1031500070BD000010B586B0044614216846FDF726
:1031600019FD18492068884229D1174800210268B2
:1031700042F480220260006800F48020059012482A
:103180001038026842F008020260006800F008008F
:1031900005904FF4407000900220CDE9010103201A
:1031A00003900720049069460848FEF709FD0022B5
:1031B00005212720FFF72EF82720FFF71DF806B07E
:1031C00010BD00000048004040380240000C0240A2
:1031D000704700002DE9F843044690F83D001F4673
:1031E00016460D4620284CD1C5B1BEB194F83C001E
:1031F000012846D0012084F83C004FF00008C4F8B4
:103200004080212084F83D00FEF7E0FDA684814641
:10321000E684A068B0F5805F03D004E00120BDE83B
:10322000F883206928B12E465FF0000584F83C80C1
:103230000EE00026FAE78021204600F04BFFA0B9FF
:10324000AEB116F8010B21684860E08C401EE084A6
:10325000E08C4B464FF0000200970028EBD14FF076
:103260004001204600F036FF30B10320D7E735F8A3
:10327000020BC0F30800E6E7202084F83D000020A0
:10328000CDE70220CBE77047FEE700002DE9F043D1
:103290008FB081464FF000600E4600250DF11C08EE
:1032A000019099E019F805003A287DD109EB05074E
:1032B000781C03AA0221FEF72DF9F81C07AA0421A5
:1032C000FEF728F9BDF81C000DAA44BAF81D02212A
:1032D000FEF720F99DF80C000BAA07EB4000022135
:1032E0000930FEF717F99DF80C0009374006010E6A
:1032F000384607AAFEF70EF99DF80C109DF8342009
:10330000881800EB142020448DF82D00002007E0E1
:103310009DF82DC018F80030401C63448DF82D3006
:103320008842F5D39DF82D00401EC0B280F0FF000A
:103330008DF82D009DF82C10884254D132B1012A0D
:1033400049D0042A39D0052A45D142E0FEF722FCB3
:103350002649712008609DF80C0007AA4006010E5E
:103360003846FEF7D7F8002720E000BF08EB07003B
:1033700018F80710C27841EA02628178407809049F
:1033800041EA0020024300981949204388422AD389
:10339000DDE900010840204301460090002302209F
:1033A000FEF7BAFB241D00E015E03F1D9DF80C0060
:1033B0008742DBD3FEF7A6FB0DE0384607AA0421BF
:1033C000FEF7A8F8BDF81C0040BA00040090019078
:1033D00001E0FEF7FBFA6D1CB542FFF463AF01207C
:1033E0000FB0BDE8F0830020FAE700000C3C02407B
:1033F0000000030801684A69D24352050FD46FF4F4
:1034000080624A61002140F8301F2022427381739C
:10341000026942F00402026101730120704700203A
:10342000704700002DE9F843044600680D46DDE9C9
:10343000089701689846164641F4807101604B4632
:1034400000224FF001112046009700F065F848B1C6
:1034500020680068C00502D54FF400702064032086
:10346000BDE8F883216805F0FE0008613B464A4646
:103470001549204600F084F888B9206841698069C0
:1034800000903A464946204600F0C5F848B1206C05
:10349000042804D12068016841F400710160012012
:1034A000DEE7F5B2B8F1010F09D02168300A0861F2
:1034B0003A464946204600F0AEF80028E7D1206899
:1034C00005610020CCE700000200010070B516463F
:1034D0000D4604460DE02046FFF78CFF08B10120A1
:1034E00070BD681C05D0FEF771FC801BA84207D890
:1034F00035B120684069C0434007ECD4002070BD5E
:10350000002044F8300F20216173A073216941F03D
:10351000200121612073E2E72DE9F0471E46904625
:103520000D460446C1F30747DDF8209008E0701C03
:1035300006D0FEF74BFCA0EB0900B0420FD876B1E5
:103540002068012F18D0806925EA00000004000CD3
:1035500014D000214145EAD00020BDE8F0870020CA
:1035600044F8300F20216173A073216941F02001DC
:10357000216120730120F0E74069E5E70121E9E7D7
:103580002DE9F0479A4691460E46044600254FF035
:103590002008C1F3074725E020684069C043400583
:1035A00014D42068016841F40071016021686FF44F
:1035B00080604861256384F83D8084F83E50206C2B
:1035C00040F00400206484F83C501FE0B9F1FF3F54
:1035D00008D0FEF7FBFBA0EB0A0149450CD8B9F176
:1035E000000F09D02068012F13D0806926EA00005F
:1035F0000004000C0BD0CFE744F8305F84F80D8056
:10360000A573206940F02000206125730120BDE8EA
:10361000F0874069EAE770B516460D4604460DE0AE
:103620002046FFF7E7FE08B1012070BD681C05D0F9
:10363000FEF7CCFB801BA84207D835B12068406953
:10364000C0430006ECD4002070BD002044F8300FC9
:1036500020216173A073216941F020012161207351
:10366000E2E70000F0B500210F4B0C4647F2305561
:103670004FF4007601EB810000EBC11003EB8002F8
:10368000002082F80842C2F810521718BF7847B1DC
:10369000401C80B2B042F8D3491C89B20329E9D357
:1036A000F0BDA2F80202F7E700C001202DE9F043C7
:1036B00087B014216846FDF76DFA3248002401688E
:1036C00041F080010160016801F08001059101680D
:1036D00041F001010160016801F0010105910168FB
:1036E00041F010010160016801F0100105910168CD
:1036F00041F008010160016801F0080105910168CD
:1037000041F00201016000681F4F00F002000590C7
:10371000002290213846FEF753FBDFF8708042F21A
:103720000306002231464046FEF74AFBDFF8609070
:10373000012208214846FEF743FB00224FF40471A2
:103740004846FEF73DFB902000900125CDE901544D
:10375000694638460394FEF733FA0096CDE90154E2
:10376000694640460394FEF72BFA4FF4067000902A
:10377000CDE90154694648460394FEF721FA07B0A3
:10378000BDE8F083303802400000024000100240E3
:103790000004024010B586B000241748009401943C
:1037A0000294039404944FF0804105940160102129
:1037B000C0E901144FF47A71C0E9031480218161DA
:1037C000FFF792F908B172B6FEE74FF4805000900F
:1037D00069460948FFF726FA08B172B6FEE7049475
:1037E00004A905480594FFF737F9002801D072B6FF
:1037F000FEE706B010BD0000E002002010B586B064
:1038000000241748009401940294039404941349EB
:10381000059401603C21C0E901144FF47A71C0E9BC
:1038200003148461FFF760F908B172B6FEE74FF444
:103830008050009069460A48FFF7F4F908B172B663
:10384000FEE7049404A906480594FFF705F900284B
:1038500001D072B6FEE706B010BD0000000C0040BB
:10386000280300202DE9F041BAB0002006F096FBB5
:10387000FEF7ACFA064678224F496846FDF7F1F8A4
:103880000021022006F008FC4CA250A11EA8FCF763
:1038900091FE504D01231EA8D5E9001206F09CFCB4
:1038A0000A21022006F0F8FB40F6B8334AA24EA1E6
:1038B0001EA8FCF77FFED5E9001201231EA806F022
:1038C0008BFC1421022006F0E7FB494C94F8080217
:1038D000012857D0228847A11EA8FCF76BFED5E926
:1038E000001201231EA806F077FC1E21022006F01C
:1038F000D3FB94F81C0401284CD0B4F814223DA149
:103900001EA8FCF757FED5E9001201231EA806F0F9
:1039100063FC2821022006F0BFFB94F83006012842
:1039200041D0B4F8282433A11EA8FCF743FED5E902
:10393000001201231EA806F04FFCE84642F2107464
:103940003821022006F0A8FBD5E9001201236846C1
:1039500006F042FC06F0B2FB9DF80070742208F1FC
:1039600001016846FDF73BF88DF87470FEF72EFAFA
:103970000746322005F092FBB81BA042E0D33AB0D4
:10398000BDE8F08194F8043222881FA11EA8FCF73C
:1039900011FEA4E794F81834B4F814221AA11EA852
:1039A000FCF708FEAFE794F82C36B4F8282416A1EB
:1039B0001EA8FCF7FFFDBAE7ACE704083139322E48
:1039C0003136382E31342E31393900004E3A2573D4
:1039D000000000003CC601203139322E3136382E2D
:1039E00037302E3136000000533A25733A256400F3
:1039F00000C001204E6F64652564203A204E4F20A0
:103A000043415252494552004E6F646525643A2045
:103A10004F6E6C696E65202D25642064426D000038
:103A2000FEE7FEE7FFF71EFF012005F037FBF9E791
:103A300002F094FE0448FFF7B5F800BF09F084FADD
:103A4000012005F02BFBF9E7280300200A4809496B
:103A5000416000214180FFF705FE084D4FF480646E
:103A60004FF47A7621462846FEF7A2F9304605F053
:103A700015FBF7E708070020ACC601200004024050
:103A800010B5502080F31188BFF34F8FBFF36F8FB5
:103A900009F02CFE18B104494FF080500860002056
:103AA00080F3118810BD000004ED00E070B592B005
:103AB00030216846FDF76EF814210CA8FDF76AF86E
:103AC0001D480025016841F080510160006800F048
:103AD000805011901948016841F4804101600068EC
:103AE000022400F480401190092000904FF48030AF
:103AF00001900120CDE9050480050F26CDE90706D8
:103B00009020CDE9090405200B906846FEF75AFD88
:103B100008B172B6FEE74FF4A050CDE90E50CDE9E2
:103B20000C64109003210CA8FEF7A6FB002801D01E
:103B300072B6FEE712B070BD40380240007000401F
:103B40000248016841F470010160704788ED00E0AF
:103B5000ADF5946D0024ADF8884406210120CDF820
:103B6000844406F033F9060007D105F0D5FA4FA1D9
:103B70005348FCF714FD05F0B6FA3221304606F042
:103B8000E3F938B105F0C8FA4EA14D48FCF707FD3E
:103B900005F0A9FA0DF28C4151A002F092FE5022DC
:103BA0000DF28C41304606F095F838B105F0B4FAC4
:103BB0004FA14348FCF7F3FC05F095FA012130468C
:103BC00006F0EAF838B105F0A7FA4EA13C48FCF738
:103BD000E6FC05F088FA514D4FF480774FF4906978
:103BE000687820B1012818D002284BD12CE00DF5BF
:103BF00091620DF29441304606F016F85FEA000833
:103C000002D0012068703DE005F086FA44A12C48FE
:103C1000FCF7C5FC05F067FA34E00DF284434A4630
:103C200001A94046009706F0E3F838B905F074FAA8
:103C300034A12348FCF7B3FC05F055FADDF8840401
:103C400000B3CDF884441DE00DF284434A4601A937
:103C50004046009706F0CCF838B905F05DFA29A186
:103C60001748FCF79CFC05F03EFADDF8841449B1D6
:103C700001A805F079FA012804D101A8DDF884141F
:103C8000FFF704FB404607F061FA052802D008B1AF
:103C90000B2803D36C70404606F02EF8012005F087
:103CA00004FA2848FEF728FA9AE700002A2A2A454B
:103CB00052524F5220736F636B202A2A2A0D0A003A
:103CC000288900202A2A2A4552524F5220736574AF
:103CD0002074696D656F7574202A2A2A0D0A000008
:103CE0003139322E3136382E31342E313939000007
:103CF0002A2A2A4552524F522062696E64202A2A8B
:103D00002A0D0A002A2A2A4552524F52204C697322
:103D100074656E202A2A2A0D0A00000094C601202C
:103D20002A2A2A4572726F72206163636570746912
:103D30006E6720636F6E6E656374696F6E2A2A2AE0
:103D40000D0A0000C40200200148FEF7DABF00009F
:103D5000E002002010B509F01BF900F003FABDE8FD
:103D600010400148FEF7CDBF280300200148FEF7B0
:103D7000C8BF0000080B0020F0B50268254C264D96
:103D8000264E274F274B4FF0804CA04209D060456C
:103D900007D0A84205D0B04203D0B84201D0984223
:103DA00004D122F0700E4A6842EA0E02A0421BD0F3
:103DB000604519D0A84217D0B04215D0B84213D0F0
:103DC000984211D0184DA8420ED0184DA8420BD0E1
:103DD000174DA84208D0174DA84205D0164DA8424D
:103DE00002D0164DA84203D122F44075CA682A4376
:103DF0004D6922F080022A4302608A68C2620A6822
:103E00008262A04201D0984201D109690163012177
:103E10004161F0BD00000140000400400008004086
:103E2000000C0040000401400040014000440140FB
:103E30000048014000180040001C004000200040E5
:103E400010B5846842EA032224F47F440A432243E3
:103E5000826010BD826822F070020A4342F00701BE
:103E60008160704710B5036A046A24F0010404629B
:103E7000846924F0F00444EA021423F00A020A439D
:103E80008461026210BD10B5036A23F0100303625F
:103E90008369046A23F4704343EA023224F0A003E6
:103EA00043EA01118261016210BD10B5806B0021EF
:103EB000C185C184FEF7E6FF10BD01680C3151E8F1
:103EC000002F22F4907241E80023002BF5D1016805
:103ED000143151E8002F22F0010241E80023002BA9
:103EE000F5D1016B012909D101680C3151E8002F8E
:103EF00022F0100241E80023002BF5D1202180F8A8
:103F00003E1000210163704708B590F83E10222949
:103F100001D0022008BD82684FF480539A4201D13B
:103F2000016921B1816A9A421BD04AB10AE0026854
:103F3000816A5268C2F308020A80816A891C08E01B
:103F4000026972B10268526802F07F020A70816AE7
:103F5000491C8162C18D491E0904090CC18503D029
:103F600019E002685268F1E70168CA6822F020028D
:103F7000CA600168CA6822F48072CA6001684A692E
:103F800022F001024A61202180F83E10016B0129D4
:103F900003D0FFF71DF9002008BD0021016301686F
:103FA0000C3151E8002F22F0100241E80023002BD1
:103FB000F5D101680A68D20602D50A6849680091FD
:103FC000818DFEF75EFFE6E770B504460068016983
:103FD000E26821F44051114301612169A068E2695E
:103FE00008436169114308432168CA6849F20C63B8
:103FF0009A430243CA6020684169A26921F4407172
:104000001143416131492068884202D030498842D9
:1040100002D1FEF795FA01E0FEF782FAE269002389
:10402000192164253226B2F5004F626828D0A0FB22
:104030000101930F9200FCF71FFA0146B0FBF5F067
:104040006FF01802504301EB800006EB0010B0FB4C
:10405000F5F000F0F002B1FBF5F002EB0012B1FB5D
:10406000F5F06FF01803584301EB800006EB0010E9
:10407000B0FBF5F000F00F0021681044886070BDBF
:10408000A0FB010192185B41FCF7F6F90146B0FB79
:10409000F5F00201B1FBF5F06FF01803584301EBA6
:1040A000800006EBC000B0FBF5F000F0F80002EB7A
:1040B0004002B1FBF5F0584301EB800006EBC00075
:1040C000B0FBF5F000F00700D6E70000001001405B
:1040D000001401402DE9F041984617460E4604466B
:1040E000069D27E0681C25D02DB1FDF76FFEA0EBE3
:1040F0000800A8421ED920680C3050E8001F21F4A7
:10410000D07140E80012002AF5D12068143050E840
:10411000001F21F0010140E80012002AF5D1202003
:1041200084F83D0084F83E00002084F83C00032021
:10413000BDE8F0812068006836EA000004D0002065
:10414000B842CFD00020F3E70120F9E710B508F01E
:1041500069FFBDE810400148FEF796BE70030020DD
:10416000FEE700001A48002290F8081201290CD13D
:10417000D0F80C12491CC0F80C12D0F81032994239
:1041800003D380F80822C0F80C2290F81C140129EF
:104190000CD1D0F82014491CC0F82014D0F82434D5
:1041A000994203D380F81C24C0F8202490F83016DC
:1041B00001290CD1D0F83416491CC0F83416D0F8B7
:1041C0003836994203D380F83026C0F83426704739
:1041D00000C001200907090E002804DB00F1E020DF
:1041E00080F80014704700F00F0000F1E02080F824
:1041F000141D704730380A2801D201207047002072
:1042000070476FF40041401804D0012803D0022801
:1042100001D008147047002070476FF40041401827
:1042200000D0002070476FF40041401805D00128ED
:1042300002D0022801D00020704701207047000002
:1042400070B504004FF0FF3511D020783A280ED118
:104250000CA12046FCF7C6FC58B10CA12046FCF787
:10426000C1FC48B10BA12046FCF7BCFC38B1284684
:1042700070BD48F2010070BD48F2020070BD48F206
:10428000030070BD3A535444494E00003A5354441D
:104290004F5554003A535444455252004FF0FF30AA
:1042A00070476FF4004141184FF0FF300DD00129E5
:1042B00002D0022909D103E032B100BE521EFBE751
:1042C00012B100BE521EFBE7002070472DE9F04FEF
:1042D0008C780B888D7964F31F43CC788E7A43EA0F
:1042E00004648B888F7B65F31F43CD79D0F80090F1
:1042F00043EA05650B8966F31F43CE7A43EA0666F7
:104300008B89C97B67F31F4343EA016143686340BC
:1043100084686C40C568754006694E40012764E0BA
:10432000714903F0FF0CC4F3072851F82CC051F871
:1043300028808CEA386CC5F3074851F828808CEA4D
:10434000384C4FEA166851F828808CEA382B04F074
:10435000FF0C51F82C80C5F3072C51F82CC088EACB
:104360003C68C6F3074C51F82CC088EA3C484FEA39
:10437000136C51F82CC088EA3C2A05F0FF0C51F868
:104380002C80C6F3072CF6B251F82CC051F82660E9
:1043900088EA3C68C3F3074CC3F3072351F82CC0E9
:1043A00051F8233088EA3C484FEA146CC4F30744C0
:1043B00086EA336351F8244051F82CC083EA344331
:1043C0002C0E00EB071651F82410B46883EA312153
:1043D0007368F568366988EA3C2C4E4083EA0B0323
:1043E00084EA0A0485EA0C057F1CB94598D83F4940
:1043F00051FA83F7C4F3072C3F7811F80CC047EA51
:104400000C27C5F3074C11F80CC047EA0C4701EB29
:10441000166C9CF800C047EA0C6A51FA84F7C5F3A1
:10442000072C3F7811F80CC047EA0C27C6F3074C5D
:1044300011F80CC047EA0C4701EB136C9CF800C064
:1044400047EA0C6751FA85FCC6F307289CF800C0C0
:1044500011F808804CEA082CC3F3074811F80880CB
:104460004CEA084C01EB146898F800804CEA086CA0
:1044700051FA86F6C3F30723C4F30744CB5C0C5D03
:10448000367801EB156146EA032343EA044300EB67
:1044900009140978606843EA0163A168E568246942
:1044A00080EA0A005C401070030A5370030C93709A
:1044B000000E7940D0701171080A5071080C90718B
:1044C000080E85EA0C05D0711572280A5072280C66
:1044D0009072280ED0721473200A5073200C9073BF
:1044E000200ED073BDE8F08F14EC040814EA040821
:1044F000F0B540B139B1102A07D0182A07D0202AC8
:1045000007D0E820F0BD0220F0BD0A2302E00C2312
:1045100000E00E239508002203600CE001EB82030B
:104520009E781C88DB7866F31F4444EA036400EB42
:104530008203521C5C60AA42F0D301682C468A00B8
:104540004C4B121D1CE000BFB4FBF5F650F82410D4
:1045500005FB1646D6B1062D05D9B4FBF5F605FBCD
:104560001646042E35D000EB84067160671B00EB05
:10457000840100EB87074E687F687E40641C4E60B4
:104580009442E1D30021002A42D870E0C1F307260B
:10459000C1F3074C9F5D00EB8406776013F80CC0F5
:1045A00047EA0C2703EB116C77609CF800C047EAE0
:1045B0000C4753FA81F177600978DFF8BCC047EA0D
:1045C0000161B4FBF5F771605CF827704F407760CC
:1045D000CCE753FA81F6377800EB8406C1F3072C59
:1045E000776013F80CC047EA0C27C1F3074C7760DB
:1045F00013F80CC003EB116147EA0C4777600978A8
:1046000047EA0161B1E7042902D3141FA14205D38F
:1046100000EB81046568C4F8F45025E000EB8104E8
:10462000656853FA85F63778144EC5F3072C56F8AB
:10463000277044F8F47F13F80CC056F82CC087EAB2
:104640003C67C5F3074C44F87C7913F80CC003EBC6
:10465000156556F82CC087EA3C47E7672D7856F871
:10466000255087EA3525E567491C9142CBD30020C8
:10467000F0BD000014EA040814F4040814F004085F
:1046800070B5064604F01EFD014606F55074002084
:1046900000EB400206EB421595F8402305F55075F6
:1046A0009AB12A6923698A1ACB1A9A4200D92C46F0
:1046B000401C0828ECD32146304600F07FF86021EA
:1046C0002046FCF767FA204670BD60212846FCF7BB
:1046D00061FA284670BD2DE9F84307461E4690460C
:1046E0000C461046DDF8209003F02EFF05462146CB
:1046F000384600F037F8040031D02078012802D085
:10470000E020BDE8F883E06D02280CD3E06903F0F7
:1047100011FF04F13C01202204F11C00FCF7A1F977
:10472000E06D401EE0650746284603F021FE04EBDD
:104730004717F86188B1002342461946009503F0F7
:1047400097FE07F12400182249463E62FCF789F9DA
:10475000E06D401CE0650020D3E76420D1E74FF412
:104760008770CEE710B503465FF0000202EB42000F
:1047700003EB401090F8404300F5507014B14468CA
:104780008C4203D0521C082AF0D3002010BD000038
:104790002DE9F041002406464FEA040704EB4400EB
:1047A00006EB401505F550752946304600F006F831
:1047B000641C2F70082CF1D3BDE8F08170B5087827
:1047C0000D4601280BD1002406E000BF05EB441084
:1047D000C06903F0AFFE641CE86DA042F6D800206B
:1047E000E86570BD10B54FF4407100F55070FCF7EE
:1047F000D1F9002010BD2DE9F0410C4606461C2AD7
:1048000025D32088B0F5807F21D1608808281ED16B
:10481000207906281BD16079042818D106F5CA75BD
:104820002879002813D02968D4F80E20914210D19D
:10483000012701280AD0304604F043FB00F184012F
:10484000062204F10800FBF7FDFF10B1AF60BDE8E0
:10485000F0812868A1698842F9D1E08806F00AF859
:10486000012807D00228F2D121463046BDE8F041A8
:1048700000F006B821463046BDE8F04100F062B8CD
:104880002DE9F0470D46D1F80E10804600293ED0A4
:1048900002F069F900283AD1A87BC0F303100E2872
:1048A00035D005F10800062224498146FBF7CAFFEE
:1048B00000282CD0062222494846FBF7C3FF0028D7
:1048C00025D0287AC00722D1A969404602F09FF975
:1048D00000281CD1D5F80E104046FFF743FF040016
:1048E00015D0207802274EF66026012811D0022824
:1048F00018D005280BD1D5F80E006060A868A0601C
:10490000A889A08104F0DEFBC4E904062770BDE895
:10491000F087A868A060A889A0812146404600F0E1
:10492000D9F8EFE7062204F108014846FBF78AFFB1
:104930000028ECD003202070E9E7000004E9040817
:104940000AE904082DE9F0410C468046D1F80E1022
:1049500002F009F900282AD1D4F80E00C0F303119F
:104960000E2924D008F5CA750127297904F1080613
:10497000012911D12968A26991420DD1002758B9A6
:10498000404604F09EFA00F1840106223046FBF70F
:1049900059FF08B10120A860002F08D0D4F80E20DC
:1049A000A16933464046BDE8F04100F0C1B8BDE81A
:1049B000F08100002DE9F04117460D468046FFF7D3
:1049C000D1FE040040F2032616D02078012806D03C
:1049D0000328A0683860A089B88003D00AE0304678
:1049E000BDE8F08104F06EFB206141F28830606127
:1049F000042020700020F3E74046FFF741FE04004A
:104A000011D00020A0616560E0652946074A404654
:104A100000F0DEF804F056FB20614FF47A7060611C
:104A200001202070DBE76520DAE700000AE90408CE
:104A30002DE9F0418AB00F46804604F042FA06465E
:104A400003A91C2001F05CF905003BD0039903F099
:104A5000C0FC0446012005F00DFF20804FF40060EB
:104A600005F008FF6080062020710420607101209D
:104A700005F000FFE08056F8840FA060B088A081A8
:104A80000020C4F80E00104818220168C4F8121063
:104A90008088E082A7610D4904A8FBF7E2FF04A922
:104AA0000398CDE900012B4640F60602084940462E
:104AB00001F084FA0446284603F03CFD20460AB083
:104AC000BDE8F0816420FAE704E9040858E9040825
:104AD0000AE904082DE9FC41074608780D4601283B
:104AE00022D100261DE000BF05EB461454F81C0F30
:104AF00003F02AFD6168421A3846696802F0FBFC3F
:104B000004F108016068CDE900014FF4006205F18D
:104B100008013846236801F051FA206803F00AFDC5
:104B2000761CE86DB042DFD80020E865BDE8FC8166
:104B30002DE9F0478AB01F4690468946824604F028
:104B4000C0F9064603A91C2001F0DAF805003AD0A6
:104B5000039903F03EFC0446012005F08BFE208003
:104B60004FF4006005F086FE60800620207104206E
:104B70006071022005F07EFEE08056F8840FA06090
:104B8000B088A081C4F80E903868C4F81200B888C4
:104B9000E082C4F8188018220C4904A8FBF761FFD2
:104BA00004A90398CDE900012B4640F606023946D8
:104BB000504601F003FA0446284603F0BBFC2046A9
:104BC0000AB0BDE8F0876420FAE7000058E904085D
:104BD0002DE9F7418DB090460F460D9804F071F91C
:104BE000064605AA39460DA802F0B2FA00283ED1C1
:104BF00004A91C2001F084F805003BD0049903F0BF
:104C0000E8FB0446012005F035FE20804FF40060EB
:104C100005F030FE608006202071042060710120C4
:104C200005F028FEE08056F8840FA060B088A081CF
:104C30000598C4F80E00104818220168C4F8121034
:104C40008088E082A7610D4906A8FBF70AFF06A944
:104C50000498CDE900012B4640F6060241460D9826
:104C600001F0ACF90446284603F064FC204610B07D
:104C7000BDE8F0816420FAE704E9040858E9040873
:104C80002DE9F047074604F01DFA002605464EF6CA
:104C90006029B04606EB460007EB401494F8400349
:104CA00004F55074012806D002281DD0042825D010
:104CB000052833D047E0D4E904100844281A42D428
:104CC000A069401CA061032809D2214A38466168C6
:104CD000FFF77EFF4FF47A70C4E9045033E02146B9
:104CE0003846FFF76BFD2CE0D4E904010844281A8C
:104CF00029D404F0E7F9206103200DE0D4E9040190
:104D00000844281A1FD404F1080238466168FFF7E6
:104D10005FFFC4E904590520207014E0D4E90401C0
:104D20000844281A0FD4A069401CA061022808D2A8
:104D300004F1080238466168FFF74AFFC4E90459E4
:104D400001E084F80080761C082EA3D3BDE8F0872C
:104D50000AE9040870472DE9F0419446069A0E4688
:104D600007000AD04EB13468F12C03D33AB123B115
:104D7000FF2A04D9EC20BDE8F0810220FBE7901C5B
:104D80002044B0F5097F02D94FF48570F3E7F13C78
:104D90003D19194605F8F0CFA81C6A70FBF7DAFD3B
:104DA0006878A41C20443A18FF2182F8F010F130F2
:104DB00030600020DFE700002DE9F04117460D4686
:104DC000044604F07FF90646082D0FD804F0A4F934
:104DD0000021304601F068F90246114811A150F84F
:104DE00025301748FBF7DBFB04F07DF90020206439
:104DF000C4E90D6784F82C50E06900280DD01148F3
:104E0000266804F066F9E3692A4631462046984749
:104E1000BDE8F0410B4804F011B9BDE8F081000095
:104E20002C00002025733A204448435020636C69CD
:104E3000656E742025732073746174650D0A00001B
:104E400028890020A00C002070B50446056804F0F5
:104E500039F96169002913D02269216D1144401A82
:104E60000ED4206B00280BD1064804F032F9626999
:104E7000294620469047034804F0E0F801202063CB
:104E800070BD0000A00C002010B5044604F01AF913
:104E9000216D401A4FF47A71B0FBF1F04FF6FF71BB
:104EA000884200D30846BDE8104080B205F0E2BC5D
:104EB0002DE9F0410446C0C806F5C27504F02CF98E
:104EC00044A14548FBF76BFB04F00DF904F024F90D
:104ED00042A14148FBF763FB04F005F904F01CF91B
:104EE0000021606D01F0E0F8024642A13A48FBF76C
:104EF00056FB04F0F8F804F00FF945A13648A26D0E
:104F0000FBF74DFB04F0EFF804F006F946A1324838
:104F1000E26DFBF744FB04F0E6F804F0FDF846A16F
:104F20002D48226EFBF73BFB04F0DDF804F0F4F8AB
:104F300007EB870005EB80040021206901F0E6FC07
:104F4000024641A12448FBF72AFB04F0CCF804F008
:104F5000E3F80021E06901F0D9FC024640A11E48B7
:104F6000FBF71DFB04F0BFF804F0D6F80021206A1F
:104F700001F0CCFC024640A11748FBF710FB04F0FF
:104F8000B2F8002404F0C8F805EB84000021406A60
:104F900001F0BCFC0346621C3EA10F48FBF7FFFA80
:104FA00004F0A1F8641C022CECD304F0B5F83FA186
:104FB0000948D6F88421FBF7F2FA04F094F804F0DB
:104FC000ABF804A10448FBF7EAFABDE8F04104F0AD
:104FD0008AB800000D0A0000288900204448435088
:104FE00020636F6E66696775726174696F6E3A0DE2
:104FF0000A00000020204C656173652053746172C3
:10500000742054696D65203D2025730D0A00000051
:1050100020204C656173652054696D65203D202515
:1050200075730D0A0000000020205431203D20251A
:1050300075730D0A0000000020205432203D202509
:1050400075730D0A0000000020204950763420417D
:10505000646472657373203D2025730D0A0000009F
:1050600020205375626E6574204D61736B203D2066
:1050700025730D0A00000000202044656661756CF0
:10508000742047617465776179203D2025730D0A8E
:10509000000000002020444E532053657276657254
:1050A000202575203D2025730D0A000020204D5439
:1050B00055203D2025750D0A0000000070B5040044
:1050C0001ED02568A06A10B1204600F01DF894F8A3
:1050D0002C00032801D3032000E0002084F82C00DA
:1050E000A06900280CD0074803F0F3FFA3692A6EDB
:1050F000294620469847BDE87040024803F09EBF0D
:1051000070BD0000A00C0020D0E9003202EB82024A
:1051100003EB82020021C2F8941182F89811C2F8C0
:10512000A011C2F8A411C068002806D103EB8002C8
:10513000401CC2F8A8110228F8D370472DE9F04F9F
:1051400093B04FF004098DF84890D0F800B00546B0
:10515000584603F0B6FE82464FF4097705A9384653
:1051600007F008FA060075D0059903F032F90446F5
:105170003946FBF7EDFC0127277067700620A07009
:10518000E86C05F079FB60604FF00008A4F8088037
:10519000A4F80A805046C4F80C8050F8841FE161DE
:1051A000808820842C48C4F8EC00FF2084F8F000AC
:1051B000F120069012AB352206A900972046FFF792
:1051C000CAFD4F4605F14403362206A92046CDF814
:1051D0000090FFF7C0FD05F14803322206A92046E2
:1051E0000097FFF7B8FDD5F820C0BCF1000F04D040
:1051F000042306AA21462846E04706984FF49671F4
:10520000884200D80846059906900144304603F0CC
:10521000D1F94FF0FF30CDE90A70CDE908781822B6
:105220000E490CA8FBF71DFC059843220CA9CDE9FB
:105230000026CDE902010AAB442208A9584607F02E
:1052400051FB0446304603F075F9204613B0BDE823
:10525000F08FFFE76420F9E76382536358E904089D
:105260002DE9F04794B0012605468DF848600068A6
:10527000824603F026FE81464FF4097806A940468F
:1052800007F078F907006AD0069903F0A2F80446FF
:105290004146FBF75DFC267066700620A070E86C46
:1052A00005F0EAFA60602846FFF7EEFD20818020D5
:1052B00060814FF000084846C4F80C8050F8841F05
:1052C000E161808820842748C4F8EC00FF2084F83E
:1052D000F000F1200096059012AB352205A920467A
:1052E000FFF739FDA86838B10023502205A92046F0
:1052F000CDF80080FFF72FFD2E6A26B1012305AA05
:1053000021462846B04705984FF49671884200D848
:105310000846069905900144384603F04BF90420ED
:10532000CDE908080A90401F0B9018220E490CA8DE
:10533000FBF797FB069843220CA9CDE90027CDE99E
:1053400002010AAB442208A9504607F0CBFA0446F2
:10535000384603F0EFF8204614B0BDE8F08764202B
:10536000FAE700006382536358E904082DE9F04F1F
:1053700093B0054603208DF848002F68384603F0A7
:10538000A0FD83464FF4097906A94846D5F8048064
:1053900007F0F0F806003FD0069903F01AF804462B
:1053A0004946FBF7D5FB4FF0010984F8009084F8DB
:1053B00001900620A070E86C05F05EFA6060284657
:1053C000FFF762FD208195F82C004FF0000A0728B6
:1053D00026D0082824D080206081C4F80CA058462C
:1053E00012AB50F8841FE161808820844748C4F8DC
:1053F000EC00FF2084F8F000F1200490352204A98D
:10540000CDF800902046FFF7A6FC95F82C004FF051
:10541000040902280ED01AE0642013B0BDE8F08F12
:1054200008EB880007EB8000A4F80AA0D0F89401EC
:10543000E060D4E705F14403362204A92046CDF804
:105440000090FFF788FC95F82C00022802D0C0B22B
:10545000042808D105F14803322204A92046CDF8DA
:105460000090FFF778FCD5F820C0BCF1000F04D005
:10547000032304AA21462846E04737222046049900
:1054800000F01DFA38B907200090214B372204A9FB
:105490002046FFF760FC04984FF49671884200D8CC
:1054A0000846069904900144304603F083F895F8C5
:1054B0002C00072848461DD0CDE9080A0A904FF075
:1054C000FF300B90182213490CA8FBF7CAFA069874
:1054D00043220CA9CDE90026CDE902010AAB442202
:1054E00008A9384607F0FEF90446304603F022F8D2
:1054F000204692E708EB880107EB81010890D1F87C
:105500009411CDE90910686CDBE7000063825363F6
:105510000CEA040858E9040810B5044603F0D2FD6B
:10552000E16D4A1C14D00B4A914203D24FF47A72B7
:10553000514301E06FF00041626D1144411A07D4FC
:10554000206520460022BDE810400721FFF734BC4B
:1055500010BD00009BC4200070B504460068A16A1D
:10556000002914D0006E002811D04FF4FA610020F9
:1055700003F061F9054603F0A5FD206500202063D6
:105580002A462046BDE870400121FFF715BC70BDDA
:1055900070B504460068A16A002914D0006E002886
:1055A00011D04FF4FA61002003F045F9054603F0ED
:1055B00089FD2065002020632A462046BDE8704012
:1055C0000421FFF7F9BB70BD2DE9F0410446D4E991
:1055D000006703F077FD0546D4E90D010144681A20
:1055E00027D407EB870006EB8000D0F89C1129B187
:1055F0002046FFF7A3FD0022114609E0216C61B1AE
:10560000022180F898112046FFF752FC0022062163
:105610002046BDE8F041FFF7CFBBD0F894113046EB
:10562000FFF706FA4FF47A70C4E90D50206C401C65
:105630002064BDE8F081000070B5044603F042FD2F
:105640000646D4E90D010844301A22D41648A56D47
:10565000854203D24FF47A70454301E06FF0004574
:10566000606D2844301A15D5206C10B903F07AF813
:10567000E0642046FFF77AFE6663606D0B492844BC
:10568000801BA063884201D94008A063206C401CA5
:10569000206470BD2046FFF737FD2046BDE870400E
:1056A00000221146FFF788BB9BC42000C0D4010034
:1056B0002DE9F041044603F005FD0546D4E90D014E
:1056C0000844281A2BD44FF47A76206C7742B8B16C
:1056D00004281FD22046FFF749FEE06BB1014000CD
:1056E000E063884200D9E16331463846656303F0E0
:1056F000A2F8E16B0844A063206C401C20640EE01B
:1057000003F030F8E0642046FFF730FE4FF47A6093
:10571000E063E9E7002211462046FFF74DFB2046F3
:10572000BDE8F041FFF790BB70B5044603F0CAFC3A
:105730000646D4E90D010844301A22D41548256ED6
:10574000854203D24FF47A70454301E06FF0004583
:10575000606D2844301A15D5206C10B903F002F89A
:10576000E0642046FFF702FE6663606D0A49284444
:10577000801BA063884201D94008A063206C401CB4
:10578000206470BD2046BDE8704000220821FFF76C
:1057900013BB00009BC42000C0D401002DE9F041E0
:1057A000044603F08FFC0546D4E90D010844281A8D
:1057B0002BD44FF47A76206C7742B8B104281FD2EC
:1057C0002046FFF7D3FDE06BB1014000E063884263
:1057D00000D9E16331463846656303F02CF8E16B8C
:1057E0000844A063206C401C20640EE002F0BAFF65
:1057F000E0642046FFF7BAFD4FF47A60E063E9E722
:10580000002211462046FFF7D7FA2046BDE8F041B6
:10581000FFF71ABB70B5044603F054FC0546D4E903
:105820000D010844281A18D4206CD8B12046FFF77F
:1058300017FDE06B4FF47A514000E063884200D9D5
:10584000E1634FF47A714842656302F0F4FFE16B63
:105850000844A063206C401C20642046BDE87040D2
:10586000FFF7F2BA02F07EFFE0642046FFF7F8FC93
:105870004FF47A60E063E4E700281FD090F82C1022
:10588000092918D2DFE801F00507090B0D0F1113E4
:105890001500FFF761BEFFF7BDBFFFF77FBFFFF742
:1058A00077BEFFF705BFFFF78FBEFFF735BEFFF7E7
:1058B0003BBFFFF7C1BE002180F82C107047F0B548
:1058C0000646F02916D30023F03911E0F01810F83D
:1058D000F05F65B1FF2D0DD05C1C8C420AD2477879
:1058E0009B1C3B448B4205D8954204D03B195B1C62
:1058F0008B42EBD30020F0BD2DE9F84F1C46DDF8BC
:1059000028800F4605466FF00109B8F1040F36D222
:105910004FF0FF3A31E0AE5C3EB1C02E18D3501CC0
:10592000B84205D30020BDE8F88F207810BBFAE715
:10593000A85CA91820F0C0004A78234642EA002259
:1059400008F10100009039462846FFF7D5FFEAE745
:10595000521C02EB060BBB4511D8A8183246214653
:10596000FAF7C0FF0028DED134445A46207820B12F
:105970002E2801D05046D6E7641CBA42CBD3484605
:10598000D1E710B504000DD0A078012801D0082877
:1059900006D12078012803D1A189606806F00EFEA7
:1059A0000020207010BD30B500221346845C34B155
:1059B0002E2C0FD009B18D186C70521CF6E7501EBA
:1059C0003F280AD219B10A70114400204870981873
:1059D000801C30BD541E3F2C01D3002030BD002957
:1059E00000D00A70134403F1010302D0114401F105
:1059F000010110444FF0000200F10100D6E7000061
:105A000070B50A4E0546002404EB840000EBC40088
:105A100006EBC000017821B14168A94201D1FFF72E
:105A2000B0FF641C082CEFD370BD000070CD0120C6
:105A300010B54FF450710248FBF7ACF8002010BDD0
:105A400070CD01202DE9F84F1D46DDF82880144661
:105A50000F460646B8F1040F3AD24FF0000935E080
:105A6000305DC0B1C0281BD3601CB84230D23119A0
:105A7000305D4A7820F0C00042EA002208F10100BF
:105A800000902B4639463046FFF7DCFF002800D057
:105A9000A01CBDE8F88F0DB185F80090601CF8E7F8
:105AA0003F2817D28246611C01EB0A04BC420FD882
:105AB00065B1314452462846FAF74CFF5544BC4282
:105AC00004D2305D10B12E2005F8010BBC42C7D3C3
:105AD0000020DEE7002DFBD085F80090F8E70000FD
