:020000040800F2
:100000008850012065030008E73300080D3200081E
:10001000E53300088B1700086D540008000000004D
:10002000000000000000000000000000A502000821
:100030000118000800000000010300088D350008C9
:100040007F0300087F0300087F0300087F03000888
:100050007F0300087F0300087F0300087F03000878
:100060007F0300087F0300087F0300087F03000868
:100070007F0300087F0300087F0300087F03000858
:100080007F0300087F0300087F0300087F03000848
:100090007F0300087F0300087F0300087F03000838
:1000A0007F0300087F0300087F0300087F03000828
:1000B000593600087F0300087F0300087F0300080B
:1000C0007F0300087F0300087F0300087F03000808
:1000D0007F0300087F0300087F0300087F030008F8
:1000E0007F0300087F0300087F0300087F030008E8
:1000F0007F0300087F0300087F0300087F030008D8
:100100007F0300087F0300087F0300087F030008C7
:100110007F0300087F030008653600087F0300089E
:100120007F0300087F0300087F0300087F030008A7
:100130007F030008051800087F0300087F030008FC
:100140007F0300087F0300087F030008E9330008ED
:100150007F0300087F0300087F0300087F03000877
:100160007F0300087F0300087F0300087F03000867
:100170007F0300087F0300087F03000800000000E1
:100180007F0300087F03000800F002F800F07BF80E
:100190000AA090E8000C82448344AAF10107DA45E2
:1001A00001D100F070F8AFF2090EBAE80F0013F0B9
:1001B000010F18BFFB1A43F0010318474034020037
:1001C000603402000A444FF0000C10F8013B13F0B9
:1001D000070408BF10F8014B1D1108BF10F8015BA0
:1001E000641E05D010F8016B641E01F8016BF9D193
:1001F00013F0080F1EBF10F8014BAD1C0C1B09D1EA
:100200006D1E58BF01F801CBFAD505E014F8016B5B
:1002100001F8016B6D1EF9D59142D6D370470000ED
:100220000023002400250026103A28BF78C1FBD8FF
:10023000520728BF30C148BF0B607047642900F0E7
:100240001382752900F01082782900F04982732901
:1002500000F0A986002070471FB520F009FE9DE838
:10026000030000F0E1FD00F0BFFD040000200021CC
:1002700020F0E8FD401C606000F0FCFE1FBD10B5E2
:1002800000F061FF10BD01F0D0F81146FFF7E4FF68
:100290000CF096FB01F0E2F903B4FFF7F0FF03BCAA
:1002A00001F02CFA2C4B19680868B0E8F04F80F385
:1002B0000988BFF36F8F4FF0000080F311887047FB
:1002C0000000000008480068006880F308884FF0CC
:1002D000000080F3148862B661B6BFF34F8FBFF39E
:1002E0006F8F00DF00BF00BF08ED00E0DFF80C00FB
:1002F000016841F470010160704700BF88ED00E0C3
:10030000EFF30980BFF36F8F134B1A681EF0100FC5
:1003100008BF20ED108A20E9F04F106009B44FF0BB
:10032000500080F31188BFF34F8FBFF36F8F1CF025
:10033000E3FF4FF0000080F3118809BC19680868DA
:10034000B0E8F04F1EF0100F08BFB0EC108A80F339
:100350000988BFF36F8F704788000020EFF3058096
:10036000704700000948804709480047FEE7FEE75C
:10037000FEE7FEE7FEE7FEE7FEE7FEE7FEE7FEE755
:1003800004480549054A064B7047000049360008F5
:100390008901000888A4002088500120884C012091
:1003A000884C012010B500F01FFD001D10BD00BFDE
:1003B000950A020070B5064600F012FD056806F1C8
:1003C0000B0020F00704B4429CBF002070BD2B46F8
:1003D0006A68BAB11068A04210D304F108018842DB
:1003E0003CBF5068586007D35168101941601168CC
:1003F000091B016058601460101D70BD13465268DF
:10040000002AE7D12146284600F0FAFC0028DED178
:1004100070BD70B50446051F00F0E2FC0068002CBA
:1004200014BF446870BD002C18BFAC423CBF2046CE
:100430006468F8D301680A18AA4218BF456003D15E
:100440002A6805461144016028684119A1421CBF71
:100450006C6070BD6168696021680844286070BD87
:1004600053EA020C00F069802DE9F04B4FF00006D2
:10047000002B1FBFB3FA83F503FA05F424FA05F63F
:100480005E4012BF1643B2FA82F502FA05F4C5F1D6
:1004900020051EBF22FA05FC44EA0C04203556EA6A
:1004A000044C4FEA144418BF641C4FF000084FF08E
:1004B0000009904271EB030C39D3002919BFB1FA3E
:1004C00081F701FA07F6B0FA80F700FA07F6C7F1EC
:1004D00020071EBF20FA07FC46EA0C062037B6FBB1
:1004E000F4FCA7EB0507103F07F01F0BCBF120062C
:1004F0000CFA0BFB2CFA06F644BFB3460026202F5D
:10050000A4BF5E464FF0000B5BEA060C08BF4FF03D
:10051000010B19EB0B09ABFB027C48EB0608C01B77
:1005200006FB02CC0BFB03CC71EB0C01C1E70B46C5
:10053000024641464846BDE8F08B13B54FF0000037
:100540004FF00001AFF30080BDE81C40704710B5CC
:100550000446FFF727FF0068005DC00602D504F1DE
:10056000200010BD204610BD10B50446FFF71AFF4D
:100570000068005D000704D5DF2C02D0A4F1200044
:1005800010BD204610BD0FB4014610B504AA039853
:1005900000F00EFD10BC5DF814FB00000FB41CB59C
:1005A000084B06AA7B4469460090059800F0D1FCF0
:1005B00004460020694600F0DFFC20461CBC5DF8C4
:1005C00014FB0000D109000070B50446856900687D
:1005D000C10601D5302600E02026C00707D070BD37
:1005E000D4E9012130469047206A401C20626D1EEC
:1005F000F6D570BD70B5044685690078C00707D18F
:1006000070BDD4E9012120209047206A401C20625F
:100610006D1EF6D570BD70B50C460546012A05D095
:100620002878800600D5EA69002302E0012305E06E
:100630005B1C934202D2E05C0028F9D1A869E6185D
:10064000C01AA861286A184428622846FFF7BCFF30
:1006500004E0D5E9012114F8010B9047B442F8D326
:100660002846FFF7C7FF70BD2DE9F041064600247C
:1006700010687529314616A510D0AFF30080002808
:1006800002DA404213A507E031688A0701D512A5B6
:1006900002E0490704D511A5012401E0AFF3008071
:1006A00000210A2206F1240709E0B0FBF2FCB0FBAE
:1006B000F2F302FB1C00303078541846491C002825
:1006C000F3D123462A463046BDE8F04100F0E2BBB4
:1006D000000000002D0000002B00000020000000A2
:1006E00070B504460D4621461068AFF3008021889E
:1006F000090502D50F4A7A4402E00E4A7A440E32C6
:10070000002104F1240305E000F00F060009965DC6
:100710005E54491C0028F7D120780023000704D537
:10072000702D02D009B1022311322046BDE870407D
:1007300000F0B0BB552A02002DE9F05F894604465F
:100740004FF0000ADFF824B1FB44C0F820A0204697
:10075000E168884700287DD0252806D0D4E901210A
:100760009047206A401C2062F1E700255F46204642
:10077000E16888472028064607DB312E05D2B819E4
:1007800010F8200C08B10543F1E7A80701D525F0C2
:100790000405C4F81CA00027C4F818A02A2E09D00C
:1007A000304604F074FE38B304EB8708303EC8F8D6
:1007B000186019E059F8041B204604EB8702916188
:1007C000E1688847012F064618D1E069002820DA41
:1007D00025F020051DE0D8F8180000EB800006EB9E
:1007E00040003038C8F818002046E16888470646BF
:1007F00004F04DFE0028EED1012F0AD02E2E08D194
:100800002046E16888477F1C0646022F45F02005F8
:10081000C4DBA069002803DA404245F00105A0616D
:10082000E80701D025F01005A6B1A6F1410019286E
:1008300002D8203645F400654A46314620462560F8
:100840004D46FFF7FBFC60B1012807D0ED1D25F0F8
:10085000070000E007E000F1080978E705F1040966
:1008600075E730467AE7206ABDE8F09F2B2A020040
:100870002DE9F05F93460F4680460446002600F0BF
:10088000B7FAD0F80090824614F8015B2DB1FFF75B
:1008900089FD0068405DC007F6D12B2D02D02D2DBB
:1008A0001AD0641E0021CAF800105A463946204664
:1008B00000F090FB014627B13868A04201D1C7F88B
:1008C0000080DAF80000022809D0CAF8009070050C
:1008D00005D54842BDE8F09F46F48066E2E7084649
:1008E000F8E700F063BC401ECAB210F8011F8A424C
:1008F00002D00029F9D10020704740EA010310B569
:100900009B070FD1042A0DD310C808C9121F9C429F
:10091000F8D020BA19BA884201D9012010BD4FF091
:10092000FF3010BD1AB1D30703D0521C07E00020DE
:1009300010BD10F8013B11F8014B1B1B07D110F83B
:10094000013B11F8014B1B1B01D1921EF1D118463E
:1009500010BD40EA0103024630B59B0710D14FF0AD
:10096000013400E008C208C91D1B9D4315EAC41FDD
:10097000F8D013F0FF0102F8011B0DD01B0AF8E7B5
:1009800011F8013B002B02F8013B05D011F8013BA7
:10099000002B02F8013BF3D130BD2DE9F0410546B3
:1009A00090460E460020044600E0641C44450BD2ED
:1009B000285DFFF7CCFD0746305DFFF7C8FD381A0C
:1009C00002D1295D0029F0D1BDE8F0812DE9F04187
:1009D0000E460546002400E0641C285DFFF7B7FDC5
:1009E0000746305DFFF7B3FD381A02D1295D0029B3
:1009F000F2D1BDE8F08110B5431C02E010F8011BF4
:100A000071B18107FAD14FF0013202C88C1A8C43C0
:100A100014EAC211F9D0C01A0A0603D0C01E10BDD4
:100A2000C01A10BD0A0401D0801E10BD0902FCD0FE
:100A3000401E10BD40EA010370B59B072ED14FF058
:100A40000136042A2AD308C810C99D1B9D43121FD2
:100A500015EAC61517D0D8B2E1B2401A50EA0561BE
:100A600010D198B2A1B2401A50EA05410AD123F040
:100A70007F4024F07F41401A50EA052102D1180E30
:100A8000A0EB146070BDA342DBD018BA21BA884233
:100A900001D9012070BD4FF0FF3070BD0AB90020B0
:100AA00070BD10F8013B11F8014B63B1A3420AD1AC
:100AB000521E08D010F8013B11F8014B1BB1A342A4
:100AC00001D1521EEDD1181B70BD032A40F23080B7
:100AD00010F0030C00F0158011F8013BBCF1020F7F
:100AE000624498BF11F801CB00F8013B38BF11F800
:100AF000013BA2F1040298BF00F801CB38BF00F817
:100B0000013B11F0030300F06780083AC0F0088051
:100B100051F8043B083A51F804CBA0E80810F5E777
:100B2000121D5CBF51F8043B40F8043BAFF300805A
:100B3000D20724BF11F8013B11F801CB48BF11F8CF
:100B4000012B24BF00F8013B00F801CB48BF00F89F
:100B5000012B7047431A28BF9A427FF6B6AF032A8B
:100B60001044114440F2268010F0030F1EBF11F80C
:100B7000013D521E00F8013D10F0030F7FF4F6AF67
:100B800011F0030300F06D80083AC0F00B8051F8BB
:100B9000043D083A51F804CD40F8043D40F804CD36
:100BA000FFF7F3BF121D5CBF51F8043D40F8043D50
:100BB000AFF30080D20724BF11F8013D11F801CD39
:100BC00048BF11F8012C24BF00F8013D00F801CD09
:100BD00048BF00F8012C704710B5203AC0F00B80D8
:100BE000B1E81850203AA0E81850B1E81850A0E831
:100BF0001850BFF4F5AF5FEA027C24BFB1E818508B
:100C0000A0E8185044BF18C918C0BDE810405FEAFA
:100C1000827C24BF51F8043B40F8043B08BF704776
:100C2000D20728BF31F8023B48BF11F8012B28BF7B
:100C300020F8023B48BF00F8012B7047431A28BF39
:100C40009A427FF6C9AF104410F0030F11441EBF43
:100C500011F8013D521E00F8013D10F0030F7FF422
:100C6000F6AF103AC0F00A8010B531E91850103ACA
:100C700020E91850BFF4F9AFBDE81040530724BF76
:100C800031E9081020E9081044BF51F8043D40F84C
:100C9000043D12F0030F08BF7047D20728BF31F898
:100CA000023D48BF11F8012C28BF20F8023D48BF83
:100CB00000F8012C704702F0FF0343EA032242EAE6
:100CC000024200F002B84FF000020429C0F0128086
:100CD00010F0030C00F01B80CCF1040CBCF1020FEF
:100CE00018BF00F8012BA8BF20F8022BA1EB0C01C4
:100CF00000F00DB85FEAC17C24BF00F8012B00F8BA
:100D0000012B48BF00F8012B70474FF0000200B5DF
:100D1000134694469646203922BFA0E80C50A0E81E
:100D20000C50B1F12001BFF4F7AF090728BFA0E8CC
:100D30000C5048BF0CC05DF804EB890028BF40F898
:100D4000042B08BF704748BF20F8022B11F0804FDA
:100D500018BF00F8012B70474FF0013C50F8042BEE
:100D600051F8043B9A4221D1A2EB0C03934313EABE
:100D7000CC1317D150F8042B51F8043B9A4215D1EB
:100D8000A2EB0C03934313EACC130BD150F8042BC2
:100D900051F8043B9A4209D1A2EB0C03934313EAA6
:100DA000CC13DBD04FF00000704700BFD01A01BA5F
:100DB000B1FA81F101F0180122FA01F0CB40C1F142
:100DC0002001DBB2C0B2C01A2CFA01F3D11A914350
:100DD00011EAC311E6D170477047704770470000B1
:100DE0000048704730A400200048704748A4002005
:100DF0000048704728A4002070477047704770472C
:100E000038B504460A4600206946AFF30080002842
:100E100008BF38BD02460099204600F0EDF90120D8
:100E200038BD012000F0DBBAF8B5AFF3008005460D
:100E300000200C46102000BF0646A819A0420DD97C
:100E4000324669460020AFF30080070008BF00F07B
:100E5000C6FA0098A04218BF0546C419FFF7C0FFA4
:100E600005600746F01D20F007004619284600F0EF
:100E70000AF8B44208BFF8BDA21B31463868BDE885
:100E8000F84000F0B9B900210160C0E901107047D5
:100E9000102070472DE9F0470D46994692460446CA
:100EA00000F124080168880604D5E06921F01001EA
:100EB000216000E00120A84201DD471B00E000277F
:100EC000A1697A1902EB0900081AA0612078C0060E
:100ED00002D42046FFF778FB002608E0D4E9012180
:100EE0001AF806009047206A401C761C20624E4586
:100EF000F4DB2078C0060AD52046FFF765FB06E044
:100F0000D4E9012130209047206A401C2062381E1D
:100F1000A7F10107F4DC07E0D4E9012118F8050086
:100F20009047206A401C2062281EA5F10105F3DCD1
:100F30002046FFF75FFB2078000602D50220BDE8BF
:100F4000F0870120FBE7000001694A1C0261087874
:100F5000704700B58FB0CDE90131002105910549F9
:100F60007944CDE9031011466846FFF7E5FB0FB061
:100F700000BD0000E5FFFFFF0A6802F8010B0A60F0
:100F8000704710B5436913B1AFF3008001E0FFF77C
:100F900042FB012010BD127800F124010A700022EA
:100FA0004A700122EDE711684FF0FF32E9E70000D7
:100FB000074B70B50D467B44FFF7CBFF0446284630
:100FC00000F042F910B14FF0FF3070BD204670BD07
:100FD000979700002DE9F05F824615468B46002763
:100FE0000AF10104B9460078302801D09DB113E020
:100FF00014F8010B0127782803D0582801D045B1F7
:101000000AE00DB1102D07D1002714F8010B1025AF
:1010100002E0082500E00A250026B0460EE005FBA8
:10102000080005FB06F101271FFA80F801EB1046C6
:10103000B6F5803F00D3B94614F8010B294600F0FD
:10104000F5F80028EBDABBF1000F05D00FB1641EF4
:1010500000E05446CBF80040B9F1000F06D0FFF78E
:10106000C7FE02210160C81EBDE8F09F48EA0640A5
:10107000FAE7000010B542485421FFF746FE414808
:101080005421FFF742FE40485421FFF73EFE3F49FE
:101090003B483C4A3F4B08603D490A603A49196069
:1010A000531C0365481C1065012008653B48344A01
:1010B00039A1784400F0F0F820B9384878440A386B
:1010C00000F086F937482F4A35A1784400F0E4F85B
:1010D00020B9344878440A3800F07AF932482A4A6C
:1010E0002FA1784400F0D8F820B92F4878440A3866
:1010F00000F06EF940232248DC000021224600F077
:10110000A7F820B125487844543800F061F91D480B
:1011100022464023002100F09BF820B1214878446A
:10112000543800F055F9184822461023002100F0E9
:101130008FF8002806D01C487844BDE81040563887
:1011400000F046B910BD104870B5006D20F00104E4
:101150000B4800F017F90B4800F014F90A4800F0AA
:1011600011F909E0206D20F00105204600F00AF990
:101170002046FFF74EF92C46002CF3D170BD00003D
:101180002CA3002080A30020D4A30020DC01002099
:10119000E0010020E4010020720000008220020033
:1011A0007700000071200200612002002DE9F0416B
:1011B00015460E46040002D12C6804B90BA4204643
:1011C00000F024F90444207870B1274631463846AF
:1011D00000F00CF90444207810B1002004F8010B51
:1011E00038462C60BDE8F0810027F9E700000000D8
:1011F0000048704728A40020034640688C46002819
:1012000018BF88423CBF03464068F8D318681844AA
:10121000884207D00CF1030020F00700001D411A9E
:10122000521A0146081D0A60FFF7F3B83A2800D2A7
:10123000303820F02002412A01D3A2F13700884241
:1012400001D34FF0FF307047007B00F08000704703
:1012500070B5C468A50713D0650211D4B2F5807FBC
:1012600009D0B2F5007F06D0B2F5806F08D1012316
:1012700000F1240106E05D1E6FF07F46B54201D308
:10128000012070BD0161C361416024F470611143AC
:10129000C160002070BD00002DE9F0410C460746FA
:1012A0001646104600F06EF82078611C61280AD0BE
:1012B000722802D077283CD102E00125002405E005
:1012C0000225042402E0082448F2020511F8010B6B
:1012D0002B2806D0622809D011F8010C74280AD0F6
:1012E0000BE045F0030544F00204EFE745F0040588
:1012F00044F00104EAE744F010043846214604F0C3
:10130000EBF8411C15D00021316171604FF4007180
:10131000F560F1617061200704D53046022200219A
:1013200000F0A8F8306D40F0010030653046BDE8AF
:10133000F0810020FBE72DE9F0410D460646104CF8
:10134000206DC10704D0410804D020F00104F7E764
:1013500022460EE05420FFF72DF807000ED0206D36
:1013600047F001010843542120653846FFF7CDFCC2
:101370003A4629463046BDE8F0418DE70020D6E7E1
:101380002CA300202DE9F04704464FF000094FF050
:10139000FF37C568D4E90486A80707D0204600F0C7
:1013A00019F9304604F07AF8002802DA3846BDE828
:1013B000F087280502D54046FFF72BF84C21204640
:1013C000FFF7A3FC206D20F0010020654846EEE702
:1013D00010B500F051F9BDE8104000F048B910B563
:1013E00000F064F9BDE8104000F041B930B50346A3
:1013F0001D781DB10A4603E0AC4201D1181A30BD78
:1014000012F8014B002CF7D15B1CF1E730B5034615
:101410001D783DB10A4612F8014B1CB1AC42FAD11D
:101420005B1CF5E7181A30BD70477546FFF7E0FE04
:10143000AE4605006946534620F00700854618B0C1
:1014400020B5FEF79DFFBDE820404FF000064FF0AD
:1014500000074FF000084FF0000B21F00701AC46E9
:10146000ACE8C009ACE8C009ACE8C009ACE8C00908
:101470008D4670472DE9F041044616460D464769F2
:10148000007B80072ED0384604F01AF850BB3EB3DC
:10149000012E02D0022E25D104E0204600F034F9BE
:1014A00005441DE0384604F005F8E168002841F0E5
:1014B0001001E16005DA204600F058F80120BDE88F
:1014C000F081C9030BD56268E16A914200D81146E8
:1014D000A26911442269891A814200DD0846054447
:1014E000002D01DA0220EAE7E16A6068E2688142E1
:1014F00006D29103E06203D522F4003141F01002DC
:10150000A6690027AE4213DCE16A814201D90B468D
:1015100000E0034603EB060C2369ACEB030CAC457F
:1015200006DD814201D98C4600E084469C4505D108
:10153000A760276042F02000A5620DE0AD1BE669C0
:10154000AE1B8142A66000D90846C01A281A206046
:101550005819606022F0200003490840E060002034
:1015600084F84870ABE70000BFCFD7FFC16821F413
:10157000001141F08001C16000218160016070476D
:101580002DE9F047814614460E464FF0FF383248A9
:10159000D5685769054209D03846A16903F0CAFFEA
:1015A000002811DB2C48C0430540E5602B4632463D
:1015B0004946384603F0C1FFA16920F00042B21A43
:1015C00011440028A16103D02046FFF7CFFF404619
:1015D000BDE8F08770B504460569C06A6168884255
:1015E00000D80846E16821F42011E160C90312D552
:1015F000A84208D02246411B2846FFF7C1FF10B180
:101600004FF0FF3070BD0020E562C4E90150E06892
:1016100020F48030E060002070BD10B50446C06842
:1016200020F02000E060A16AA06988420DD0204629
:10163000FFF7D0FFE06820F4405040F01000E06079
:10164000A06AA0612069E062606044F24001E06845
:101650008843E06010BD00001000020010B5044691
:10166000AFF300802046BDE81040FEF715BE00280D
:1016700001D000F043B8704710B5014602A000F059
:1016800064F8012010BD00005349475254524544AC
:101690003A2052656469726563743A2063616E270B
:1016A00074206F70656E3A200000000010B50128AC
:1016B00005D0002103A000F048F8012010BD09A1C9
:1016C000F8E7000053494752544D454D3A204F75B5
:1016D00074206F662068656170206D656D6F72792A
:1016E000000000003A2048656170206D656D6F72E2
:1016F0007920636F727275707465640001491820F7
:10170000ABBEFEE72600020010B50146C268900796
:1017100003D0900607D5886A0AE0FFF769FB01212C
:101720000160881E10BD8B69486818440B69C01A97
:1017300091F848301BB191F84910401A10BD1103BF
:10174000FCD50028FADD401E10BD70B505460C46DC
:101750000A2000E06D1C00F011F835B1287800284F
:10176000F8D102E0641C00F009F814B120780028D8
:10177000F8D1BDE870400A20AFF3008008B5694693
:101780008DF800000320ABBE08BDFEE700207047C7
:101790000020704710B500220449054802F068FA9D
:1017A0000449034802F057FA002010BDFC12002043
:1017B00020060020FC0A002010B50146034802F074
:1017C0004AFA024802F020FA002010BD200600204C
:1017D00000207047094A10B5D2F8BC22D2F8142272
:1017E0000AB1012010BD0A460146044802F040FA41
:1017F000BDE81040014802F0B5BA00002006002004
:10180000704700002DE9F041154D00246F69154E19
:10181000F8074FF001080AD0C5F814807068006816
:10182000002804DB306854300EF053F90446780683
:1018300008D54020686131680B48C1F858800EF027
:1018400048F904434FF480306861002C06D0074902
:1018500000030860BFF34F8FBFF36F8FBDE8F081C7
:1018600000900240780100209C23002004ED00E05D
:1018700072B6FEE770B5044600F00CF90546601C30
:1018800002D004480078044400F004F9401BA04250
:10189000FAD370BD780000202DE9F84FDFF8BCA125
:1018A0000022012503264FF00F090AF1040BAAF1CB
:1018B000040E00BF0B6805FA02F42340A34270D166
:1018C0000F7907F00307012F01D0022F16D1876887
:1018D0004FEA420806FA08FC27EA0C07D1F80CC0C8
:1018E0000CFA08FC4CEA070CC0F808C04768A7438C
:1018F0000C79C4F3001494403C4344600C79E443F5
:10190000A4070AD0C4684FEA420C06FA0CF7BC439D
:101910008F6807FA0CF72743C7600C7904F00304BB
:10192000022C12D1D40800EB840CDCF820405707BD
:10193000FF0E09FA07F824EA0804D1F8108008FA23
:1019400007F848EA0408CCF8208004684FEA420C03
:1019500006FA0CF7BC430F7907F0030707FA0CF7F8
:10196000274307604C6814F4403F70D03C4C276814
:1019700047F480472760246822F0030704F480447A
:101980000094384C07EB040CDCF8084897074FEA42
:10199000177809FA08F7BC43334FB84202D1002741
:1019A00024E054E0314FB84201D101271EE0304F0E
:1019B000B84201D1022719E02E4FB84201D10327C6
:1019C00014E02D4FB84201D104270FE02B4FB8424D
:1019D00001D105270AE02A4FB84201D1062705E0C8
:1019E000284FB84201D1072700E0082707FA08F777
:1019F0002743CCF80878DAF800405746D1F804C0FD
:101A00009C435FEACC2C00D51C433C60DBF80040D3
:101A10005F46D1F804C09C435FEA8C2C00D51C4380
:101A20003C60DEF800407746D1F804C09C435FEA92
:101A30008C3C00D51C433C60084F083F3C68D1F803
:101A400004C09C435FEACC3C00D51C433C60521C64
:101A5000102AFFF42FAFBDE8F88F0000083C0140CA
:101A600044380240003001400000024000040240BF
:101A700000080240000C0240001002400014024026
:101A800000180240001C02400AB18161704709043D
:101A9000FBE70000014880687047000078000020E4
:101AA0000248816802781144816070477800002004
:101AB0000B4810B5016841F400710160016841F400
:101AC00080610160016841F480710160032000F0D1
:101AD0008DF80F2000F006F800F03EF8002010BD51
:101AE000003C024010B5014688B00022362000F0CC
:101AF0005DF8362000F04CF813480024016841F0EE
:101B000010010160006805A900F010000690684609
:101B100000F052FE00F076FE0C494000B0FBF1F1FF
:101B20000C480B4A491E026040F2E732C0E9032428
:101B3000C0E9011401F04AF910B1012008B010BD4C
:101B4000044801F08DF9F9E74038024040420F00A7
:101B500000100040D80500200C4882B0016841F414
:101B600080410160006800F4804000900748001F39
:101B7000016841F0805101600068002200F080504F
:101B800000900F21901E02B000F010B844380240BF
:101B9000002809DB00F01F0201219140400980006C
:101BA00000F1E020C0F8001170470000F0B40E4BC7
:101BB0001B680C46C3F30223C3F10705042D00D9AB
:101BC0000425191D072901D2002300E0DB1E012690
:101BD00006FA05F1491E214099409E40761E1640A6
:101BE0003143F0BC03F043BC0CED00E0064900F0CB
:101BF000070208684FF6FF03184040EA0220034A34
:101C000010430860704700000CED00E00000FA058A
:101C100070470068416200207047F0B50368586A59
:101C200039B19C6A4FF4827600EB144400204D1EBB
:101C30000AE040EA024098620FE006EB8007DF59B5
:101C4000401C04EB1744C0B2A842F6D344EA024059
:101C50004FF4807202EB810158500020F0BDD0F8A3
:101C6000080502F005BB01EBC10200EB8202D0F8CF
:101C70000805D26C02F05ABA01EBC10200EB8202F5
:101C8000D0F80805D2F88C2202F0ABBAD0F80805DB
:101C900002F0F0BA0A0601F00F0101EBC10100EBFE
:101CA000810101D53C3101E001F51F71006803F0AD
:101CB00025BA70B504460B0601F00F0000EBC00119
:101CC00004EB81014FF001024FF0000503D581F8CC
:101CD0003D203C3103E081F87D5201F51F71087011
:101CE00094F8BC04012808D084F8BC24206802F0D1
:101CF000BFFE84F8BC54002070BD022070BD70B5DA
:101D0000044601F00F006268904201D9012070BDC5
:101D10000B0601F00F0101EBC10104EB81014FF053
:101D200001024FF0000503D581F83D203C3103E06E
:101D300081F87D5201F51F718D70087094F8BC0414
:101D4000012808D084F8BC24206803F08DF884F8BA
:101D5000BC54002070BD022070BD01F00F0101EBEA
:101D6000C10100EB8100D0F89C0270472DE9F041E1
:101D700004460F0601F00F0000EBC00104EB8101E7
:101D80004FF001064FF0000503D581F83D603C316E
:101D900003E081F87D5201F51F710870CA600B7174
:101DA0004A7802B10881022B00D14D7194F8BC042D
:101DB000012809D084F8BC64206802F0B1FD2846EF
:101DC00084F8BC54BDE8F0810220FBE770B50C46F6
:101DD00001F00F0505EBC50100EB8101C1F894325C
:101DE000C1F88C220023C1F89C3281F87D3281F841
:101DF0007C52036901F51F71012B00D14A61220752
:101E0000027C006803D003F087F8002070BD02F068
:101E100071FFFAE770B504460D4601F00F006168E6
:101E2000884201D9012070BD29064FF000064FF00D
:101E3000010207D500EBC00104EB810181F83D20D0
:101E40003C3107E005EBC50104EB810181F87D62BF
:101E500001F51F718A70087094F8BC04012807D03E
:101E600084F8BC24206803F02BF8280702D007E090
:101E7000022070BD217C04F2C442206802F0C8FF39
:101E800084F8BC64002070BD70B50C4601F00F05ED
:101E900005EBC50100EB81014B65CA640023CB65EE
:101EA000012381F83D3001F83C5F0369012B00D12B
:101EB0004A612207027C006803D003F02DF800205D
:101EC00070BD02F017FFFAE72DE9FC5F05680446D4
:101ED000284603F0B4F900287DD1206803F0DBF92F
:101EE000002878D0D5F80808C0F30D20C4F8FC0409
:101EF000206803F0D0F9800704D52068416901F01B
:101F000002014161206803F0C6F9C10604F2C44031
:101F1000009034D52068816921F0100181612F6A19
:101F200007F00F0000EBC00004EB8006C7F343404E
:101F300006F51F76022802D0062811D01AE047F6CF
:101F4000F070074216D0C7F30A12174628463169C7
:101F500003F0A5F9306938443061306A384408E04C
:101F600008222846009903F09AF9306AC7F30A114B
:101F7000084430622068816941F010018161206865
:101F800003F089F900034FF0080B4FF0000A4FF0FF
:101F900001097CD50026206803F05CF9074674E04F
:101FA000F80770D0F1B2206803F06DF98046C007E1
:101FB00007D005EB4611C1F8089B3146204601F0D9
:101FC00019FA5FEA087024D505EB4611C1F808BB81
:101FD0002068016C00E025E200EB46100191D0F88A
:101FE000082BFC4B994205D9110403D54FF400414D
:101FF000C0F8081B204600F005FBF649019888420E
:1020000007D92069012804D120680121009A02F033
:10201000FFFE5FEAC86004D505EB46111020C1F849
:10202000080B5FEA88701DD56869000605D5D5F8EC
:10203000040840F48061C5F8041806EBC60004EB00
:10204000800090F87F1200F51F70012905D180F8FB
:1020500003A0F1B2204600F0EBF905EB4611022097
:10206000C1F8080B5FEA886004D505EB4610202113
:10207000C0F8081B5FEA884005D505EB46104FF411
:102080000051C0F8081B7F08761C002F88D12068FB
:1020900003F001F940036FD5206803F0D4F8074638
:1020A000002667E0F80763D0F1B2206803F0D9F8A2
:1020B0008046C00723D006F00F0209FA02F0D5F8D7
:1020C00034288243C5F8342805EB4610C0F8089937
:1020D000206901280FD106EBC60004EB8000D0E98F
:1020E00012211144C16436B9606D20B92068012104
:1020F000009A02F08DFEF1B22046FFF7B4FD5FEAD0
:10210000087003D505EB4611C1F808B95FEAC8604D
:1021100004D505EB46111020C1F808095FEA4860B4
:1021200004D505EB46104021C0F808195FEA887015
:1021300017D53146284603F055F806EBC60004EBE8
:10214000800090F83F103C30012905D180F803A0B1
:10215000F1B2204600F068F905EB46110220C1F803
:1021600008095FEA086003D53146204601F0A8F966
:102170007F08761C002F95D1206803F08CF800288A
:1021800011DAD5F8040820F00101C5F8041894F814
:10219000F40401282BD0204600F018FA2068416989
:1021A00001F000414161206803F075F800050BD58E
:1021B000D5F80808C00702D0204600F04BFA206886
:1021C000416901F400614161206803F064F8C004D2
:1021D00066D5D5F8040820F00100C5F804081021E0
:1021E000206802F0FFFF00214FF67F321FE084F8E5
:1021F000F4A400212046FFF70BFDCFE705EB4110CB
:10220000C0F80829D0F8003923F40013C0F80039C9
:10221000C0F8082BD0F8003B23F40013C0F8003BB3
:10222000D0F8003B43F00063C0F8003B491C6068F5
:102230008842E3D8D5F81C0840F00111C5F81C18F5
:10224000206B002828460DD0D0F8840840F00B0100
:10225000C5F88418D5F8440840F00B012846C5F8A5
:1022600044180DE0D0F8140842F22B010843C5F8D9
:102270001408D5F8100840F00B012846C5F81018CE
:10228000D0F8000820F4FE61C5F80018217C206811
:10229000009A02F0BDFD2068416901F4805141615E
:1022A000206802F0F8FF800415D5206802F078FB62
:1022B000206802F0B7FFE06000F09EFA0146227B42
:1022C000206803F04BF8204600F06AF92068416965
:1022D00001F400514161206802F0DDFF000707D5DD
:1022E000204600F077F92068416901F0080141615A
:1022F000206802F0D0FF000616D5A86920F0800003
:10230000A86101260DE000BF06EBC60004EB8000CB
:1023100090F87F02012803D1F1B22046FFF7BAFC02
:10232000761C6068B042EFD8206802F0B4FFC002AB
:1023300021D501264F4616E005EB4610D0F80019CE
:1023400006EBC60004EB800090F84020012A09D17A
:10235000002907DA80F83F70F0B240F08001204693
:10236000FFF798FC761C6068B042E5D820684169A8
:1023700001F480114161206802F08DFF800234D5A4
:1023800001204B4629E000BF05EB4011D1F8001BAE
:1023900000EBC00204EB820696F88022012A1BD1D2
:1023A000002919DA94F8FC2401F4803102F00102CA
:1023B000914211D186F87F32A96941F08002AA6169
:1023C0006969090608D4D5F8040840F40070C5F816
:1023D000040805E00A30544F401C61688142D3D89C
:1023E0002068416901F400114161206802F053FF47
:1023F000400007D52046FFF732FC2068416901F014
:1024000080414161206802F046FF40070AD52068FC
:102410004568680702D52046FFF738FC2068416808
:1024200029434160BDE8FC9FD0F8080501F076BF64
:10243000D0F8080501F086BF2DE9F0418AB004000C
:1024400005D094F8BD042668002520B108E00120DD
:102450000AB0BDE8F08184F8BC54204600F05EF874
:10246000032084F8BD04F06BC00500D4256120680A
:1024700002F03AFC04F11001282288466846FEF773
:10248000ABFB94E80F0002F099FA0226C8BB0021CA
:10249000206802F023FF002001270EE000EBC001BE
:1024A00004EB810181F83D7001F83C0F08810D714A
:1024B000CD600D61401CC0B28D6161688142EDD874
:1024C000002011E000EBC00104EB810181F87D5296
:1024D00081F87C0281F88052C1F88852C1F88C5290
:1024E000401CC0B2C1F8945261688142EAD82822E7
:1024F00041466846FEF770FB94E80F0002F03AFB95
:1025000010B184F8BD64A2E784F8385084F8BD7433
:10251000206802F021FB00209AE7000010B586B089
:10252000044614216846FEF7F0FB2068B0F1A04F86
:102530002FD119480021026842F0010202600068B0
:1025400000F0010005904FF4C05000900220CDE94A
:102550000101032003900A20049069460F48FFF709
:102560009BF90D48001D016841F0800101600A4897
:102570001430016841F4804101600068002200F4D9
:102580008040059005214320FFF710FB4320FFF713
:10259000FFFA06B010BD00003038024000000240D3
:1025A00070B50446C068012570B1022801D0FFF75C
:1025B0005FF92946D4F8080501F032FFD4F8080580
:1025C000BDE8704001F0E7BE0025F2E7D0F808054D
:1025D00001F00FBFD0F8080501F015BF10B5044693
:1025E00090F8BC0401280BD0012084F8BC0484F8C6
:1025F0003810206802F0A0FE002084F8BC0410BD52
:10260000022010BDD0F8082500F2C441104601F0A8
:1026100013BF10B50446006894F8BC14012906D015
:10262000012184F8BC14A16A012902D008E002202B
:1026300010BDA169012903D0816B41F48031816310
:10264000206802F0AAFD206802F078FA002084F8E1
:10265000BC0410BD10B50446D0F8080501F02EFFEB
:102660002068D0F8001E41F00101C0F8001E206A69
:10267000002804D00248016841F00601016010BD45
:1026800010ED00E02DE9F0470E46050065D0DFF8BB
:102690001481D8F80000F7B200F00700B04207D26A
:1026A00088F80070D8F8000000F00700B04254D15C
:1026B00028683D4C810712D5400703D5206840F4B7
:1026C000E05020602878000703D5206840F460407F
:1026D00020602068A96820F0F00008432060287876
:1026E000C0072DD0304968680839012812D0022867
:1026F00013D0032811D00968890700292DDA216831
:1027000021F0030101432160FFF7C4F9814641F242
:10271000883A0EE009688903EFE709688901ECE768
:10272000FFF7B8F9A0EB0901514502D90320BDE834
:10273000F0872068696800F00C00B0EB810FEFD1E2
:10274000D8F80010404601F00701B14207D90770E0
:10275000006800F00700B04201D00120E7E72878C8
:10276000400705D52068E96820F4E0500843206060
:102770002878000706D52068296920F4604040EADF
:10278000C100206000F05EF82168084AC1F303111F
:10279000515CC8400649086006480068FFF7A2F986
:1027A0000020C4E7003C024008380240B80E02088E
:1027B000840000207C0000200F2202600C4A136875
:1027C00003F003034360136803F0F00383601368AE
:1027D00003F4E053C36012684FF4E05303EAD202FB
:1027E00002610448006800F00700086070470000BC
:1027F00008380240003C0240014800687047000071
:10280000840000200448054900680968044AC1F3AF
:102810008221515CC8407047840000200838024083
:10282000C80E02080448054900680968044AC1F353
:102830004231515CC8407047840000200838024093
:10284000C80E0208154810B5006810F00C021448B4
:1028500013D01449042A0FD0082A0ED10F4C241F7C
:102860002268236802F03F025B0207D52068C0F3AC
:102870008810A0FB010106E0084610BD2168C1F3E5
:102880008811A1FB00010023FDF7EAFD2168C1F3D7
:102890000141491C4900B0FBF1F010BD083802406D
:1028A0000024F40040787D012DE9F84F04006ED03B
:1028B0002078DFF84C93C007A9F104054AD009F14C
:1028C00004000168C1F38101012908D00068C0F348
:1028D000810002280AD1D9F80000400206D52868F4
:1028E000800337D560680028E1D033E06068B0F538
:1028F000803F10D0B0F5A02F286810D020F4803091
:102900002860286820F4802028606068A8B1FFF75C
:10291000C1F806460DE0286840F48030F4E740F442
:1029200080202860F7E700BFFFF7B4F8801B642819
:1029300073D828688003F7D50CE0FFF7ABF806469C
:1029400005E000BFFFF7A6F8801B6428F0D82868D0
:102950008003F7D42078DFF8AC8280074FF0000ABC
:102960003ED5A748001D016811F00C0F08D0006883
:10297000C0F3810002280BD1D9F80000400207D42F
:102980002868800716D5E068012800D112E033E1FD
:10299000E068B8B10120C8F80000FFF77BF80646F0
:1029A00005E000BFFFF776F8801B0228C0D8286832
:1029B0008007F7D52868216920F0F80040EAC100B7
:1029C00028600DE0C8F800A0FFF764F8064604E0B0
:1029D000FFF760F8801B02281FD828688007F7D40B
:1029E0002078000722D5864F87486169703771B11A
:1029F00001210160FFF74EF8064604E0FFF74AF8B0
:102A0000801B022809D838688007F7D50EE0C0F887
:102A100000A0FFF73FF8064605E082E0FFF73AF82E
:102A2000801B02287DD838688007F7D420784007BB
:102A300068D5DFF8CCB100270BF13C0BDBF80000C8
:102A4000C0000BD4DBF8001041F08051CBF800102F
:102A5000DBF80000012700F0805000906B4E3068DA
:102A6000C00510D4306840F480703060FFF712F871
:102A7000009005E0FFF70EF80099401A022850D8A0
:102A80003068C005F6D55E4EA0686C3601280FD0C0
:102A90000528306810D020F001003060306820F048
:102AA00004003060A068B8B1FEF7F4FF00900FE0BA
:102AB000306840F00100F4E740F004003060F7E7D0
:102AC000FEF7E8FF0099411A41F28830814266D84A
:102AD00030688007F4D50EE0FEF7DCFF009007E0D9
:102AE000FEF7D8FF0099411A41F28830814256D84A
:102AF00030688007F4D42FB1DBF8001021F080514A
:102B0000CBF80010A069C8B33D49091D0968C1F39D
:102B1000810102294AD00228504607D0C8F8600037
:102B200000E03CE0FEF7B6FF04463BE04746C8F84D
:102B30006000FEF7AFFF064605E000BFFEF7AAFF04
:102B4000801B02282BD828688001F7D4D4E907011C
:102B50000843A16A2E4A490802EB0141626A41EA30
:102B60008211084394F82C1040EA0161C9F8001062
:102B700001203866FEF78EFF044606E03EE000BF07
:102B8000FEF788FF001B022809D828688001F7D5C6
:102B900034E000BFFEF77EFF001B022802D90320AD
:102BA000BDE8F88F28688001F4D427E00128F7D029
:102BB000D9F80000E26900F4800191421CD1226A38
:102BC00000F03F01914217D147F6C071626A01409F
:102BD000B1EB821F10D1A26A4FF0FF3300F44031F5
:102BE00003EB5202B1EB024F06D194F82C1000F027
:102BF0007060B0EB016F01D00120D1E70020CFE77A
:102C00000438024000004742800E474200700040F6
:102C10000000FFFF10B5040011D02068016821F00A
:102C20000C0101602068416821F06001416020468C
:102C300000F060F800206071A060207110BD0120DC
:102C400010BD00002DE9F0470446007900278A46B0
:102C500001280ED00125257160794FF00009012867
:102C600009D00420A060012784F804903846BDE80C
:102C7000F0870220FBE74FF0020884F80580FEF79A
:102C800009FF064611E000BFFEF704FF801B022883
:102C90000BD920684068C043C00706D06571C4F8EE
:102CA000088084F804900120E1E720684068C04370
:102CB000C007E9D120688068E060CAF8000065714B
:102CC000D2E770B5040003D06079002510B105E0AB
:102CD000012070BD2571204600F01AF802206071B5
:102CE0002068016841F00401016001206071A56065
:102CF000002070BD00680449884204D1034801687F
:102D000021F040010160704700080650343802404D
:102D100008B500680649884208D10648016841F0B4
:102D200040010160006800F04000009008BD000014
:102D300000080650343802407047704770B590F86C
:102D40003C20012A32D0012480F83C40022280F845
:102D50003D2003685A689D6822F070060A68324375
:102D60005A60134B02689A4214D0B2F1804F11D0CE
:102D7000104B9A420ED0104B9A420BD00F4B9A42F6
:102D800008D00F4B9A4205D00E4B9A4202D00E4B00
:102D90009A4204D1496825F080031943916080F874
:102DA0003D40002180F83C10084670BD022070BDF7
:102DB000000001400004004000080040000C0040FA
:102DC00000040140004001400018004010B504001C
:102DD00003D094F83D0010B107E0012010BD0020A1
:102DE00084F83C00204600F01FF8022084F83D00E3
:102DF000211D206800F03CFC012084F8460084F886
:102E00003E0084F83F0084F8400084F8410084F8D4
:102E1000420084F8430084F8440084F8450084F8B4
:102E20003D00002010BD000008B50068B0F1804FE3
:102E300012D10A48016841F00101016000680022D6
:102E400000F00100009005211C20FEF7AFFEBDE858
:102E500008401C20FEF79CBE08BD00004038024020
:102E600090F83D10012901D001207047022180F81F
:102E70003D100168CA6842F00102CA600068114949
:102E8000884214D0B0F1804F11D00F4988420ED043
:102E90000E4988420BD00E49884208D00D4988421D
:102EA00005D00D49884202D00C49884204D181687E
:102EB00001F00701062903D0016841F0010101601A
:102EC000002070470000014000040040000800405E
:102ED000000C004000040140004001400018004088
:102EE00070B5044690F83C000025012817D0012653
:102EF00084F83C60022084F83D002068826822F05B
:102F0000770222F47F4282600868502838D00DDCB6
:102F100020284FD005DC90B3102811D14AE00220C0
:102F200070BD302846D040280AD13BE060282FD021
:102F300070280DD0B0F5805F03D0B0F5005F12D0DF
:102F4000012584F83D60002084F83C00284670BDCF
:102F5000CB68D1E90121206800F0EEFB2068816890
:102F600041F0770109E0CB68D1E90121206800F048
:102F7000E3FB2068816841F480418160E1E719E06A
:102F8000CA684968206800F0E9FB5021206806E023
:102F9000CA684968206800F0F2FB6021206800F0F0
:102FA000D5FBCEE7CA684968206800F0D7FB40210E
:102FB0002068F4E7226801461046F0E7704770B5D4
:102FC0000446006801694FF00005C943890715D41C
:102FD000C168C943890711D4E91E01610120207726
:102FE000206880698007204602D0FFF7E7FF04E0F1
:102FF00000F098F8204600F096F8257720680169DF
:10300000C943490717D4C168C943490713D46FF0AE
:1030100004010161022020772068806910F4407F5C
:10302000204602D0FFF7CAFF04E000F07BF82046FC
:1030300000F079F8257720680169C943090716D49B
:10304000C168C943090712D46FF008010161042067
:1030500020772068C0698007204602D0FFF7AEFFC6
:1030600004E000F05FF8204600F05DF82577206866
:103070000169C943C90617D4C168C943C90613D435
:103080006FF010010161082020772068C06910F4FA
:10309000407F204602D0FFF791FF04E000F042F8A5
:1030A000204600F040F8257720680169C943C90728
:1030B00008D1C168C943C90704D1891E01612046EE
:1030C00000F032F820680169C943090609D4C168D3
:1030D000C943090605D46FF0800101612046FFF75E
:1030E0002BFE20680169C943490609D4C168C94358
:1030F000490605D46FF040010161204600F01EF83A
:1031000020680169C94389060BD4C168C94389068F
:1031100007D46FF0200101612046BDE87040FFF741
:103120000CBE70BD7047704700680349884201D1EA
:10313000FEF7B6BC7047000000100040704770B545
:10314000040004D094F83D00002510B106E00120F1
:1031500070BD84F83C50204600F022F8242084F80A
:103160003D002068C16821F40051C160204600F094
:1031700019FB2068016921F49041016120684169CF
:1031800021F02A0141612068C16841F40051C16009
:103190002564202084F83D0084F83E00002070BDA6
:1031A00010B586B0044614216846FDF7AEFD1449FB
:1031B0002068884221D113480021026842F480220D
:1031C0000260006800F4802005900E481038026804
:1031D00042F008020260006800F0080005904FF419
:1031E000407000900220CDE90101032003900720E8
:1031F000049069460448FEF74FFB06B010BD00007E
:103200000048004040380240000C0240FEE7000049
:10321000F0B500230A24302537261F4611E000BFF1
:10322000B4EB107F02D905EB107C01E006EB107CBB
:1032300001F813C001EB430C00015B1C8CF801701A
:10324000DBB29342ECD3F0BD2DE9F04786B01421F8
:103250006846FDF75AFD30480024016841F08001BE
:103260000160016801F080010591016841F00101F0
:103270000160016801F001010591016841F0100150
:103280000160016801F010010591016841F0080139
:103290000160016801F008010591016841F0020137
:1032A00001600068DFF8748000F0020005900022E1
:1032B00090214046FEF7E8FBDFF8649042F20306F7
:1032C000002231464846FEF7DFFBDFF858A04FF4F6
:1032D0000477002239465046FEF7D6FB9020009036
:1032E0000125CDE90154694640460394FEF7D4FA1E
:1032F0000096CDE90154694648460394FEF7CCFA9E
:103300000097CDE90154694650460394FEF7C4FA8C
:1033100006B0BDE8F08700003038024000000240EF
:10332000001002400004024010B586B00024174887
:10333000009401940294039404944FF08041059406
:1033400001601021C0E901144FF47A71C0E903143F
:1033500080218161FFF73AFD08B172B6FEE74FF4B4
:103360008050009069460948FFF7BAFD08B172B66F
:10337000FEE7049404A905480594FFF7DFFC002844
:1033800001D072B6FEE706B010BD0000F8010020C3
:1033900010B500220F49104800F0A3FE08B1FEF757
:1033A00067FA0E490C4801F0B1F808B1FEF760FA6F
:1033B0000B49094800F044FC08B1FEF759FA0648E9
:1033C00001F028F9002803D0BDE81040FEF750BAFC
:1033D00010BD00001400002020060020280100205D
:1033E00064000020FEE7FEE70148FEF76DBD000027
:1033F0001C1D00202DE9F04103680D4604461E6C9B
:1034000003EB4511D1F8080BD4F810E04FF4004756
:103410004FF0200C04F2C442BEF1010F09D0DFF8D6
:1034200098E0764539D1020432D500BFC1F8087B57
:103430003FE0224B5FEA007E04D59E4239D900046A
:10344000F4D436E05FEA806E02D5C1F808CB30E0F4
:1034500010F0280F2DD19E4201D90004E6D405EBCF
:10346000C50004EB8000D1F8101BD0F89832C1F3EE
:103470001201591AC0F89C1200F51F70ADB983698A
:103480001BB10269114401610FE0012120680AE0CB
:1034900080060AD5C1F808CB07E035B9D4F8940204
:1034A00018B90021184601F0B3FCE9B22046FEF736
:1034B000E3FB0020BDE8F0810A31544F0A30544F3D
:1034C0002DE9F84F0E4601EBC60100EB8104814661
:1034D0000568616DE06D3C34884202D90120BDE889
:1034E000F88F081AE168814200D20846C01C87089C
:1034F00005EB46181BE000BFA0EB010AE068504551
:1035000000D282460AF10300870899F81000009063
:103510001FFA8AF3F2B22846216901F093FF21696C
:1035200001EB0A002061216A01EB0A002062D8F851
:10353000180980B2B84205D3216AA069814201D23C
:103540000028D9D1216AA069884208D806F00F0165
:1035500001208840D5F834188143C5F8341800207C
:10356000BDE70178407841EA00207047FFF710FF7F
:1035700001200CF079FAFBE764200CF075FAFBE708
:1035800019F0A8FF64200CF06FFAF9E710B550208D
:1035900080F31188BFF34F8FBFF36F8F1DF00EFACA
:1035A00018B104494FF080500860002080F3118862
:1035B00010BD000004ED00E070B592B03021684607
:1035C000FDF7A3FB14210CA8FDF79FFB1C48002569
:1035D000016841F080510160006800F08050119056
:1035E0001848016841F4804101600068022400F439
:1035F0008040119001200090000401908001CDE9ED
:1036000006400F2608969020CDE9090405200B906E
:103610006846FFF749F908B172B6FEE74FF4A050CB
:10362000CDE90E50CDE90C64109003210CA8FFF7F2
:1036300029F8002801D072B6FEE712B070BD000074
:1036400040380240007000400248016841F47001B7
:103650000160704788ED00E00148FFF7B0BC000052
:10366000F80100200148FFF7AABC0000D80500209F
:10367000F0B50268254C264D264E274F274B4FF0BC
:10368000804CA04209D0604507D0A84205D0B04286
:1036900003D0B84201D0984204D122F0700E4A689B
:1036A00042EA0E02A0421BD0604519D0A84217D0B2
:1036B000B04215D0B84213D0984211D0184DA8424C
:1036C0000ED0184DA8420BD0174DA84208D0174D68
:1036D000A84205D0164DA84202D0164DA84203D1EB
:1036E00022F44075CA682A434D6922F080022A43B9
:1036F00002608A68C2620A688262A04201D098426F
:1037000001D10969016301214161F0BD000001405F
:103710000004004000080040000C0040000401408C
:1037200000400140004401400048014000180040B2
:10373000001C00400020004010B5846842EA0322CB
:1037400024F47F440A432243826010BD826822F041
:1037500070020A4342F007018160704710B5036AA6
:10376000046A24F001040462846924F0F00444EA49
:10377000021423F00A020A438461026210BD10B5EC
:10378000036A23F0100303628369046A23F470431D
:1037900043EA023224F0A00343EA0111826101628C
:1037A00010BD000070B5044600680169E26821F4AC
:1037B0004051114301612169A068E26908436169D0
:1037C000114308432168CA6849F20C639A430243D3
:1037D000CA6020684169A26921F4407111434161C6
:1037E00031492068884202D03049884202D1FFF72F
:1037F00019F801E0FFF706F8E269002319216425B2
:103800003226B2F5004F626828D0A0FB0101930F69
:103810009200FCF725FE0146B0FBF5F06FF01802B0
:10382000504301EB800006EB0010B0FBF5F000F018
:10383000F002B1FBF5F002EB0012B1FBF5F06FF016
:103840001803584301EB800006EB0010B0FBF5F0C5
:1038500000F00F0021681044886070BDA0FB0101DA
:1038600092185B41FCF7FCFD0146B0FBF5F002014C
:10387000B1FBF5F06FF01803584301EB800006EB45
:10388000C000B0FBF5F000F0F80002EB4002B1FB25
:10389000F5F0584301EB800006EBC000B0FBF5F0FB
:1038A00000F00700D6E700000010014000140140BE
:1038B0002DE9F0410C46D0F8D412D0F8C82200EB24
:1038C0008101D1F8C01229B304F00F0606EB86037C
:1038D00000EB83050027AB694BB106EBC60602EB94
:1038E0008602926CB3FBF2F602FB1632A2B1C1F86B
:1038F0001472D0F8D42200EB8200D0F8C40203691D
:103900002BB1D1F80802224601F504719847002036
:10391000BDE8F0810320FBE700231A462146AF6192
:1039200000F0D5FDF3E770B50546D0F8D40205EBFD
:103930008000D0F8C04294B1284600F0AAFCC4F838
:103940000C02D5F8D412D4F8040205EB8101D1F8A9
:10395000C412CA6804F503719047002070BD0320AB
:1039600070BD000070B5224D0446297800F0D5FBEB
:103970002878002600F00F0000EB800004EB8000A8
:1039800086846978204600F0C8FB687800F00F0054
:1039900000EB800004EB8000A0F86461A978204669
:1039A00000F0BBFBA87800F00F0000EB800004EBF8
:1039B00080008684C684D4F8D40204EB8000D0F85A
:1039C000C01299B1D0F8C40240688047D4F8D4023C
:1039D00004EB8000D0F8C00200F09DFFD4F8D402C0
:1039E00004EB8000C0F8C062C4F8BC62002070BD67
:1039F000D400002010B5D0F8D41200EB8100D0F82C
:103A0000C04284B1D0F8C41259B194F80002FF2822
:103A100007D08B6894F8012221469847FF2084F84C
:103A20000002002010BD032010BD00000A2101800B
:103A300000487047D800002070B5064682210C4827
:103A400000F0FBFA05460121094800F0F6FA0446A9
:103A50008121074800F0F1FA0DB11021A971402130
:103A600004B1A18000B1818043203080004870BD46
:103A7000E400002070B5064682210D4800F0DDFA12
:103A8000054601210A4800F0D8FA04468121084879
:103A900000F0D3FA0DB11021A9714FF4007104B1F7
:103AA000A18000B1818043203080014870BD0000BA
:103AB000E400002070B5064682210C4800F0BDFAF3
:103AC00005460121094800F0B8FA0446812107485B
:103AD00000F0B3FA0DB11021A971402104B1A18009
:103AE00000B1818043203080004870BDE400002098
:103AF0002DE9F04704464FF40775284600F00CFF07
:103B000006004FF0000863D02946FDF7FEF8D4F810
:103B1000D4023C4D04EB80004FF01009C0F8C062A5
:103B2000C4F8BC62207C4FF4007A0127F0B3402334
:103B300002222978204600F019FC2878402300F062
:103B40000F0000EB800004EB80008784022269787C
:103B5000204600F00BFC6878082300F00F0000EB13
:103B6000800004EB80000322A0F86471A97820464D
:103B700001F00F0101EB810104EB8101A1F8269016
:103B8000A97800F0F3FBA87800F00F0000EB8000AC
:103B900004EB80008784C6F80482D4F8D402474638
:103BA00004EB8000D0F8C402006800E018E006F5DD
:103BB000017680473761776132687AB1207CF8B14D
:103BC00040236978204600F0DDFB0020BDE8F08747
:103BD000D4F8D41204EB8101C1F8C0820220F5E7C9
:103BE000534602222978204600F0C0FB287853462D
:103BF00000F00F0000EB800004EB80008784A5E755
:103C00005346DEE7D400002010B5D0F8D41200EB04
:103C10008101D1F8C01259B1027C084C002AD1F8B8
:103C2000042207D04023617800F0ACFB002010BDD7
:103C3000032010BD4FF40073F5E70000D40000200E
:103C400039B1D0F8D42200EB8200C0F8C4120020B1
:103C5000704703207047D0F8D42200EB8200D0F8E0
:103C6000C00218B1C0F8041200207047032070474A
:103C7000D0F8D43200EB8300D0F8C00228B1C0F8ED
:103C80001022C0F8081200207047032070472DE969
:103C9000FC410646D0F8D4020C4606EB8000002119
:103CA000D0F8C0728DF80010ADF804100D4637B191
:103CB000217811F060022FD0202A4BD102E003209E
:103CC000BDE8FC81E288F2B109060DD5D0F8C40246
:103CD00063783946D0F808C01846E047E288072ADA
:103CE00000D9072239462DE0607887F80002E08885
:103CF000402800D34020C2B287F80122394630461E
:103D000000F081F82BE0D0F8C402637800228668C6
:103D100021461846B04722E0607830B101281ED015
:103D20000A2809D00B2815D110E096F89C02032828
:103D300010D1022201A905E096F89C02032809D1BE
:103D400001226946304600F078F808E096F89C02B7
:103D5000032804D02146304600F04AF803252846BF
:103D6000AEE7000010B5D0F8D41200EB8101D1F815
:103D7000C02201211AB1D2F8143213B116E0032087
:103D800010BD0121C2F814120949D2F81032097885
:103D900001F00F0404EB840400EB8404A361D2F867
:103DA0001032D2F8082200F092FB0021084610BD24
:103DB000D400002010B5D0F8B822002452689047F3
:103DC00000B10324204610BD00207047002070473A
:103DD000134610B50A46002100F0D4FA002010BDA9
:103DE000134610B50A46002100F071FB002010BDFB
:103DF00010B50446802100F04FFB2046BDE810407E
:103E0000002100F049BB10B50323C0F89432C0F87C
:103E100058211346C0F85C210A46002100F0B2FA8E
:103E2000002010BD10B50521C0F8941200231A46D9
:103E3000194600F0A7FA002010BD10B50223C0F803
:103E4000943282611346C2610A46002100F03FFBB2
:103E5000002010BD10B50421C0F8941200231A46AA
:103E6000194600F034FB002010BD000010B50A46D2
:103E7000024903A000F005F9004810BDFC0800202D
:103E800043444320436F6E66696700001220088038
:103E9000004870473400002010B50A46024903A0CC
:103EA00000F0EFF8004810BDFC0800204344432018
:103EB000496E7465726661636500000004200880C5
:103EC000004870473000002010B50A46024903A0A0
:103ED00000F0D7F8004810BDFC08002053544D698D
:103EE00063726F656C656374726F6E6963730000F3
:103EF00010B50A46024903A000F0C3F8004810BDFF
:103F0000FC08002053544D33322056697274756199
:103F10006C20436F6D506F727400000010B51A2052
:103F200008800A480168001D0468001D0068081820
:103F300009D008220649FFF76BF905490422103120
:103F40002046FFF765F90248801E10BD107AFF1F5A
:103F50004A000020F8B504460020ADF8000048886B
:103F60000D46010A08295FD2DFE801F05E04091757
:103F70005E5E3C45D4F8B412207C0A6819E0207CCF
:103F800002260028D4F8B80205D0C16A68468847DE
:103F90000146467039E0816AF8E7C0B2062843D28C
:103FA000DFE800F0030A1014181CD4F8B4024268C9
:103FB00005E0694690471CE0D4F8B402826892B3E9
:103FC000207CF6E7D4F8B402C268F8E7D4F8B4026B
:103FD0000269F4E7D4F8B4024269F0E7D4F8B40215
:103FE0008269ECE7207CF0B9D4F8B802416B6846EE
:103FF0008847014609E0207CA8B9D4F8B802016BD3
:1040000068468847014607204870EA888AB1BDF8AB
:10401000000040B1824200D90246ADF8002020469F
:10402000FFF70BFFF8BDFFE729462046FFF7E0FE4C
:10403000F8E72046FFF70EFFF4E778B50E46428812
:104040000178002504468A4212D9ADF800100AE032
:10405000694600F00FF84178052904D181780546BA
:10406000B14205D000256188BDF800209142EFD80B
:10407000284678BD0A8803781A440A8001780844E3
:10408000704770B5002300281ED00025044602E0CA
:104090006D1CEDB2641C2678002EF9D1022404EBCD
:1040A000450414801278CA545B1C0322CA540024AD
:1040B0005B1C06E0CA545B1CDAB28C54521CD3B2AF
:1040C000401C0278002AF5D170BD01004FF00000BD
:1040D00004D0012901D0022901D00320704701201A
:1040E000704778B10023C0F8B832C0F8C432C0F8C5
:1040F000D03209B1C0F8B412012180F89C120270CC
:1041000000F0CCB80320704710B5D0F8C802FDF716
:10411000F6FDBDE81040FFF7D8BF10B5D0F8C802D3
:10412000FDF7C7FDBDE81040FFF7CFBF2DE9F04117
:1041300017460446002521B194F89C02032842D07A
:104140004CE0D4F8941204F11400022935D1D0E9DE
:1041500002639E4206D9F21A826039462046FFF772
:104160003FFE0FE0B34214D14068984211D3D4F817
:10417000981288420DD2002211462046FFF730FEE9
:10418000C4F8985200231A461946204600F0FAF85F
:1041900013E094F89C02032808D1D4F8B802C1684F
:1041A00021B1C4F8D452C1682046884780212046F6
:1041B00000F072F92046FFF735FE94F8A00268B1CE
:1041C00084F8A0520AE0D4F8B802426932B1C4F8C7
:1041D000D452426920469047002800D10020BDE813
:1041E000F08170B513460446002221B194F89C0278
:1041F000032830D03AE0D4F8941204F5AA700329C9
:1042000034D1D0E902518D420AD96A1A8260084637
:10421000824200D3024619462046FFF7D9FD25E029
:1042200094F8AA0210F01F0003D0012802D002283F
:1042300000D0002294F89C02032808D1D4F8B802D8
:10424000016921B1C4F8D42201692046884720467B
:10425000FFF700FE0AE0D4F8B802836933B1C4F86E
:10426000D422826920469047002800D1002070BDEA
:104270000020704710B50024012180F89C12D0F86E
:10428000B82222B152680179904700B10324204638
:1042900010BDD0F8C802FDF760BD000010B5017870
:1042A00039BB15490222C1F80805C0F8C8124FF001
:1042B000A0400860042048600020C1E90320C1E953
:1042C000062008624862C86208630846FEF7B4F830
:1042D00008B1FDF7CDFA80210748FDF79AFC40228E
:1042E00000210548FDF799FC802201210248FDF7D5
:1042F00094FC002010BD00001C1D00200A0601F0E7
:104300007F01D0F8C80201EBC10100EB810002D5AA
:1043100090F83E00704790F87E02704710B5D0F8D4
:10432000D42200EB8202D2F8B82222B190F89C325B
:10433000032B02D004E0032010BD126A02B19047A3
:10434000002010BD10B5D0F8D42200EB8202D2F8C4
:10435000B82222B190F89C32032B02D004E0032053
:1043600010BD526A02B19047002010BD10B51C4626
:104370001346D0F8C8022246FDF7F8FCBDE810400D
:10438000FFF7A3BE10B5D0F8C802FDF71FFDBDE8CA
:104390001040FFF79ABE2DE9F041002601250446A2
:1043A00080F89C52C4F894626660C4F8A46280F8F5
:1043B000A062D0F8B80230B1426822B10021204694
:1043C000904700B103260022402311462046FFF704
:1043D000CDFF4027A4F864513B46002280212046AF
:1043E000C4F86071FFF7C2FFA58430462762BDE8BC
:1043F000F08190F89C12042903D190F89D1280F866
:104400009C120020704710B590F89C12032905D12A
:10441000D0F8B81211B1C96901B18847002010BDA8
:1044200001740020704710B5D0F8C802FEF7D6F826
:10443000BDE81040FFF749BE70B5044600F2AA205F
:10444000054600F04DF80120C4F89402B4F8B0021B
:10445000C4F8980294F8AA0210F01F010AD00129AA
:104460000ED0022912D000F080012046BDE8704035
:1044700000F012B829462046BDE8704000F0CCB8E4
:1044800029462046BDE8704000F00CBA2946204677
:10449000BDE8704000F056B910B5D0F8C802FDF77D
:1044A000B9FCBDE81040FFF710BE10B5D0F8C80247
:1044B000FEF7AFF8BDE81040FFF707BE90F89C127A
:1044C00080F89D12042180F89C120020704710B5DE
:1044D000D0F8C802FDF7D8FCBDE81040FFF7F5BDE5
:1044E00070B5054611F8010B2870087868704C1CEF
:1044F0002046FFF736F86880A41C2046FFF731F805
:10450000A880A01CFFF72DF8E88070BD38B50446E0
:104510000020ADF80000A1B1C4F8B812D4F8D4025C
:1045200004EB8000D0F8B802C16A19B16846884728
:10453000C4F8D002D4F8D802401CC4F8D802002035
:1045400038BD032038BD02460020D2F8B832002B17
:1045500002D01B6810461847704700002DE9F04153
:1045600088462B4E8978002504463170012906D9EA
:1045700041462046FFF73CFC0320BDE8F08194F85B
:104580009C02022702280CD003281DD04146204659
:10459000FFF72EFC31782046FFF70CFC0325284658
:1045A000EBE789B320466160FFF7CDFF050004D03B
:1045B00041462046FFF71CFC1DE02046FFF74AFC61
:1045C000032084F89C02EAE7C1B1606888421BD0EE
:1045D000C1B22046FFF7EEFB317820466160FFF75D
:1045E000B2FF050010D041462046FFF701FC2179BB
:1045F0002046FFF7DFFB84F89C72D0E784F89C72BA
:1046000020466160FFF7D6FB2046FFF723FCC6E794
:10461000D0000020FFF749BF2DE9F0410A780025BE
:1046200012F060020CD0202A01D0402A7DD1D0F8AF
:10463000D42200EB8202D2F8B8229268904731E08F
:104640004B78002201260A2B6FD2DFE803F0416687
:104650006E586E08056E2D29FFF77CFC67E0044656
:104660008888D8B9C888C8B94888802816D200F088
:104670007F0794F89C02032810D084F89E72394674
:104680002046FFF7D0FE2046FFF7E4FB1FB10220D3
:1046900084F89C024BE084F89C6248E0204644E0A9
:1046A000FFF75CFF054642E0CB88012B3DD190F837
:1046B0009C32012B04D0022B02D0032B35D104E015
:1046C0008260012200F1080116E00122011D13E0C1
:1046D00090F89C22012A03D0022A01D0032A24D177
:1046E000CA88022A21D1C660D0F8A41209B10321D8
:1046F000C160022200F10C01FFF79FFB17E04A881E
:10470000012A02D0022A03D00FE0C0F8A46216E00A
:104710008988090A80F8A01211E090F89C32012BD8
:1047200008D0022B06D0032B04D0FFF761FB2846EC
:10473000BDE8F08149880129F9D1C0F8A422FFF72A
:1047400089FBF4E72DE9F041054608780C790E461F
:104750004FF0000810F060000BD0202801D0402856
:104760006AD121462846FFF72FFBFF2800D0D8B397
:1047700095E07078C8B3012824D003285CD195F85F
:104780009C02022802D0032856D10CE0002C53D002
:10479000802C51D021462846FFF77EFE80212846F6
:1047A000FFF77AFE7BE0708840B93CB1802C05D0E1
:1047B000C88818B921462846FFF76EFE2846FFF73D
:1047C00049FB6CE095F89C020228DFD0032863D1F6
:1047D000708880BB600603D021462846FFF794FC12
:1047E0002846FFF737FBBCE700E00AE0C5F8D40233
:1047F000D5F8B8028268F2B1314628469047804623
:104800004DE095F89C020027022802D0032843D1EE
:1048100013E00CB1802C3FD1200604F07F0000EBA8
:10482000800005EB800101D5143101E001F5AA718A
:1048300002220F602CE032E02EE0200604F00F0090
:1048400000EB800005EB800009D5808C20B304F0DC
:104850007F0000EB800005EB800614360AE0B0F81C
:104860006401C8B104F07F0000EB800005EB800616
:1048700006F5AA764CB1802C07D021462846FFF7D2
:104880003DFD10B10120306000E03760022231466A
:104890002846FFF7D2FA02E02846FFF7A9FA404679
:1048A000BDE8F08170B50546087800240E4610F08A
:1048B000600003D0202801D0402827D195F89C0221
:1048C000012803D0022801D003281FD1B088C1B22B
:1048D00001291AD8C1B22846FFF778FAFF280CD070
:1048E00058B9D5F8B8128A683AB1C5F8D4028A68BE
:1048F000314628469047044600E00324F0882043D0
:1049000007D12846FFF7A6FA03E031462846FFF70D
:104910006FFA204670BD704700487047FC1A0020AF
:1049200070B50A78012302F00F054E78AB401B4C9E
:10493000D0F81C58012E17D045EA0343C0F81C38A4
:1049400000EB4210D0F8002B12040BD4D0F8002B4F
:104950008B890979C3F30A031A4344EA81410A4364
:10496000C0F8002B002070BD9BB21D43C0F81C583E
:1049700000EB4210D0F800391B04F3D4D0F8003912
:104980008D890979C5F30A0589042B4341EA8251CF
:104990000B432343C0F80039E4E700000080001017
:1049A000D0F800196FF30A01C0F80019D0F8041804
:1049B00041F48071C0F804180020704770B50446B7
:1049C00006990A9E049D0D98012916D0E06840F0D2
:1049D0004000E060204600F02BF8A16B1EB321F4EC
:1049E0008031A163012D07D1A16841F00601A160CA
:1049F000A16841F02001A16070BDA16B21F480315C
:104A0000A163E168094A1140E160E16821F44011C5
:104A1000E160012803D1E06840F48010E0602046A6
:104A200000F006F8DEE741F48031DAE7BFFFBDFFB2
:104A300008B500220D490092009B5B1C00938B423D
:104A40000CD80369002BF7DA0092026942F00102E8
:104A50000261009A521C00928A4201D9032008BDCB
:104A60000269D207F5D1002008BD0000400D030007
:104A700030B54C780A78012300EB4212012C2CD07F
:104A8000D2F8004B002C0BDAD2F8004B44F0006453
:104A9000C2F8004BD2F8004B44F08044C2F8004BFF
:104AA000D0F83C580C7804F00F0403FA04F425EA1B
:104AB0000444C0F83C48D0F81C48097801F00F01C4
:104AC0008B4024EA0341C0F81C18D2F8000B1949A6
:104AD0000840C2F8000B002030BDD2F80049002C7D
:104AE0000BDAD2F8004944F00064C2F80049D2F869
:104AF000004944F08044C2F80049D0F83C480D78A1
:104B000005F00F0503FA05F5ADB2AC43C0F83C481B
:104B1000D0F81C48097801F00F018B4099B28C4302
:104B2000C0F81C48D2F8000903490840C2F800093F
:104B3000D1E700000078F3EF007833ECD0F8001EE6
:104B400021F00301C0F8001ED0F8041821F0020182
:104B5000C0F8041800207047D0F8001E21F00301AF
:104B6000C0F8001ED0F8041841F00201C0F8041883
:104B7000002070472DE9F04F00250E460446DDF871
:104B80002CC0DDF824B0109F2846294604EB800293
:104B9000C2F80411401C0F28F8D32046C7B1806B1F
:104BA00020F40012A263A06B40F40022A263084626
:104BB0008846C4F8000ED4F800182046C4F800183F
:104BC000BCF1010F16D0D0F8001841F0030116E037
:104BD000D0F8040840F00202C4F80428A06B40F4A6
:104BE0000012A263A06B20F40022A263A06B20F449
:104BF0008022DBE7D0F800180BB141F00101C0F8CA
:104C00000018102100F0EEFA00B10125204600F056
:104C1000CBFA00B101254046C4F81088C4F81488C6
:104C2000C4F81C8800214FF000694FF0904A4FF6FD
:104C30007F3314E004EB4112D2F800C9BCF1000F3D
:104C400006DA11B1C2F800A904E0C4F8009901E045
:104C5000C2F80009C2F81009C2F80839491C8E428E
:104C6000E8D8002115E000BF04EB4112D2F800CBD8
:104C7000BCF1000F06DA11B1C2F800AB04E0C4F8D1
:104C8000009B01E0C2F8000BC2F8100BC2F8083B11
:104C9000491C8E42E8D8D4F8101821F48072C4F868
:104CA0001028A0616FF080406061BBF1000F03D15C
:104CB000A06940F01000A061A06909490843A06103
:104CC0000C9818B1A06940F00800A061012F03D131
:104CD000A06904490843A0612846BDE8F08F0000A0
:104CE00000383C8004000040816821F001018160AF
:104CF0000020704770B50D784E78444CEBB200EB55
:104D00004313012E21D0D3F8100B6FF31200C3F818
:104D1000100BD3F8100B2040C3F8100B886908B1B2
:104D2000C8688861C868C861D3F8100B40F40020D7
:104D3000C3F8100BD3F8100BCC69C4F31204204352
:104D4000C3F8100B012A55D058E08E69002ED3F815
:104D5000106932D06FF31206C3F81069D3F81069E6
:104D60002640C3F810698E69CC68A64200D98C61D0
:104D7000D3F8104944F40024C3F81049D3F810497B
:104D80008E69C6F312063443C3F81049012A22D0B3
:104D900000EB4512D2F8003943F00443C2F8003961
:104DA0008A6932B3D0F83428097801F00F03012161
:104DB00099400A43C0F8342826E02640C3F8106919
:104DC000D3F8104944F40024C3F81049D3F810492B
:104DD0006FF31204D8E7496919B100EB4512C2F824
:104DE000141900EB4510D0F8001941F00441C0F847
:104DF000001909E0086908B1C3F8140BD3F8000BD7
:104E000040F00440C3F8000B002070BDFFFF07E036
:104E100010B5036C134CA34203D9D0F8003B002B10
:104E20001EDB0023C0F8103BD0F8103B43F40023F6
:104E3000C0F8103BD0F8103B43F01803C0F8103B0B
:104E4000D0F8103B43F0C043C0F8103B012907D114
:104E5000C0F8142BD0F8001B41F08021C0F8001BD3
:104E6000002010BD0A30544F4A780B78012A00EB1D
:104E700043100BD0D0F8002B22F40012C0F8002B06
:104E80000979032914D0022912D017E0D0F800299B
:104E900022F40012C0F800290979032901D002295F
:104EA0000CD1D0F8001941F08051C0F8001905E08C
:104EB000D0F8001B41F08051C0F8001B0020704763
:104EC0000A784B78D1B200EB4110012B12D0D0F808
:104ED000001B002906DB2AB1D0F8001B21F080411D
:104EE000C0F8001BD0F8001B41F40011C0F8001BF3
:104EF00000207047D0F80019002906DB2AB1D0F84D
:104F0000001921F08041C0F80019D0F8001941F4CF
:104F10000011C0F80019EBE7F8B50C784F78764D22
:104F2000E3B26FF0604600EB4313012F27D0D3F8B4
:104F3000104B6FF31204C3F8104BD3F8104B2C40F6
:104F4000C3F8104B8D69002D75D0CC6825446D1EBB
:104F5000B5FBF4F5ADB26C43CC61D3F8104B06EA67
:104F6000C5452C43C3F8104BD3F8104BCD69C5F39E
:104F700012052C43C3F8104B012A71D0A4E08F69AD
:104F80001FB3D3F810796FF31207C3F81079D3F871
:104F900010792F40C3F810798F69CD682F447F1E98
:104FA000B7FBF5F506EAC545D3F810693543C3F8F4
:104FB0001059D3F810598E69C6F312063543C3F859
:104FC00010590D79012D10D01BE0D3F810692E4037
:104FD000C3F81069D3F8105945F40025C3F81059E7
:104FE000D3F810596FF3120509E0D3F8105925F0E2
:104FF000C045C3F81059D3F8105945F00055C3F80F
:105000001059012A18D000EB4413D3F8004944F09A
:105010000444C3F800490C79012C2FD08A6962B38B
:10502000D0F83428097801F00F03012199400A4390
:10503000C0F834285EE036E04A691AB100EB441348
:10504000C3F81429097901290FD1D0F80818C90526
:1050500000EB4411D1F8002903D442F0005202E0E1
:105060002EE042F08052C1F8002900EB4410D0F845
:10507000001941F00441C0F800193BE0D0F808489D
:10508000E405D3F8004902D444F0005401E044F0B0
:105090008054C3F8004900920A8B93B20A780969D8
:1050A00000F0D0F926E0D3F8104BCD68C5F3120517
:1050B0002C43C3F8104BD3F8104B44F4002459E7A9
:1050C0000A690AB1C3F8142B097901290CD1D0F867
:1050D0000808C005D3F8000B02D440F0005001E0EE
:1050E00040F08050C3F8000BD3F8000B40F00440B0
:1050F000C3F8000B0020F8BDFFFF07E038B5002221
:10510000009213464D780A7842F2107400EB421276
:10511000012D19D0D2F8005B002D3CDAD2F8005BEB
:1051200045F00065C2F8005B0A7800EB4212D2F845
:10513000005B45F08045C2F8005B009A521C00926B
:10514000A24221D9012326E0D2F80059002D22DA0B
:10515000D2F8005945F00065C2F800590A7800EB12
:105160004212D2F8005945F08045C2F80059009A21
:10517000521C0092A242E5D80A7800EB4212D2F803
:105180000029002AF3DB06E00A7800EB4212D2F88D
:10519000002B002AD1DB184638BD816841F001019F
:1051A000816000207047000008B500220C49009281
:1051B000009B5B1C00938B420AD80369002BF7DA33
:1051C000009210220261009A521C00928A4201D978
:1051D000032008BD0269D206F5D4002008BD0000F6
:1051E000400D030018B500230D4A0093009C641C79
:1051F000009494420CD80469002CF7DA0093202321
:1052000043EA811101610099491C0091914201D941
:10521000032018BD01698906F5D4002018BD0000DF
:10522000400D0300D0F8080810F0060004D0022852
:1052300003D0062801D00F20704702207047406934
:1052400000F001007047D0F81818D0F81C0808408A
:1052500080B27047D0F81818D0F81C080840000C2D
:10526000704710B5D0F81038D0F8342801F00F048A
:1052700000EB4110E24002F00102D0F8080943EAD5
:10528000C212104010BD00EB4111D1F8081BD0F83C
:10529000140808407047416980690840704730B57C
:1052A00003460846940802F00301002203F58053E8
:1052B00003E01D6840F8045B521CA242F9D30029A8
:1052C0000BD01C680022D50024FA05F3491E521C9D
:1052D000090400F8013B090CF5D130BD70B5044656
:1052E000C068002520F0C040E060012901D079B1FC
:1052F00020E0E06840F00050E0600120FCF7BAFADE
:1053000060696D1C10F0010F10D1322DF5D30DE046
:10531000E06840F08040E0600120FCF7ABFA606993
:105320006D1C10F0010F01D0322DF5D3322D01D0BC
:10533000002070BD012070BDD0F8002822F4FE626C
:10534000C0F80028D0F800284FF4FE6303EA0111EA
:105350000A43C0F80028002070470000022A3ED10E
:10536000264A274B0A449A4201D20F2138E0254AA7
:10537000254B0A449A4201D20E2131E0234A244BA4
:105380000A449A4201D20D212AE0224A224B0A44C1
:105390009A4201D20C2123E0204A214B0A449A422E
:1053A00001D20B211CE01F4A1F4B0A449A4201D232
:1053B0000A2115E01D4A1E4B0A449A420FD31D4A8A
:1053C0001D4B0A449A4201D2082109E01B4A1144AC
:1053D0001B4A914201D2072102E0062100E0092187
:1053E000C26822F47052C260C2684FF4705303EA7C
:1053F00081210A43C260002070470000405327FF0C
:1054000000350C00401E1BFF40420F0000DC0BFF6C
:10541000804F1200808CF9FE20D6130060B6E5FEA6
:1054200060E3160000D3CEFE40771B00C05BB3FEE6
:10543000C091210000CA91FE20753800E05459FE49
:10544000E09C410010B5029C74B9DB1C9C0800EB89
:105450000230002300F5805004E000BF51F8042B17
:1054600002605B1CA342F9D3002010BDFEE70907D0
:10547000090E002804DB00F1E02080F800147047DA
:1054800000F00F0000F1E02080F8141D7047303864
:105490000A2801D201207047002070476FF40041B4
:1054A000401804D0012803D0022801D00814704706
:1054B000002070476FF40041401800D00020704772
:1054C0006FF40041401805D0012802D0022801D015
:1054D000002070470120704770B504004FF0FF3581
:1054E00011D020783A280ED10CA12046FBF734FCCD
:1054F00058B10CA12046FBF72FFC48B10BA1204668
:10550000FBF72AFC38B1284670BD48F2010070BD97
:1055100048F2020070BD48F2030070BD3A53544493
:10552000494E00003A5354444F5554003A535444A2
:10553000455252004FF0FF3070476FF40041411860
:105540004FF0FF300DD0012902D0022909D103E02C
:1055500032B100BE521EFBE712B100BE521EFBE785
:10556000002070472DE9F04F8C780B888D7964F31B
:105570001F43CC788E7A43EA04648B888F7B65F373
:105580001F43CD7943EA05650B8966F31F43CE7A45
:1055900043EA06668B89C97B67F31F43076843EAC2
:1055A000016100EB071CDCF8F4306340DCF8F840E4
:1055B0006C40DCF8FC507540DCF800614E407F1E0A
:1055C00067D0724903F0FF0CC6F3072851F82CC0CE
:1055D00051F828808CEA386CC5F3074851F82880C8
:1055E0008CEA384C4FEA146851F828808CEA382B42
:1055F00004F0FF0C51F82C80C3F3072C51F82CC099
:1056000088EA3C68C6F3074C51F82CC088EA3C484D
:105610004FEA156C51F82CC088EA3C2A05F0FF0CC3
:10562000C5F3072551F82C80C4F3072C51F82550F9
:1056300051F82CC0C4F3074488EA3C68C3F3074C14
:105640001B0E51F82CC051F8244088EA3C484FEA20
:10565000166CF6B251F82CC051F8266051F8233080
:1056600086EA356588EA3C2C85EA344400EB071667
:1056700084EA332856F8F43F7F1E7468B568F668EC
:1056800083EA0B0384EA0A0485EA0C0586EA080625
:1056900098D13F4951FA83F7C6F3072C3F7811F8A8
:1056A0000CC047EA0C27C5F3074C11F80CC047EAB9
:1056B0000C4701EB146C9CF800C047EA0C6951FAE6
:1056C00084F7C3F3072C3F7811F80CC047EA0C2786
:1056D000C6F3074C11F80CC047EA0C4701EB156CF8
:1056E0009CF800C047EA0C6751FA85FCC4F3072810
:1056F0009CF800C011F808804CEA082CC3F3074856
:1057000011F808804CEA084C01EB166898F8008004
:105710004CEA086C51FA86F6C5F30725C4F3074432
:105720004D5D0C5D367801EB136146EA052509787D
:1057300045EA044444EA016450F8F41F436885686C
:10574000C06881EA0901604011700C0A54700C0CA9
:105750009470090E7B40D1701371190A5171190CA4
:105760009171190E85EA0C05D1711572290A5172D1
:10577000290C9172290ED1721073010A5173010C18
:105780009173000ED073BDE8F08F00009C180208E2
:105790009C1302082DE9F04F8C780B888D7964F307
:1057A0001F43CC788E7A43EA04648B888F7B65F341
:1057B0001F43CD79D0F8009043EA05650B8966F365
:1057C0001F43CE7A43EA06668B89C97B67F31F4382
:1057D00043EA01614368634084686C40C568754072
:1057E00006694E40012764E0714903F0FF0CC4F3E1
:1057F000072851F82CC051F828808CEA386CC5F382
:10580000074851F828808CEA384C4FEA166851F85E
:1058100028808CEA382B04F0FF0C51F82C80C5F35B
:10582000072C51F82CC088EA3C68C6F3074C51F8A5
:105830002CC088EA3C484FEA136C51F82CC088EA27
:105840003C2A05F0FF0C51F82C80C6F3072CF6B269
:1058500051F82CC051F8266088EA3C68C3F3074C25
:10586000C3F3072351F82CC051F8233088EA3C4891
:105870004FEA146CC4F3074486EA336351F82440BA
:1058800051F82CC083EA34432C0E00EB071651F874
:105890002410B46883EA31217368F568366988EAB0
:1058A0003C2C4E4083EA0B0384EA0A0485EA0C058B
:1058B0007F1CB94598D83F4951FA83F7C4F3072CA8
:1058C0003F7811F80CC047EA0C27C5F3074C11F8D4
:1058D0000CC047EA0C4701EB166C9CF800C047EA85
:1058E0000C6A51FA84F7C5F3072C3F7811F80CC005
:1058F00047EA0C27C6F3074C11F80CC047EA0C47DF
:1059000001EB136C9CF800C047EA0C6751FA85FC68
:10591000C6F307289CF800C011F808804CEA082C50
:10592000C3F3074811F808804CEA084C01EB1468EF
:1059300098F800804CEA086C51FA86F6C3F3072306
:10594000C4F30744CB5C0C5D367801EB156146EA85
:10595000032343EA044300EB09140978606843EA2F
:105960000163A168E568246980EA0A005C40107060
:10597000030A5370030C9370000E7940D0701171BC
:10598000080A5071080C9071080E85EA0C05D07158
:105990001572280A5072280C9072280ED072147357
:1059A000200A5073200C9073200ED073BDE8F08F46
:1059B0009C1402089C120208F0B540B139B1102ABB
:1059C00007D0182A07D0202A07D0E820F0BD0220EF
:1059D000F0BD0A2302E00C2300E00E23950800220C
:1059E00003600CE001EB82039E781C88DB7866F391
:1059F0001F4444EA036400EB8203521C5C60AA4229
:105A0000F0D301682C468A004C4B121D1CE000BFED
:105A1000B4FBF5F650F8241005FB1646D6B1062D5A
:105A200005D9B4FBF5F605FB1646042E35D000EB80
:105A300084067160671B00EB840100EB87074E68EA
:105A40007F687E40641C4E609442E1D30021002AAE
:105A500042D870E0C1F30726C1F3074C9F5D00EB0D
:105A60008406776013F80CC047EA0C2703EB116C2F
:105A700077609CF800C047EA0C4753FA81F17760E1
:105A80000978DFF8BCC047EA0161B4FBF5F7716043
:105A90005CF827704F407760CCE753FA81F637788F
:105AA00000EB8406C1F3072C776013F80CC047EABB
:105AB0000C27C1F3074C776013F80CC003EB11619E
:105AC00047EA0C477760097847EA0161B1E70429A2
:105AD00002D3141FA14205D300EB81046568C4F80A
