:020000040800F2
:10000000809001208103000823380008AD310008EA
:10001000D9370008A71700080940000800000000B1
:10002000000000000000000000000000C102000805
:10003000E1170008000000001D030008F138000867
:100040009B0300089B0300089B0300089B03000818
:100050009B0300089B0300089B0300089B03000808
:100060009B0300089B0300089B0300089B030008F8
:100070009B0300089B0300089B0300089B030008E8
:100080009B0300089B0300089B0300089B030008D8
:100090009B0300089B0300089B0300089B030008C8
:1000A0009B0300089B0300089B0300089B030008B8
:1000B000F13B00089B0300089B0300089B0300081A
:1000C0009B0300089B0300089B0300089B03000898
:1000D0009B0300089B0300089B030008F53F0008F2
:1000E0009B0300089B0300089B0300089B03000878
:1000F0009B0300089B0300089B0300089B03000868
:100100009B0300089B030008FD3B00089B030008BD
:100110009B0300089B030008153C00089B03000894
:100120009B0300089B0300089B0300089B03000837
:100130009B030008891A00089B0300089B03000822
:100140009B0300089B0300089B0300089B03000817
:100150009B0300089B0300089B0300089B03000807
:100160009B0300089B0300089B0300089B030008F7
:100170009B0300089B0300089B030008000000008D
:100180009B0300089B03000800F002F800F089F8C8
:100190000AA090E8000C82448344AAF10107DA45E2
:1001A00001D100F07EF8AFF2090EBAE80F0013F0AB
:1001B000010F18BFFB1A43F001031847B43B0200BC
:1001C000F43B02000A444FF0000C10F8013B13F01E
:1001D000070408BF10F8014B1D1108BF10F8015BA0
:1001E000641E05D010F8016B641E01F8016BF9D193
:1001F00013F0080F1EBF10F8014BAD1C0C1B09D1EA
:100200006D1E58BF01F801CBFAD505E014F8016B5B
:1002100001F8016B6D1EF9D59142D6D370470000ED
:10022000103A24BF78C878C1FAD8520724BF30C822
:1002300030C144BF04680C607047000000230024F4
:1002400000250026103A28BF78C1FBD8520728BFE6
:1002500030C148BF0B607047642900F013827529D4
:1002600000F01082782900F04982732900F0A986F5
:10027000002070471FB520F02BFB9DE8030000F025
:10028000E1FD00F0BFFD04000020002120F00AFB8A
:10029000401C606000F0FCFE1FBD10B500F061FF67
:1002A00010BD01F0D0F81146FFF7E4FF0BF0ACF9F8
:1002B00001F0E2F903B4FFF7F0FF03BC01F02CFA00
:1002C0002C4B19680868B0E8F04F80F30988BFF339
:1002D0006F8F4FF0000080F311887047000000001E
:1002E00008480068006880F308884FF0000080F339
:1002F000148862B661B6BFF34F8FBFF36F8F00DF14
:1003000000BF00BF08ED00E0DFF80C00016841F419
:1003100070010160704700BF88ED00E0EFF30980D5
:10032000BFF36F8F134B1A681EF0100F08BF20ED3C
:10033000108A20E9F04F106009B44FF0500080F3AC
:100340001188BFF34F8FBFF36F8F1CF0A9FB4FF0E5
:10035000000080F3118809BC19680868B0E8F04F04
:100360001EF0100F08BFB0EC108A80F30988BFF3AD
:100370006F8F7047A0C60120EFF305807047000023
:100380000948804709480047FEE7FEE7FEE7FEE729
:10039000FEE7FEE7FEE7FEE7FEE7FEE70448054965
:1003A000054A064B70470000B13900088901000872
:1003B000808A002080900120808C0120808C012088
:1003C00010B500F01FFD001D10BD00BFD9040200D4
:1003D00070B5064600F012FD056806F10B0020F02E
:1003E0000704B4429CBF002070BD2B466A68BAB1B6
:1003F0001068A04210D304F1080188423CBF506845
:10040000586007D35168101941601168091B0160D9
:1004100058601460101D70BD13465268002AE7D161
:100420002146284600F0FAFC0028DED170BD70B5E8
:100430000446051F00F0E2FC0068002C14BF44686D
:1004400070BD002C18BFAC423CBF20466468F8D396
:1004500001680A18AA4218BF456003D12A680546F8
:100460001144016028684119A1421CBF6C6070BD35
:100470006168696021680844286070BD53EA020C15
:1004800000F069802DE9F04B4FF00006002B1FBFF4
:10049000B3FA83F503FA05F424FA05F65E4012BFB9
:1004A0001643B2FA82F502FA05F4C5F120051EBF23
:1004B00022FA05FC44EA0C04203556EA044C4FEAC3
:1004C000144418BF641C4FF000084FF0000990421C
:1004D00071EB030C39D3002919BFB1FA81F701FA86
:1004E00007F6B0FA80F700FA07F6C7F120071EBF3B
:1004F00020FA07FC46EA0C062037B6FBF4FCA7EB13
:100500000507103F07F01F0BCBF120060CFA0BFB81
:100510002CFA06F644BFB3460026202FA4BF5E4641
:100520004FF0000B5BEA060C08BF4FF0010B19EB14
:100530000B09ABFB027C48EB0608C01B06FB02CC98
:100540000BFB03CC71EB0C01C1E70B4602464146A5
:100550004846BDE8F08B13B54FF000004FF00001A6
:10056000AFF30080BDE81C40704710B50446FFF7AC
:1005700027FF0068005DC00602D504F1200010BD11
:10058000204610BD10B50446FFF71AFF0068005D55
:10059000000704D5DF2C02D0A4F1200010BD2046B6
:1005A00010BD0FB4014610B504AA039800F00EFD6B
:1005B00010BC5DF814FB00000FB41CB5084B06AA74
:1005C0007B4469460090059800F0D1FC0446002069
:1005D000694600F0DFFC20461CBC5DF814FB0000FF
:1005E000D109000070B5044685690068C10601D5CF
:1005F000302600E02026C00707D070BDD4E90121D5
:1006000030469047206A401C20626D1EF6D570BDB2
:1006100070B5044685690078C00707D170BDD4E97C
:10062000012120209047206A401C20626D1EF6D5D3
:1006300070BD70B50C460546012A05D028788006A5
:1006400000D5EA69002302E0012305E05B1C934228
:1006500002D2E05C0028F9D1A869E618C01AA861A6
:10066000286A184428622846FFF7BCFF04E0D5E951
:10067000012114F8010B9047B442F8D32846FFF744
:10068000C7FF70BD2DE9F0410646002410687529AA
:10069000314616A510D0AFF30080002802DA4042A0
:1006A00013A507E031688A0701D512A502E04907C2
:1006B00004D511A5012401E0AFF3008000210A2236
:1006C00006F1240709E0B0FBF2FCB0FBF2F302FBF9
:1006D0001C00303078541846491C0028F3D12346BA
:1006E0002A463046BDE8F04100F0E2BB00000000C1
:1006F0002D0000002B0000002000000070B5044613
:100700000D4621461068AFF300802188090502D507
:100710000F4A7A4402E00E4A7A440E32002104F174
:10072000240305E000F00F060009965D5E54491CA5
:100730000028F7D120780023000704D5702D02D0BF
:1007400009B1022311322046BDE8704000F0B0BB71
:10075000A13102002DE9F05F894604464FF0000AFE
:10076000DFF824B1FB44C0F820A02046E1688847A8
:1007700000287DD0252806D0D4E901219047206AA1
:10078000401C2062F1E700255F462046E16888476B
:100790002028064607DB312E05D2B81910F8200CA8
:1007A00008B10543F1E7A80701D525F00405C4F811
:1007B0001CA00027C4F818A02A2E09D0304603F048
:1007C0006DFC38B304EB8708303EC8F8186019E0B8
:1007D00059F8041B204604EB87029161E1688847C1
:1007E000012F064618D1E069002820DA25F02005FF
:1007F0001DE0D8F8180000EB800006EB4000303810
:10080000C8F818002046E1688847064603F046FC11
:100810000028EED1012F0AD02E2E08D12046E16803
:1008200088477F1C0646022F45F02005C4DBA069DF
:10083000002803DA404245F00105A061E80701D035
:1008400025F01005A6B1A6F14100192802D82036DE
:1008500045F400654A463146204625604D46FFF77F
:10086000FBFC60B1012807D0ED1D25F0070000E07A
:1008700007E000F1080978E705F1040975E730465B
:100880007AE7206ABDE8F09F773102002DE9F05F3A
:1008900093460F4680460446002600F0B7FAD0F88B
:1008A0000090824614F8015B2DB1FFF789FD0068C6
:1008B000405DC007F6D12B2D02D02D2D1AD0641E1D
:1008C0000021CAF800105A463946204600F090FB35
:1008D000014627B13868A04201D1C7F80080DAF894
:1008E0000000022809D0CAF80090700505D54842DA
:1008F000BDE8F09F46F48066E2E70846F8E700F0BE
:1009000063BC401ECAB210F8011F8A4202D00029FF
:10091000F9D10020704740EA010310B59B070FD1C1
:10092000042A0DD310C808C9121F9C42F8D020BA5F
:1009300019BA884201D9012010BD4FF0FF3010BD17
:100940001AB1D30703D0521C07E0002010BD10F8E5
:10095000013B11F8014B1B1B07D110F8013B11F8AB
:10096000014B1B1B01D1921EF1D1184610BD40EA6C
:100970000103024630B59B0710D14FF0013400E06F
:1009800008C208C91D1B9D4315EAC41FF8D013F007
:10099000FF0102F8011B0DD01B0AF8E711F8013B1B
:1009A000002B02F8013B05D011F8013B002B02F8A7
:1009B000013BF3D130BD2DE9F041054690460E468E
:1009C0000020044600E0641C44450BD2285DFFF77C
:1009D000CCFD0746305DFFF7C8FD381A02D1295D0E
:1009E0000029F0D1BDE8F0812DE9F0410E46054621
:1009F000002400E0641C285DFFF7B7FD0746305D6A
:100A0000FFF7B3FD381A02D1295D0029F2D1BDE804
:100A1000F08110B5431C02E010F8011B71B1810791
:100A2000FAD14FF0013202C88C1A8C4314EAC21179
:100A3000F9D0C01A0A0603D0C01E10BDC01A10BDDE
:100A40000A0401D0801E10BD0902FCD0401E10BD5A
:100A500040EA010370B59B072ED14FF00136042AFE
:100A60002AD308C810C99D1B9D43121F15EAC6153D
:100A700017D0D8B2E1B2401A50EA056110D198B24D
:100A8000A1B2401A50EA05410AD123F07F4024F078
:100A90007F41401A50EA052102D1180EA0EB1460E4
:100AA00070BDA342DBD018BA21BA884201D9012017
:100AB00070BD4FF0FF3070BD0AB9002070BD10F856
:100AC000013B11F8014B63B1A3420AD1521E08D079
:100AD00010F8013B11F8014B1BB1A34201D1521E8A
:100AE000EDD1181B70BD032A40F2308010F0030CCA
:100AF00000F0158011F8013BBCF1020F624498BF71
:100B000011F801CB00F8013B38BF11F8013BA2F10D
:100B1000040298BF00F801CB38BF00F8013B11F088
:100B2000030300F06780083AC0F0088051F8043BE6
:100B3000083A51F804CBA0E80810F5E7121D5CBF95
:100B400051F8043B40F8043BAFF30080D20724BFC8
:100B500011F8013B11F801CB48BF11F8012B24BF5C
:100B600000F8013B00F801CB48BF00F8012B7047AB
:100B7000431A28BF9A427FF6B6AF032A10441144A5
:100B800040F2268010F0030F1EBF11F8013D521EE7
:100B900000F8013D10F0030F7FF4F6AF11F00303EE
:100BA00000F06D80083AC0F00B8051F8043D083A1F
:100BB00051F804CD40F8043D40F804CDFFF7F3BFF1
:100BC000121D5CBF51F8043D40F8043DAFF30080B6
:100BD000D20724BF11F8013D11F801CD48BF11F82B
:100BE000012C24BF00F8013D00F801CD48BF00F8FA
:100BF000012C704710B5203AC0F00B80B1E81850B6
:100C0000203AA0E81850B1E81850A0E81850BFF4F6
:100C1000F5AF5FEA027C24BFB1E81850A0E8185095
:100C200044BF18C918C0BDE810405FEA827C24BFE9
:100C300051F8043B40F8043B08BF7047D20728BF77
:100C400031F8023B48BF11F8012B28BF20F8023BC6
:100C500048BF00F8012B7047431A28BF9A427FF61D
:100C6000C9AF104410F0030F11441EBF11F8013D2D
:100C7000521E00F8013D10F0030F7FF4F6AF103A5A
:100C8000C0F00A8010B531E91850103A20E9185028
:100C9000BFF4F9AFBDE81040530724BF31E9081095
:100CA00020E9081044BF51F8043D40F8043D12F01B
:100CB000030F08BF7047D20728BF31F8023D48BF75
:100CC00011F8012C28BF20F8023D48BF00F8012C84
:100CD000704702F0FF0343EA032242EA024200F0B7
:100CE00002B84FF000020429C0F0128010F0030C8B
:100CF00000F01B80CCF1040CBCF1020F18BF00F80F
:100D0000012BA8BF20F8022BA1EB0C0100F00DB8BD
:100D10005FEAC17C24BF00F8012B00F8012B48BF1B
:100D200000F8012B70474FF0000200B513469446BF
:100D30009646203922BFA0E80C50A0E80C50B1F133
:100D40002001BFF4F7AF090728BFA0E80C5048BF47
:100D50000CC05DF804EB890028BF40F8042B08BFE5
:100D6000704748BF20F8022B11F0804F18BF00F8E1
:100D7000012B70474FF0013C50F8042B51F8043B15
:100D80009A4221D1A2EB0C03934313EACC1317D15F
:100D900050F8042B51F8043B9A4215D1A2EB0C03F6
:100DA000934313EACC130BD150F8042B51F8043BB6
:100DB0009A4209D1A2EB0C03934313EACC13DBD084
:100DC0004FF00000704700BFD01A01BAB1FA81F1AC
:100DD00001F0180122FA01F0CB40C1F12001DBB291
:100DE000C0B2C01A2CFA01F3D11A914311EAC3110F
:100DF000E6D1704770477047704700000048704761
:100E0000248A0020004870473C8A00200048704730
:100E10001C8A0020704770477047704738B50446F9
:100E20000A4600206946AFF30080002808BF38BD9D
:100E300002460099204600F0EDF9012038BD01205E
:100E400000F0DBBAF8B5AFF30080054600200C4691
:100E5000102000BF0646A819A0420DD932466946A7
:100E60000020AFF30080070008BF00F0C6FA00982A
:100E7000A04218BF0546C419FFF7C0FF056007462A
:100E8000F01D20F007004619284600F00AF8B44289
:100E900008BFF8BDA21B31463868BDE8F84000F035
:100EA000B9B900210160C0E90110704710207047F6
:100EB0002DE9F0470D4699469246044600F1240874
:100EC0000168880604D5E06921F01001216000E086
:100ED0000120A84201DD471B00E00027A1697A1923
:100EE00002EB0900081AA0612078C00602D420464F
:100EF000FFF778FB002608E0D4E901211AF8060084
:100F00009047206A401C761C20624E45F4DB207816
:100F1000C0060AD52046FFF765FB06E0D4E90121AB
:100F200030209047206A401C2062381EA7F101073C
:100F3000F4DC07E0D4E9012118F805009047206AA5
:100F4000401C2062281EA5F10105F3DC2046FFF7B6
:100F50005FFB2078000602D50220BDE8F087012063
:100F6000FBE7000001694A1C02610878704700B580
:100F70008FB0CDE901310021059105497944CDE9D2
:100F8000031011466846FFF7E5FB0FB000BD0000F7
:100F9000E5FFFFFF0A6802F8010B0A60704710B511
:100FA000436913B1AFF3008001E0FFF742FB01207A
:100FB00010BD127800F124010A7000224A7001224B
:100FC000EDE711684FF0FF32E9E70000074B70B51D
:100FD0000D467B44FFF7CBFF0446284600F042F95C
:100FE00010B14FF0FF3070BD204670BD9F830000F0
:100FF0002DE9F05F824615468B4600270AF1010471
:10100000B9460078302801D09DB113E014F8010BE7
:101010000127782803D0582801D045B10AE00DB146
:10102000102D07D1002714F8010B102502E0082528
:1010300000E00A250026B0460EE005FB080005FB8F
:1010400006F101271FFA80F801EB1046B6F5803F44
:1010500000D3B94614F8010B294600F0F5F8002832
:10106000EBDABBF1000F05D00FB1641E00E054466F
:10107000CBF80040B9F1000F06D0FFF7C7FE022100
:101080000160C81EBDE8F09F48EA0640FAE700008C
:1010900010B542485421FFF746FE41485421FFF75E
:1010A00042FE40485421FFF73EFE3F493B483C4A40
:1010B0003F4B08603D490A603A491960531C03657B
:1010C000481C1065012008653B48344A39A1784422
:1010D00000F0F0F820B9384878440A3800F086F972
:1010E00037482F4A35A1784400F0E4F820B9344855
:1010F00078440A3800F07AF932482A4A2FA1784415
:1011000000F0D8F820B92F4878440A3800F06EF97A
:1011100040232248DC000021224600F0A7F820B13D
:1011200025487844543800F061F91D482246402390
:10113000002100F09BF820B121487844543800F099
:1011400055F9184822461023002100F08FF8002896
:1011500006D01C487844BDE81040563800F046B927
:1011600010BD104870B5006D20F001040B4800F070
:1011700017F90B4800F014F90A4800F011F909E0DA
:10118000206D20F00105204600F00AF92046FFF707
:101190004EF92C46002CF3D170BD0000748900205C
:1011A00028D00120C889002024C701207800002011
:1011B00028C7012072000000CE270200770000003F
:1011C000BD270200AD2702002DE9F04115460E466D
:1011D000040002D12C6804B90BA4204600F024F9C5
:1011E0000444207870B127463146384600F00CF9A7
:1011F0000444207810B1002004F8010B38462C601C
:10120000BDE8F0810027F9E70000000000487047C2
:101210001C8A0020034640688C46002818BF88427C
:101220003CBF03464068F8D318681844884207D08A
:101230000CF1030020F00700001D411A521A01466C
:10124000081D0A60FFF7F3B83A2800D2303820F0C2
:101250002002412A01D3A2F13700884201D34FF086
:10126000FF307047007B00F08000704770B5C468A5
:10127000A50713D0650211D4B2F5807F09D0B2F56D
:10128000007F06D0B2F5806F08D1012300F1240160
:1012900006E05D1E6FF07F46B54201D3012070BDB0
:1012A0000161C361416024F470611143C160002099
:1012B00070BD00002DE9F0410C4607461646104669
:1012C00000F06EF82078611C61280AD0722802D0E4
:1012D00077283CD102E00125002405E00225042402
:1012E00002E0082448F2020511F8010B2B2806D071
:1012F000622809D011F8010C74280AD00BE045F0DF
:10130000030544F00204EFE745F0040544F001044E
:10131000EAE744F010043846214602F0E5FE411C9D
:1013200015D00021316171604FF40071F560F161F9
:101330007061200704D530460222002100F0A8F891
:10134000306D40F0010030653046BDE8F08100208E
:10135000FBE72DE9F0410D460646104C206DC10714
:1013600004D0410804D020F00104F7E722460EE043
:101370005420FFF72DF807000ED0206D47F0010133
:101380000843542120653846FFF7CDFC3A462946EC
:101390003046BDE8F0418DE70020D6E77489002093
:1013A0002DE9F04704464FF000094FF0FF37C568BC
:1013B000D4E90486A80707D0204600F019F9304682
:1013C00002F073FE002802DA3846BDE8F0872805EF
:1013D00002D54046FFF72BF84C212046FFF7A3FC2F
:1013E000206D20F0010020654846EEE710B500F0C2
:1013F00051F9BDE8104000F048B910B500F064F9AB
:10140000BDE8104000F041B930B503461D781DB16C
:101410000A4603E0AC4201D1181A30BD12F8014B64
:10142000002CF7D15B1CF1E730B503461D783DB1C8
:101430000A4612F8014B1CB1AC42FAD15B1CF5E72D
:10144000181A30BD70477546FFF7E0FEAE4605003E
:101450006946534620F00700854618B020B5FEF7D0
:101460009DFFBDE820404FF000064FF000074FF011
:1014700000084FF0000B21F00701AC46ACE8C009B2
:10148000ACE8C009ACE8C009ACE8C0098D467047BB
:101490002DE9F041044616460D464769007B80075A
:1014A0002ED0384602F013FE50BB3EB3012E02D0C0
:1014B000022E25D104E0204600F034F905441DE059
:1014C000384602F0FEFDE168002841F01001E160BD
:1014D00005DA204600F058F80120BDE8F081C90384
:1014E0000BD56268E16A914200D81146A2691144A5
:1014F0002269891A814200DD08460544002D01DA7F
:101500000220EAE7E16A6068E268814206D291035C
:10151000E06203D522F4003141F01002A6690027F1
:10152000AE4213DCE16A814201D90B4600E003467A
:1015300003EB060C2369ACEB030CAC4506DD8142E2
:1015400001D98C4600E084469C4505D1A760276000
:1015500042F02000A5620DE0AD1BE669AE1B8142A2
:10156000A66000D90846C01A281A20605819606081
:1015700022F0200003490840E060002084F8487011
:10158000ABE70000BFCFD7FFC16821F4001141F0E5
:101590008001C16000218160016070472DE9F04742
:1015A000814614460E464FF0FF383248D5685769D9
:1015B000054209D03846A16902F0C4FD002811DBBC
:1015C0002C48C0430540E5602B4632464946384624
:1015D00002F0BBFDA16920F00042B21A11440028BC
:1015E000A16103D02046FFF7CFFF4046BDE8F0875A
:1015F00070B504460569C06A6168884200D808462B
:10160000E16821F42011E160C90312D5A84208D095
:101610002246411B2846FFF7C1FF10B14FF0FF30B3
:1016200070BD0020E562C4E90150E06820F480301C
:10163000E060002070BD10B50446C06820F02000B6
:10164000E060A16AA06988420DD02046FFF7D0FF74
:10165000E06820F4405040F01000E060A06AA06113
:101660002069E062606044F24001E0688843E06025
:1016700010BD00001000020010B50446AFF300805A
:101680002046BDE81040FEF715BE002801D000F04E
:1016900043B8704710B5014602A000F064F801207D
:1016A00010BD000053494752545245443A205265F8
:1016B0006469726563743A2063616E2774206F7089
:1016C000656E3A200000000010B5012805D0002109
:1016D00003A000F048F8012010BD09A1F8E70000C0
:1016E00053494752544D454D3A204F7574206F660B
:1016F0002068656170206D656D6F72790000000073
:101700003A2048656170206D656D6F727920636F56
:10171000727275707465640001491820ABBEFEE7F3
:101720002600020010B50146C268900703D090065B
:1017300007D5886A0AE0FFF769FB01210160881E6E
:1017400010BD8B69486818440B69C01A91F848307D
:101750001BB191F84910401A10BD1103FCD50028A7
:10176000FADD401E10BD70B505460C460A2000E0AB
:101770006D1C00F011F835B128780028F8D102E08E
:10178000641C00F009F814B120780028F8D1BDE8F5
:1017900070400A20AFF3008008B569468DF800005C
:1017A0000320ABBE08BDFEE710B50C4A002100BF08
:1017B00001EB810303EBC11332F82340844205D1CE
:1017C00002EB830393F80832012B04D0491CC9B201
:1017D0000329EDD310BD012010BD000000C0012081
:1017E000704700002DE9F04F4FF0000989B0064620
:1017F0004F46308843BA07EB870000EBC7127E489C
:1018000030F8221099427DD109F1010101F0FF0960
:10181000B178089100EB8204F17884F80412B18861
:1018200049BA09B2002901DD012500E00025009533
:10183000642591FBF5FC0FFA8CFCCDF818C01CFB5D
:1018400005FC91FBFCF80CFB181BF18849BA09B2A6
:1018500091FBF5FC0FFA8CFA1AFB05FC91FBFCF8E6
:101860000CFB181107913189804649BA059171899D
:1018700096F80CC049BA090441EA0C2196F80DC04B
:1018800041EA0C010491F18949BAB1FBF5F10391E8
:10189000318A022549BA0291718A05EB820549BA5B
:1018A00001910021A4F802127B214155B4F80202F3
:1018B00052A2401C80B2A4F802024044284451A124
:1018C00004F20224FEF778FE218852A2084480B276
:1018D00020804044284450A1089BFEF76DFE2188DB
:1018E00050A2084480B2208040442844A3784AA1F2
:1018F000FEF762FE2188084480B22080A4F2022410
:10190000009900E06EE04044069B2844CDF800B00A
:1019100046A209B147A100E049A1FEF74DFEB4F887
:10192000021253460844A4F8020207980090B4F843
:10193000021247A201EB080028443EA104F202244F
:10194000FEF73AFE218843A2084480B2208040443A
:10195000284431A1059BFEF72FFE21883EA20844B2
:1019600080B22080404428443CA1049BFEF724FE22
:1019700021883DA2084480B220804044284426A10A
:10198000039BFEF719FE218839A2084480B220800B
:101990004044284420A1029BFEF70EFE218835A278
:1019A000084480B22080404428441BA1019BFEF7DC
:1019B00003FE218830A2084480B22080404428449D
:1019C0002FA1FEF7F9FD21887D22084480B22080F6
:1019D000404442552088401C20800020C4F80A0062
:1019E0000120A0717F1CFFB2032FFFF402AF09B0EA
:1019F0004846BDE8F08F000000C001206E616D65B3
:101A000000000000222573223A224E6F646525648F
:101A1000222C000042617400222573223A25642C96
:101A200000000000525353490000000054656D70DF
:101A300000000000222573223A25642E25642C0024
:101A4000222573223A2D25642E25642C00000000E7
:101A500048756D0050727300414C5300222573226B
:101A60003A25752C00000000504D32350000000072
:101A700057530000574400005261696E0000000097
:101A8000222573223A3000002DE9F041154D002443
:101A90006F69154EF8074FF001080AD0C5F8148099
:101AA00070680068002804DB306854300CF073FE66
:101AB0000446780608D54020686131680B48C1F8B3
:101AC00058800CF068FE04434FF480306861002CAD
:101AD00006D0074900030860BFF34F8FBFF36F8F35
:101AE000BDE8F081009002403C000020940A0020F4
:101AF00004ED00E02DE9F0410446876D00F066F941
:101B0000064694F835000025022806D0802060653E
:101B100084F834500120BDE8F0812068016821F08C
:101B2000160101602068416921F080014161206C4B
:101B300008B9A06C20B12068016821F0080101609B
:101B40002068016821F0010101600CE000F03EF91D
:101B5000801B052807D920206065032084F8350004
:101B600084F83450D7E720680068C007EED194F8B5
:101B70005C103F208840B860012084F8350084F86C
:101B800034500020C7E790F83510022903D0802197
:101B9000416501207047052180F835100068016813
:101BA00021F00101016000207047000070B504467B
:101BB00000F00CF90546601C02D00448007804448B
:101BC00000F004F9401BA042FAD370BD24000020AD
:101BD0002DE9F84FDFF8BCA10022012503264FF0C4
:101BE0000F090AF1040BAAF1040E00BF0B6805FAF5
:101BF00002F42340A34270D10F7907F00307012FAD
:101C000001D0022F16D187684FEA420806FA08FC75
:101C100027EA0C07D1F80CC00CFA08FC4CEA070CB8
:101C2000C0F808C04768A7430C79C4F30014944077
:101C30003C4344600C79E443A4070AD0C4684FEAEB
:101C4000420C06FA0CF7BC438F6807FA0CF72743DF
:101C5000C7600C7904F00304022C12D1D40800EB05
:101C6000840CDCF820405707FF0E09FA07F824EA35
:101C70000804D1F8108008FA07F848EA0408CCF8FC
:101C8000208004684FEA420C06FA0CF7BC430F7937
:101C900007F0030707FA0CF7274307604C6814F4B2
:101CA000403F70D03C4C276847F480472760246849
:101CB00022F0030704F480440094384C07EB040C32
:101CC000DCF8084897074FEA177809FA08F7BC4389
:101CD000334FB84202D1002724E054E0314FB842DC
:101CE00001D101271EE0304FB84201D1022719E08F
:101CF0002E4FB84201D1032714E02D4FB84201D135
:101D000004270FE02B4FB84201D105270AE02A4FE4
:101D1000B84201D1062705E0284FB84201D1072774
:101D200000E0082707FA08F72743CCF80878DAF824
:101D300000405746D1F804C09C435FEACC2C00D544
:101D40001C433C60DBF800405F46D1F804C09C4374
:101D50005FEA8C2C00D51C433C60DEF800407746DF
:101D6000D1F804C09C435FEA8C3C00D51C433C6026
:101D7000084F083F3C68D1F804C09C435FEACC3C64
:101D800000D51C433C60521C102AFFF42FAFBDE865
:101D9000F88F0000083C0140443802400030014008
:101DA000000002400004024000080240000C024013
:101DB000001002400014024000180240001C0240C3
:101DC0000AB1816170470904FBE70000014880689F
:101DD000704700002400002070B5040025D094F85E
:101DE0003D00002520B984F83C50204600F050F911
:101DF000242084F83D002068016821F00101016081
:101E00002068016841F4004101602068016821F404
:101E10000041016000F016FB4D4A6168914201D813
:101E20004C4900E04C49884201D2012070BD4B4929
:101E30002368B0FBF1F15E6826F03F060E435E605A
:101E40006368934206D94FF4967359434FF47A73FB
:101E5000B1FBF3F12368491C1E6A26F03F063143AB
:101E600019626168914210D84900401EB0FBF1F23E
:101E7000521CC2F30B02042A01D2042022E0B0FB60
:101E8000F1F0401CC0F30B001CE0A268F2B301EBC0
:101E9000C10303EB0116431EB3FBF6F35B1C43F4D3
:101EA00080431B0549D092B301EBC10202EB011143
:101EB000401EB0FBF1F0401CC0F30B0040F480402A
:101EC00040F400402168CA694CF6FF739A431043FE
:101ED000C861D4E9071001432068026822F0C002FB
:101EE00011430160D4E9030101432068826848F28C
:101EF000FF339A4311438160D4E905010843216807
:101F0000CA6822F0FF021043C86001E00EE016E04C
:101F10002068016841F0010101602564202084F8F7
:101F20003D00256384F83E50002070BD01EB410662
:101F3000431EB3FBF6F35B1CB3E70120C2E701EBE2
:101F40004101401EB0FBF1F0401CC0F30B00B7E7AD
:101F5000A086010080841E0000093D0040420F0061
:101F60002DE9FF4F83B09A46DDE911979346044669
:101F7000DDF84080FFF72AFF054694F83D00202851
:101F80007FD11923012240492046009501F0A0F994
:101F9000002876D194F83C00012872D0012084F802
:101FA0003C0020680168C90703D1016841F00101C4
:101FB00001602068016821F400610160212084F83B
:101FC0003D00402084F83E0000262664C4F82480AA
:101FD000A4F82A90608D20852C48E062CDE9007538
:101FE00053465A462046049901F0F8F870B930E09B
:101FF0002A463946204601F0EAF958B1206C0428F7
:1020000004D12068016841F400710160012007B02B
:10201000BDE8F08F606A216800780861606A401C42
:102020006062218D491E89B22185628D521E6285B2
:1020300022685369DB435B070BD469B100781061F8
:10204000606A401C6062208D401E2085608D401EAD
:102050006085208D0028CBD12A463946204601F0E4
:1020600011F90028CAD154F83D0B016841F4007100
:102070000160202004F81E09E67766770020C6E795
:10208000FFE70220C3E70000020010000000FFFF8E
:1020900010B586B0044614216846FEF744FE134985
:1020A0002068884220D112480021026842F00202D2
:1020B0000260006800F002000590C020009012202D
:1020C000CDE90101032003900420049069460948EA
:1020D000FFF77EFD06481030016841F400110160F1
:1020E000006800F40010059006B010BD00540040D8
:1020F000303802400004024070B5040011D021685D
:102100004CF6CC400860216845F255500860D4E98F
:10211000000141602168A0688860FFF757FE05460E
:102120000DE0012070BD00BFFFF750FE401B3128BD
:1021300005D92068C068800701D0032070BD2068E1
:10214000C0688007F0D121684AF6AA200860002004
:1021500070BD00684AF6AA210160002070470000A7
:102160000248816802781144816070472400002091
:102170000B4810B5016841F400710160016841F439
:1021800080610160016841F480710160032000F00A
:102190008DF80F2000F006F800F03EF8002010BD8A
:1021A000003C024010B5014688B00022362000F005
:1021B0005DF8362000F04CF813480024016841F027
:1021C00010010160006805A900F010000690684643
:1021D00000F018F900F036F90C494000B0FBF1F1BD
:1021E0000C480B4A491E026040F2E732C0E9032462
:1021F000C0E9011400F00AFC10B1012008B010BDC4
:10220000044800F061FCF9E74038024040420F000A
:1022100000100040180900200C4882B0016841F409
:1022200080410160006800F4804000900748001F72
:10223000016841F0805101600068002200F0805088
:1022400000900F21901E02B000F010B844380240F8
:10225000002809DB00F01F020121914040098000A5
:1022600000F1E020C0F8001170470000F0B40E4B00
:102270001B680C46C3F30223C3F10705042D00D9E4
:102280000425191D072901D2002300E0DB1E0126C9
:1022900006FA05F1491E214099409E40761E1640DF
:1022A0003143F0BC01F0EABE0CED00E0064900F05D
:1022B000070208684FF6FF03184040EA0220034A6D
:1022C00010430860704700000CED00E00000FA05C4
:1022D0002DE9F0470E46050065D0DFF81481D8F8E7
:1022E0000000F7B200F00700B04207D288F8007093
:1022F000D8F8000000F00700B04254D128683D4CE7
:10230000810712D5400703D5206840F4E0502060D3
:102310002878000703D5206840F4604020602068DA
:10232000A96820F0F000084320602878C0072DD06D
:10233000304968680839012812D0022813D00328D0
:1023400011D00968890700292DDA216821F00301DD
:1023500001432160FFF73AFD814641F2883A0EE0E1
:1023600009688903EFE709688901ECE7FFF72EFDAB
:10237000A0EB0901514502D90320BDE8F087206890
:10238000696800F00C00B0EB810FEFD1D8F80010B5
:10239000404601F00701B14207D90770006800F01C
:1023A0000700B04201D00120E7E72878400705D5B3
:1023B0002068E96820F4E05008432060287800078E
:1023C00006D52068296920F4604040EAC1002060F9
:1023D00000F058F82168084AC1F30311515CC84065
:1023E0000649086006480068FFF7DCFE0020C4E7E5
:1023F000003C0240083802401C1602089CC601201E
:10240000280000200F2202600C4A136803F0030327
:102410004360136803F0F0038360136803F4E05330
:10242000C36012684FF4E05303EAD2020261044829
:10243000006800F00700086070470000083802409C
:10244000003C02400448054900680968044AC1F399
:102450008221515CC84070479CC601200838024068
:102460002C1602080448054900680968044AC1F3AB
:102470004231515CC84070479CC601200838024078
:102480002C160208154810B5006810F00C0214480C
:1024900013D01449042A0FD0082A0ED10F4C241F40
:1024A0002268236802F03F025B0207D52068C0F370
:1024B0008810A0FB010106E0084610BD2168C1F3A9
:1024C0008811A1FB00010023FDF7D8FF2168C1F3AB
:1024D0000141491C4900B0FBF1F010BD0838024031
:1024E0000024F40040787D012DE9F84F04006ED0FF
:1024F0002078DFF84C93C007A9F104054AD009F110
:1025000004000168C1F38101012908D00068C0F30B
:10251000810002280AD1D9F80000400206D52868B7
:10252000800337D560680028E1D033E06068B0F5FB
:10253000803F10D0B0F5A02F286810D020F4803054
:102540002860286820F4802028606068A8B1FFF720
:102550003DFC06460DE0286840F48030F4E740F486
:1025600080202860F7E700BFFFF730FC801B64285D
:1025700073D828688003F7D50CE0FFF727FC0646E0
:1025800005E000BFFFF722FC801B6428F0D8286814
:102590008003F7D42078DFF8AC8280074FF0000A80
:1025A0003ED5A748001D016811F00C0F08D0006847
:1025B000C0F3810002280BD1D9F80000400207D4F3
:1025C0002868800716D5E068012800D112E033E1C1
:1025D000E068B8B10120C8F80000FFF7F7FB064635
:1025E00005E000BFFFF7F2FB801B0228C0D8286877
:1025F0008007F7D52868216920F0F80040EAC1007B
:1026000028600DE0C8F800A0FFF7E0FB064604E0F4
:10261000FFF7DCFB801B02281FD828688007F7D44F
:102620002078000722D5864F87486169703771B1DD
:1026300001210160FFF7CAFB064604E0FFF7C6FB75
:10264000801B022809D838688007F7D50EE0C0F84B
:1026500000A0FFF7BBFB064605E082E0FFF7B6FBF4
:10266000801B02287DD838688007F7D4207840077F
:1026700068D5DFF8CCB100270BF13C0BDBF800008C
:10268000C0000BD4DBF8001041F08051CBF80010F3
:10269000DBF80000012700F0805000906B4E30689E
:1026A000C00510D4306840F480703060FFF78EFBB6
:1026B000009005E0FFF78AFB0099401A022850D8E5
:1026C0003068C005F6D55E4EA0686C3601280FD084
:1026D0000528306810D020F001003060306820F00C
:1026E00004003060A068B8B1FFF770FB00900FE005
:1026F000306840F00100F4E740F004003060F7E794
:10270000FFF764FB0099411A41F28830814266D894
:1027100030688007F4D50EE0FFF758FB009007E023
:10272000FFF754FB0099411A41F28830814256D894
:1027300030688007F4D42FB1DBF8001021F080510D
:10274000CBF80010A069C8B33D49091D0968C1F361
:10275000810102294AD00228504607D0C8F86000FB
:1027600000E03CE0FFF732FB04463BE04746C8F898
:102770006000FFF72BFB064605E000BFFFF726FBD6
:10278000801B02282BD828688001F7D4D4E90701E0
:102790000843A16A2E4A490802EB0141626A41EAF4
:1027A0008211084394F82C1040EA0161C9F8001026
:1027B00001203866FFF70AFB044606E03EE000BF52
:1027C000FFF704FB001B022809D828688001F7D511
:1027D00034E000BFFFF7FAFA001B022802D90320F9
:1027E000BDE8F88F28688001F4D427E00128F7D0ED
:1027F000D9F80000E26900F4800191421CD1226AFC
:1028000000F03F01914217D147F6C071626A014062
:10281000B1EB821F10D1A26A4FF0FF3300F44031B8
:1028200003EB5202B1EB024F06D194F82C1000F0EA
:102830007060B0EB016F01D00120D1E70020CFE73D
:102840000438024000004742800E474200700040BA
:102850000000FFFF10B5040011D02068016821F0CE
:102860000C0101602068416821F060014160204650
:1028700000F060F800206071A060207110BD0120A0
:1028800010BD00002DE9F0470446007900278A4674
:1028900001280ED00125257160794FF0000901282B
:1028A00009D00420A060012784F804903846BDE8D0
:1028B000F0870220FBE74FF0020884F80580FFF75D
:1028C00085FA064611E000BFFFF780FA801B022858
:1028D0000BD920684068C043C00706D06571C4F8B2
:1028E000088084F804900120E1E720684068C04334
:1028F000C007E9D120688068E060CAF8000065710F
:10290000D2E770B5040003D06079002510B105E06E
:10291000012070BD2571204600F01AF80220607178
:102920002068016841F00401016001206071A56028
:10293000002070BD00680449884204D10348016842
:1029400021F0400101607047000806503438024011
:1029500008B500680649884208D10648016841F078
:1029600040010160006800F04000009008BD0000D8
:1029700000080650343802407047704770B590F830
:102980003C20012A32D0012480F83C40022280F809
:102990003D2003685A689D6822F070060A68324339
:1029A0005A60134B02689A4214D0B2F1804F11D092
:1029B000104B9A420ED0104B9A420BD00F4B9A42BA
:1029C00008D00F4B9A4205D00E4B9A4202D00E4BC4
:1029D0009A4204D1496825F080031943916080F838
:1029E0003D40002180F83C10084670BD022070BDBB
:1029F000000001400004004000080040000C0040BE
:102A000000040140004001400018004010B50400DF
:102A100003D094F83D0010B107E0012010BD002064
:102A200084F83C00204600F01FF8022084F83D00A6
:102A3000211D206801F0F4F8012084F8460084F894
:102A40003E0084F83F0084F8400084F8410084F898
:102A5000420084F8430084F8440084F8450084F878
:102A60003D00002010BD000008B501681448B1F118
:102A7000804F14D0134A914220D1016841F00801DF
:102A800001600068002200F008000090052132205B
:102A9000FFF7ECFB3220BDE80840FFF7D9BB016827
:102AA00041F0010101600068002200F00100009087
:102AB00005211C20FFF7DAFB1C20ECE708BD000015
:102AC00040380240000C004090F83D10012901D030
:102AD00001207047022180F83D100168CA6842F069
:102AE0000102CA6000681149884214D0B0F1804FD9
:102AF00011D00F4988420ED00E4988420BD00E49A2
:102B0000884208D00D49884205D00D49884202D03C
:102B10000C49884204D1816801F00701062903D0DD
:102B2000016841F001010160002070470000014090
:102B30000004004000080040000C00400004014078
:102B4000004001400018004070B5044690F83C0079
:102B50000025012817D0012684F83C60022084F863
:102B60003D002068826822F0770222F47F42826072
:102B70000868502838D00DDC20284FD005DC90B3F1
:102B8000102811D14AE0022070BD302846D04028DC
:102B90000AD13BE060282FD070280DD0B0F5805FBF
:102BA00003D0B0F5005F12D0012584F83D6000200D
:102BB00084F83C00284670BDCB68D1E9012120682B
:102BC00001F092F82068816841F0770109E0CB6854
:102BD000D1E90121206801F087F82068816841F47B
:102BE00080418160E1E719E0CA684968206801F026
:102BF0008DF85021206806E0CA684968206801F015
:102C000096F86021206801F079F8CEE7CA68496833
:102C1000206801F07BF840212068F4E72268014633
:102C20001046F0E7704770B50446006801694FF040
:102C30000005C943890715D4C168C943890711D460
:102C4000E91E016101202077206880698007204605
:102C500002D0FFF7E7FF04E000F098F8204600F00C
:102C600096F8257720680169C943490717D4C168D8
:102C7000C943490713D46FF0040101610220207792
:102C80002068806910F4407F204602D0FFF7CAFF19
:102C900004E000F07BF8204600F079F82577206802
:102CA0000169C943090716D4C168C943090712D489
:102CB0006FF008010161042020772068C069800757
:102CC000204602D0FFF7AEFF04E000F05FF8204698
:102CD00000F05DF8257720680169C943C90617D45B
:102CE000C168C943C90613D46FF0100101610820FF
:102CF00020772068C06910F4407F204602D0FFF79B
:102D000091FF04E000F042F8204600F040F82577FB
:102D100020680169C943C90708D1C168C943C90707
:102D200004D1891E0161204600F032F82068016953
:102D3000C943090609D4C168C943090605D46FF01F
:102D4000800101612046FFF717FE20680169C94331
:102D5000490609D4C168C943490605D46FF040014A
:102D60000161204600F01EF820680169C943890608
:102D70000BD4C168C943890607D46FF020010161F3
:102D80002046BDE87040FFF7F8BD70BD7047704742
:102D900000680349884201D1FFF7E2B9704700009B
:102DA000001000407047704770470000F8B5016898
:102DB00004460868CA684B6910F00F0F4FF0000511
:102DC00059D003F0010602F49077374365D0C1076C
:102DD00005D0D10503D5216C41F0010121644107E3
:102DE00005D5D90703D0216C41F002012164810788
:102DF00005D5D90703D0216C41F0040121640107F6
:102E000007D502F02001314303D0216C41F00801C5
:102E10002164216C00293AD0800604D5900602D5A1
:102E2000204600F0C5FF20684069216CC0F3801087
:102E3000090700D460B3204600F093FF2068406982
:102E4000400621D52068143050E8001F21F04001D1
:102E500040E80012002AF5D1A06BA8B16C490165C9
:102E6000A06BFEF790FE002811D0A06B016D01B0A1
:102E7000BDE8F040084783060FD593060DD52046E0
:102E8000BDE8F84000F094BF2046FFF78DFFF8BD85
:102E90002046FFF789FF2564F8BD266B2023012E0D
:102EA00079D1C60677D5D60675D5086848680090EA
:102EB0004869400640D5A16B086840680004000CD2
:102EC000EAD0A28D8242E7D9E085C869B0F5807F5B
:102ED0002DD020680C3050E8001F21F4807140E8AC
:102EE0000012002AF5D12068143050E8001F21F0AC
:102EF000010140E80012002AF5D12068143050E8A2
:102F0000001F21F0400140E80012002AF5D184F8AA
:102F10003E30256320680C3050E8001F21F010017E
:102F200040E80012002AF5D1A06BFEF7E3FDA08D6A
:102F3000E18D401A81B229E0A08DE18D401A81B265
:102F4000E08D0028A8D00029A6D020680C3050E8D9
:102F5000002F22F4907240E80026002EF5D1206860
:102F6000143050E8002F22F0010240E80026002E25
:102F7000F5D184F83E30256320680C3050E8002FEE
:102F800022F0100240E80023002BF5D12046FFF785
:102F90000AFFF8BDFFE705062BD5150629D594F8DD
:102FA0003D002128F5D1A068B0F5805F01D12069EE
:102FB000B0B1206A411C2162216800784860E08C31
:102FC000401E0004000CE084E3D12068C16821F0B9
:102FD0008001C1602068C16841F04001C160D8E74C
:102FE000206A0088C0F308004860206A801C2062C4
:102FF000E5E74006CDD55006CBD5CA68204622F07D
:103000004002CA6084F83D3000F0CFF8C1E700000C
:10301000533D000870B5040004D094F83D0000252D
:1030200010B106E0012070BD84F83C50204600F04D
:1030300023F8242084F83D002068C16821F4005161
:10304000C160204600F014FF2068016921F490411E
:1030500001612068416921F02A0141612068C1684D
:1030600041F40051C1602564202084F83D0084F8BB
:103070003E00002070BD000010B586B0044614214B
:103080006846FDF750FE18492068884229D1174844
:103090000021026842F480220260006800F480206F
:1030A000059012481038026842F008020260006879
:1030B00000F0080005904FF4407000900220CDE928
:1030C0000101032003900720049069460848FEF799
:1030D0007FFD002205212720FFF7C8F82720FFF7F2
:1030E000B7F806B010BD000000480040403802406C
:1030F000000C0240704700002DE9F843044690F8A8
:103100003D001F4616460D4620284CD1C5B1BEB124
:1031100094F83C00012846D0012084F83C004FF090
:103120000008C4F84080212084F83D00FEF74EFEE0
:10313000A6848146E684A068B0F5805F03D004E0F1
:103140000120BDE8F883206928B12E465FF0000514
:1031500084F83C800EE00026FAE78021204600F04B
:103160000DFFA0B9AEB116F8010B21684860E08CE4
:10317000401EE084E08C4B464FF000020097002890
:10318000EBD14FF04001204600F0F8FE30B10320B3
:10319000D7E735F8020BC0F30800E6E7202084F8F3
:1031A0003D000020CDE70220CBE77047FEE7016835
:1031B0004A69D24352050FD46FF480624A610021FC
:1031C00040F8301F202242738173026942F00402EA
:1031D0000261017301207047002070472DE9F84318
:1031E000044600680D46DDE90897016898461646D2
:1031F00041F4807101604B4600224FF001112046DE
:10320000009700F065F848B120680068C00502D555
:103210004FF4007020640320BDE8F883216805F0B6
:10322000FE0008613B464A461549204600F084F8F6
:1032300088B920684169806900903A46494620462D
:1032400000F0C5F848B1206C042804D1206801685A
:1032500041F4007101600120DEE7F5B2B8F1010F21
:1032600009D02168300A08613A464946204600F0F4
:10327000AEF80028E7D1206805610020CCE7000007
:103280000200010070B516460D4604460DE02046CA
:10329000FFF78DFF08B1012070BD681C05D0FEF757
:1032A00095FD801BA84207D835B120684069C0430E
:1032B0004007ECD4002070BD002044F8300F2021DE
:1032C0006173A073216941F0200121612073E2E75D
:1032D0002DE9F0471E4690460D460446C1F30747C8
:1032E000DDF8209008E0701C06D0FEF76FFDA0EB23
:1032F0000900B0420FD876B12068012F18D080693C
:1033000025EA00000004000C14D000214145EAD059
:103310000020BDE8F087002044F8300F20216173C1
:10332000A073216941F02001216120730120F0E7A1
:103330004069E5E70121E9E72DE9F0479A46914622
:103340000E46044600254FF02008C1F3074725E04C
:1033500020684069C043400514D42068016841F4E6
:103360000071016021686FF480604861256384F812
:103370003D8084F83E50206C40F00400206484F8C6
:103380003C501FE0B9F1FF3F08D0FEF71FFDA0EB56
:103390000A0149450CD8B9F1000F09D02068012F66
:1033A00013D0806926EA00000004000C0BD0CFE7A0
:1033B00044F8305F84F80D80A573206940F0200048
:1033C000206125730120BDE8F0874069EAE770B508
:1033D00016460D4604460DE02046FFF7E8FE08B10C
:1033E000012070BD681C05D0FEF7F0FC801BA842D0
:1033F00007D835B120684069C0430006ECD40020EE
:1034000070BD002044F8300F20216173A073216942
:1034100041F0200121612073E2E70000F0B50021B6
:103420000F4B0C4647F230554FF4007601EB81000C
:1034300000EBC11003EB8002002082F80842C2F8C2
:1034400010521718BF7847B1401C80B2B042F8D371
:10345000491C89B20329E9D3F0BDA2F80202F7E7BB
:1034600000C001202DE9F04387B014216846FDF724
:103470005AFC32480024016841F080010160016873
:1034800001F080010591016841F0010101600168CE
:1034900001F001010591016841F01001016001682E
:1034A00001F010010591016841F008010160016817
:1034B00001F008010591016841F002010160006816
:1034C0001F4F00F002000590002290213846FEF7C1
:1034D00077FCDFF8708042F2030600223146404656
:1034E000FEF76EFCDFF86090012208214846FEF7E7
:1034F00067FC00224FF404714846FEF761FC9020FF
:1035000000900125CDE90154694638460394FEF741
:103510005FFB0096CDE90154694640460394FEF7EF
:1035200057FB4FF406700090CDE9015469464846B8
:103530000394FEF74DFB07B0BDE8F083303802403E
:1035400000000240001002400004024010B586B0A6
:1035500000241748009401940294039404944FF0BB
:103560008041059401601021C0E901144FF47A7183
:10357000C0E9031480218161FFF748FA08B172B6EF
:10358000FEE74FF48050009069460948FFF7DCFAE7
:1035900008B172B6FEE7049404A905480594FFF744
:1035A000EDF9002801D072B6FEE706B010BD0000AC
:1035B000F000002010B586B0002417480094019454
:1035C0000294039404941349059401603C21C0E9DA
:1035D00001144FF47A71C0E903148461FFF716FAFD
:1035E00008B172B6FEE74FF48050009069460A4871
:1035F000FFF7AAFA08B172B6FEE7049404A90648D8
:103600000594FFF7BBF9002801D072B6FEE706B0BB
:1036100010BD0000000C0040380100202DE9F041F1
:10362000BAB000200EF04EFCFEF7D0FB0646782222
:103630004F496846FDF7DEFA002102200EF0C0FC7B
:103640004CA250A11EA8FCF7B7FF504D01231EA8A5
:10365000D5E900120EF054FD0A2102200EF0B0FC54
:1036600040F6B8334AA24EA11EA8FCF7A5FFD5E943
:10367000001201231EA80EF043FD142102200EF0BB
:103680009FFC494C94F80802012857D0228847A192
:103690001EA8FCF791FFD5E9001201231EA80EF029
:1036A0002FFD1E2102200EF08BFC94F81C04012833
:1036B0004CD0B4F814223DA11EA8FCF77DFFD5E93B
:1036C000001201231EA80EF01BFD282102200EF07F
:1036D00077FC94F83006012841D0B4F8282433A1AF
:1036E0001EA8FCF769FFD5E9001201231EA80EF001
:1036F00007FDE84642F21074382102200EF060FC0B
:10370000D5E90012012368460EF0FAFC0EF06AFCBF
:103710009DF80070742208F101016846FDF728FA4F
:103720008DF87470FEF752FB074632200AF0FEFF58
:10373000B81BA042E0D33AB0BDE8F08194F804325F
:1037400022881FA11EA8FCF737FFA4E794F81834BD
:10375000B4F814221AA11EA8FCF72EFFAFE794F8C4
:103760002C36B4F8282416A11EA8FCF725FFBAE7CA
:10377000DC1402083139322E3136382E31342E31F4
:10378000393900004E3A25730000000044C601207C
:103790003139322E3136382E37302E313600000096
:1037A000533A25733A25640000C001204E6F6465CA
:1037B0002564203A204E4F20434152524945520041
:1037C0004E6F646525643A204F6E6C696E65202DDE
:1037D00025642064426D0000FEE7F0B5ADF5806D14
:1037E0004FF6FF7300246D4602E0065D2E55641C03
:1037F0008C42FAD300204AF201060AE02C5C6340B6
:103800000824DF074FEA530300D07340641EF8D149
:10381000401C8842F2D3180A107053700DF5806D69
:10382000F0BDFEE72DE9F0410F4606460024DFF823
:10383000688020E0305D4D281BD135196878452817
:1038400017D1A878432814D11349B5F80300891E6D
:1038500040BA0880C01D81B228460F4AFFF7BDFF5D
:1038600098F8001029B998F8010010B96879012872
:1038700005D0641CA4B2BC42DCD3BDE8F081BFF328
:103880004F8F06480168064A01F4E0611143016068
:10389000BFF34F8F00BFFDE7020000200CED00E0FA
:1038A0000400FA05FFF7BAFE01200AF03FFFF9E72E
:1038B00006F046FD0448FFF707F900BF1CF0DCF9ED
:1038C00001200AF033FFF9E73801002007480649D4
:1038D000416000214180FFF7A1FD00BF19F0DAF936
:1038E00001200AF023FFF9E7180500201C00002042
:1038F00010B5502080F31188BFF34F8FBFF36F8F47
:103900001CF08CFD18B104494FF080500860002075
:1039100080F3118810BD000004ED00E070B592B096
:1039200030216846FDF7FFF914210CA8FDF7FBF9DB
:103930001D480025016841F080510160006800F0D9
:10394000805011901948016841F48041016000687D
:10395000022400F480401190092000904FF4803040
:1039600001900120CDE9050480050F26CDE9070669
:103970009020CDE9090405200B906846FEF7B4FDC0
:1039800008B172B6FEE74FF4A050CDE90E50CDE974
:103990000C64109003210CA8FEF79AFC002801D0BB
:1039A00072B6FEE712B070BD4038024000700040B1
:1039B0000248016841F470010160704788ED00E041
:1039C000ADF5087D0025ADF808520621012081954E
:1039D0000EF04CF8060007D10AF0E6FE4FA154485D
:1039E000FCF7DFFD0AF0C7FE322130460EF010FA78
:1039F00038B10AF0D9FE4FA14D48FCF7D2FD0AF0CC
:103A0000BAFE83A952A006F07DFD502283A930465C
:103A10000DF074FF38B10AF0C7FE51A14448FCF71D
:103A2000C0FD0AF0A8FE012130460EF005F838B1BD
:103A30000AF0BAFE4FA13E48FCF7B3FD0AF09BFE28
:103A4000524C4FF480476078012817D082AA85A98C
:103A500030460DF0FEFE5FEA000819D04CA101A827
:103A6000FCF7AAFD01A8FCF7D4FF0246002301A938
:103A7000404600970EF042F9012060704FF48072CA
:103A800081AB41A9404600920EF060F860B113E0AE
:103A90000AF08AFE43A12648FCF783FD0AF06BFE7C
:103AA00060780128EAD025E00AF07EFE31A12048A6
:103AB000FCF777FD0AF05FFE8198D8B141AA42A1D8
:103AC00001A8FCF779FD01A8FCF7A3FF024600233B
:103AD00001A9404600970EF011F90AF065FE3DA1DC
:103AE0001348FCF75EFD0AF046FE819881B241A8BA
:103AF000FFF798FE40460FF089FB052802D008B179
:103B00000B2803D3657040460DF00AFF32200AF0FF
:103B100014FE3648FEF71DFB95E700002A2A2A45C9
:103B200052524F5220736F636B202A2A2A0D0A00CB
:103B3000C88900202A2A2A4552524F5220736574A0
:103B40002074696D656F7574202A2A2A0D0A000099
:103B50003139322E3136382E31342E313939000098
:103B60002A2A2A4552524F522062696E64202A2A1C
:103B70002A0D0A002A2A2A4552524F52204C6973B4
:103B800074656E202A2A2A0D0A0000000400002015
:103B90005374617274204D6173746572206E6F642A
:103BA000650D0A002A2A2A4572726F7220616363CA
:103BB000657074696E6720636F6E6E656374696F9C
:103BC0006E2A2A2A0D0A0000726563203D202573A3
:103BD0000D0A00002A2A2A4461746120696E636F0D
:103BE0006D6D696E67202A2A2A0D0A00D400002014
:103BF0000148FFF718B80000F000002010B51CF0D5
:103C00005FF800F003FABDE810400148FFF70BB879
:103C1000380100200148FFF706B80000180900200D
:103C2000F0B50268254C264D264E274F274B4FF006
:103C3000804CA04209D0604507D0A84205D0B042D0
:103C400003D0B84201D0984204D122F0700E4A68E5
:103C500042EA0E02A0421BD0604519D0A84217D0FC
:103C6000B04215D0B84213D0984211D0184DA84296
:103C70000ED0184DA8420BD0174DA84208D0174DB2
:103C8000A84205D0164DA84202D0164DA84203D135
:103C900022F44075CA682A434D6922F080022A4303
:103CA00002608A68C2620A688262A04201D09842B9
:103CB00001D10969016301214161F0BD00000140AA
:103CC0000004004000080040000C004000040140D7
:103CD00000400140004401400048014000180040FD
:103CE000001C00400020004010B5846842EA032216
:103CF00024F47F440A432243826010BD826822F08C
:103D000070020A4342F007018160704710B5036AF0
:103D1000046A24F001040462846924F0F00444EA93
:103D2000021423F00A020A438461026210BD10B536
:103D3000036A23F0100303628369046A23F4704367
:103D400043EA023224F0A00343EA011182610162D6
:103D500010BD10B5806B0021C185C184FFF724F828
:103D600010BD01680C3151E8002F22F4907241E837
:103D70000023002BF5D10168143151E8002F22F007
:103D8000010241E80023002BF5D1016B012909D183
:103D900001680C3151E8002F22F0100241E80023A5
:103DA000002BF5D1202180F83E10002101637047DF
:103DB00008B590F83E10222901D0022008BD826883
:103DC0004FF480539A4201D1016921B1816A9A422C
:103DD0001BD04AB10AE00268816A5268C2F3080245
:103DE0000A80816A891C08E0026972B1026852681F
:103DF00002F07F020A70816A491C8162C18D491EEE
:103E00000904090CC18503D019E002685268F1E782
:103E10000168CA6822F02002CA600168CA6822F4F8
:103E20008072CA6001684A6922F001024A61202159
:103E300080F83E10016B012903D0FFF75BF90020E9
:103E400008BD0021016301680C3151E8002F22F008
:103E5000100241E80023002BF5D101680A68D20660
:103E600002D50A6849680091818DFEF79CFFE6E75C
:103E700070B5044600680169E26821F440511143BD
:103E800001612169A068E26908436169114308433F
:103E90002168CA6849F20C639A430243CA602068E9
:103EA0004169A26921F4407111434161314920689F
:103EB000884202D03049884202D1FEF7D3FA01E0AD
:103EC000FEF7C0FAE2690023192164253226B2F513
:103ED000004F626828D0A0FB0101930F9200FCF70D
:103EE000CDFA0146B0FBF5F06FF01802504301EB3C
:103EF000800006EB0010B0FBF5F000F0F002B1FB23
:103F0000F5F002EB0012B1FBF5F06FF01803584327
:103F100001EB800006EB0010B0FBF5F000F00F00A5
:103F200021681044886070BDA0FB010192185B41BC
:103F3000FCF7A4FA0146B0FBF5F00201B1FBF5F085
:103F40006FF01803584301EB800006EBC000B0FB94
:103F5000F5F000F0F80002EB4002B1FBF5F0584339
:103F600001EB800006EBC000B0FBF5F000F00700AD
:103F7000D6E7000000100140001401402DE9F04197
:103F8000984617460E460446069D27E0681C25D035
:103F90002DB1FDF71BFFA0EB0800A8421ED9206839
:103FA0000C3050E8001F21F4D07140E80012002AC4
:103FB000F5D12068143050E8001F21F0010140E8DD
:103FC0000012002AF5D1202084F83D0084F83E003C
:103FD000002084F83C000320BDE8F08120680068E0
:103FE00036EA000004D00020B842CFD00020F3E72A
:103FF0000120F9E710B51BF0ADFEBDE81040014807
:10400000FEF7D4BE80010020FEE700001A4800221F
:1040100090F8081201290CD1D0F80C12491CC0F8F4
:104020000C12D0F81032994203D380F80822C0F85D
:104030000C2290F81C1401290CD1D0F82014491C32
:10404000C0F82014D0F82434994203D380F81C24FB
:10405000C0F8202490F8301601290CD1D0F834167D
:10406000491CC0F83416D0F83836994203D380F88A
:104070003026C0F83426704700C001200907090E19
:10408000002804DB00F1E02080F80014704700F005
:104090000F0000F1E02080F8141D704730380A2826
:1040A00001D201207047002070476FF40041401892
:1040B00004D0012803D0022801D008147047002042
:1040C00070476FF40041401800D0002070476FF433
:1040D0000041401805D0012802D0022801D000205C
:1040E000704701207047000070B504004FF0FF35A5
:1040F00011D020783A280ED10CA12046FCF73AFEC8
:1041000058B10CA12046FCF735FE48B10BA1204662
:10411000FCF730FE38B1284670BD48F2010070BD92
:1041200048F2020070BD48F2030070BD3A53544497
:10413000494E00003A5354444F5554003A535444A6
:10414000455252004FF0FF3070476FF40041411864
:104150004FF0FF300DD0012902D0022909D103E030
:1041600032B100BE521EFBE712B100BE521EFBE789
:10417000002070472DE9F04F8C780B888D7964F31F
:104180001F43CC788E7A43EA04648B888F7B65F377
:104190001F43CD7943EA05650B8966F31F43CE7A49
:1041A00043EA06668B89C97B67F31F43076843EAC6
:1041B000016100EB071CDCF8F4306340DCF8F840E8
:1041C0006C40DCF8FC507540DCF800614E407F1E0E
:1041D00067D0724903F0FF0CC6F3072851F82CC0D2
:1041E00051F828808CEA386CC5F3074851F82880CC
:1041F0008CEA384C4FEA146851F828808CEA382B46
:1042000004F0FF0C51F82C80C3F3072C51F82CC09C
:1042100088EA3C68C6F3074C51F82CC088EA3C4851
:104220004FEA156C51F82CC088EA3C2A05F0FF0CC7
:10423000C5F3072551F82C80C4F3072C51F82550FD
:1042400051F82CC0C4F3074488EA3C68C3F3074C18
:104250001B0E51F82CC051F8244088EA3C484FEA24
:10426000166CF6B251F82CC051F8266051F8233084
:1042700086EA356588EA3C2C85EA344400EB07166B
:1042800084EA332856F8F43F7F1E7468B568F668F0
:1042900083EA0B0384EA0A0485EA0C0586EA080629
:1042A00098D13F4951FA83F7C6F3072C3F7811F8AC
:1042B0000CC047EA0C27C5F3074C11F80CC047EABD
:1042C0000C4701EB146C9CF800C047EA0C6951FAEA
:1042D00084F7C3F3072C3F7811F80CC047EA0C278A
:1042E000C6F3074C11F80CC047EA0C4701EB156CFC
:1042F0009CF800C047EA0C6751FA85FCC4F3072814
:104300009CF800C011F808804CEA082CC3F3074859
:1043100011F808804CEA084C01EB166898F8008008
:104320004CEA086C51FA86F6C5F30725C4F3074436
:104330004D5D0C5D367801EB136146EA0525097881
:1043400045EA044444EA016450F8F41F4368856870
:10435000C06881EA0901604011700C0A54700C0CAD
:104360009470090E7B40D1701371190A5171190CA8
:104370009171190E85EA0C05D1711572290A5172D5
:10438000290C9172290ED1721073010A5173010C1C
:104390009173000ED073BDE8F08F00000820020872
:1043A000081B02082DE9F04F8C780B888D7964F397
:1043B0001F43CC788E7A43EA04648B888F7B65F345
:1043C0001F43CD79D0F8009043EA05650B8966F369
:1043D0001F43CE7A43EA06668B89C97B67F31F4386
:1043E00043EA01614368634084686C40C568754076
:1043F00006694E40012764E0714903F0FF0CC4F3E5
:10440000072851F82CC051F828808CEA386CC5F385
:10441000074851F828808CEA384C4FEA166851F862
:1044200028808CEA382B04F0FF0C51F82C80C5F35F
:10443000072C51F82CC088EA3C68C6F3074C51F8A9
:104440002CC088EA3C484FEA136C51F82CC088EA2B
:104450003C2A05F0FF0C51F82C80C6F3072CF6B26D
:1044600051F82CC051F8266088EA3C68C3F3074C29
:10447000C3F3072351F82CC051F8233088EA3C4895
:104480004FEA146CC4F3074486EA336351F82440BE
:1044900051F82CC083EA34432C0E00EB071651F878
:1044A0002410B46883EA31217368F568366988EAB4
:1044B0003C2C4E4083EA0B0384EA0A0485EA0C058F
:1044C0007F1CB94598D83F4951FA83F7C4F3072CAC
:1044D0003F7811F80CC047EA0C27C5F3074C11F8D8
:1044E0000CC047EA0C4701EB166C9CF800C047EA89
:1044F0000C6A51FA84F7C5F3072C3F7811F80CC009
:1045000047EA0C27C6F3074C11F80CC047EA0C47E2
:1045100001EB136C9CF800C047EA0C6751FA85FC6C
:10452000C6F307289CF800C011F808804CEA082C54
:10453000C3F3074811F808804CEA084C01EB1468F3
:1045400098F800804CEA086C51FA86F6C3F307230A
:10455000C4F30744CB5C0C5D367801EB156146EA89
:10456000032343EA044300EB09140978606843EA33
:104570000163A168E568246980EA0A005C40107064
:10458000030A5370030C9370000E7940D0701171C0
:10459000080A5071080C9071080E85EA0C05D0715C
:1045A0001572280A5072280C9072280ED07214735B
:1045B000200A5073200C9073200ED073BDE8F08F4A
:1045C000081C0208081A0208F0B540B139B1102AD7
:1045D00007D0182A07D0202A07D0E820F0BD0220F3
:1045E000F0BD0A2302E00C2300E00E239508002210
:1045F00003600CE001EB82039E781C88DB7866F395
:104600001F4444EA036400EB8203521C5C60AA422C
:10461000F0D301682C468A004C4B121D1CE000BFF1
:10462000B4FBF5F650F8241005FB1646D6B1062D5E
:1046300005D9B4FBF5F605FB1646042E35D000EB84
:1046400084067160671B00EB840100EB87074E68EE
:104650007F687E40641C4E609442E1D30021002AB2
:1046600042D870E0C1F30726C1F3074C9F5D00EB11
:104670008406776013F80CC047EA0C2703EB116C33
:1046800077609CF800C047EA0C4753FA81F17760E5
:104690000978DFF8BCC047EA0161B4FBF5F7716047
:1046A0005CF827704F407760CCE753FA81F6377893
:1046B00000EB8406C1F3072C776013F80CC047EABF
:1046C0000C27C1F3074C776013F80CC003EB1161A2
:1046D00047EA0C477760097847EA0161B1E70429A6
:1046E00002D3141FA14205D300EB81046568C4F80E
:1046F000F45025E000EB8104656853FA85F63778BD
:10470000144EC5F3072C56F8277044F8F47F13F8BD
:104710000CC056F82CC087EA3C67C5F3074C44F838
:104720007C7913F80CC003EB156556F82CC087EAAA
:104730003C47E7672D7856F8255087EA3525E56729
:10474000491C9142CBD30020F0BD0000081A02089A
:10475000082402080820020870B5064609F0FAFF8E
:10476000014606F55074002000EB400206EB4215AE
:1047700095F8402305F550759AB12A6923698A1A7C
:10478000CB1A9A4200D92C46401C0828ECD321466B
:10479000304600F07FF860212046FCF7C4FA20463E
:1047A00070BD60212846FCF7BEFA284670BD2DE991
:1047B000F84307461E4690460C461046DDF820900A
:1047C00009F0ECF905462146384600F037F80400B8
:1047D00031D02078012802D0E020BDE8F883E06DD8
:1047E00002280CD3E06909F0CFF904F13C01202242
:1047F00004F11C00FCF7FEF9E06D401EE065074681
:10480000284609F0DFF804EB4717F86188B1002368
:1048100042461946009509F055F907F1240018227F
:1048200049463E62FCF7E6F9E06D401CE065002079
:10483000D3E76420D1E74FF48770CEE710B5034685
:104840005FF0000202EB420003EB401090F840439F
:1048500000F5507014B144688C4203D0521C082AF1
:10486000F0D3002010BD00002DE9F04100240646E1
:104870004FEA040704EB440006EB401505F55075BC
:104880002946304600F006F8641C2F70082CF1D33E
:10489000BDE8F08170B508780D4601280BD10024E1
:1048A00006E000BF05EB4410C06909F06DF9641C17
:1048B000E86DA042F6D80020E86570BD10B54FF451
:1048C000407100F55070FCF72EFA002010BD2DE964
:1048D000F0410C4606461C2A25D32088B0F5807F7F
:1048E00021D1608808281ED1207906281BD1607943
:1048F000042818D106F5CA752879002813D029682C
:10490000D4F80E20914210D1012701280AD0304658
:1049100009F005FE00F18401062204F10800FBF70E
:10492000FAFF10B1AF60BDE8F0812868A169884244
:10493000F9D1E0880DF06AFF012807D00228F2D1F2
:1049400021463046BDE8F04100F006B82146304629
:10495000BDE8F04100F062B82DE9F0470D46D1F80E
:104960000E10804600293ED005F01FFF00283AD1E6
:10497000A87BC0F303100E2835D005F108000622ED
:1049800024498146FBF7C7FF00282CD00622224984
:104990004846FBF7C0FF002825D0287AC00722D15F
:1049A000A969404605F055FF00281CD1D5F80E1026
:1049B0004046FFF743FF040015D0207802274EF64B
:1049C0006026012811D0022818D005280BD1D5F86F
:1049D0000E006060A868A060A889A08109F0BAFEF6
:1049E000C4E904062770BDE8F087A868A060A8891C
:1049F000A0812146404600F0D9F8EFE7062204F1F5
:104A000008014846FBF787FF0028ECD00320207000
:104A1000E9E70000341602083A1602082DE9F041D1
:104A20000C468046D1F80E1005F0BFFE00282AD1B2
:104A3000D4F80E00C0F303110E2924D008F5CA756E
:104A40000127297904F10806012911D12968A269F1
:104A500091420DD1002758B9404609F060FD00F1A0
:104A6000840106223046FBF756FF08B10120A860FA
:104A7000002F08D0D4F80E20A16933464046BDE887
:104A8000F04100F0C1B8BDE8F08100002DE9F0412F
:104A900017460D468046FFF7D1FE040040F203267C
:104AA00016D02078012806D00328A0683860A08995
:104AB000B88003D00AE03046BDE8F08109F04AFE34
:104AC000206141F288306061042020700020F3E70B
:104AD0004046FFF741FE040011D00020A061656050
:104AE000E0652946074A404600F0DEF809F032FE4C
:104AF00020614FF47A70606101202070DBE765204F
:104B0000DAE700003A1602082DE9F0418AB00F46B4
:104B1000804609F004FD064603A91C2004F0F6F9BE
:104B200005003BD0039908F07EFF044601200DF0FC
:104B30006DFE20804FF400600DF068FE608006205E
:104B400020710420607101200DF060FEE08056F8B5
:104B5000840FA060B088A0810020C4F80E00104827
:104B600018220168C4F812108088E082A7610D49FC
:104B700004A8FCF73FF804A90398CDE900012B46EF
:104B800040F606020849404604F01EFB044628464B
:104B900008F0FAFF20460AB0BDE8F0816420FAE789
:104BA00034160208881602083A1602082DE9FC415C
:104BB000074608780D46012822D100261DE000BFD7
:104BC00005EB461454F81C0F08F0E8FF6168421A20
:104BD0003846696806F0B1FA04F108016068CDE969
:104BE00000014FF4006205F108013846236804F023
:104BF000EBFA206808F0C8FF761CE86DB042DFD8F9
:104C00000020E865BDE8FC812DE9F0478AB01F4629
:104C100090468946824609F082FC064603A91C207C
:104C200004F074F905003AD0039908F0FCFE04463C
:104C300001200DF0EBFD20804FF400600DF0E6FD4B
:104C40006080062020710420607102200DF0DEFDDE
:104C5000E08056F8840FA060B088A081C4F80E9060
:104C60003868C4F81200B888E082C4F818801822A6
:104C70000C4904A8FBF7BEFF04A90398CDE9000185
:104C80002B4640F606023946504604F09DFA04468B
:104C9000284608F079FF20460AB0BDE8F087642076
:104CA000FAE70000881602082DE9F7418DB090461A
:104CB0000F460D9809F033FC064605AA39460DA8A3
:104CC00006F068F800283ED104A91C2004F01EF963
:104CD00005003BD0049908F0A6FE044601200DF023
:104CE00095FD20804FF400600DF090FD608006205F
:104CF00020710420607101200DF088FDE08056F8DD
:104D0000840FA060B088A0810598C4F80E001048F8
:104D100018220168C4F812108088E082A7610D494A
:104D200006A8FBF767FF06A90498CDE900012B460A
:104D300040F6060241460D9804F046FA044628461D
:104D400008F022FF204610B0BDE8F0816420FAE7A9
:104D500034160208881602082DE9F047074609F0C4
:104D6000F9FC002605464EF66029B04606EB4600E3
:104D700007EB401494F8400304F55074012806D062
:104D800002281DD0042825D0052833D047E0D4E9D7
:104D900004100844281A42D4A069401CA0610328CA
:104DA00009D2214A38466168FFF77EFF4FF47A70D6
:104DB000C4E9045033E021463846FFF76BFD2CE090
:104DC000D4E904010844281A29D409F0C3FC20615D
:104DD00003200DE0D4E904010844281A1FD404F18B
:104DE000080238466168FFF75FFFC4E904590520EF
:104DF000207014E0D4E904010844281A0FD4A069F3
:104E0000401CA061022808D204F1080238466168FB
:104E1000FFF74AFFC4E9045901E084F80080761CDA
:104E2000082EA3D3BDE8F0873A16020870B51546E0
:104E30000E46002204460623114600F00CF8002816
:104E400008D1D4E903102B46324609F025FC00288E
:104E500000D0D62070BD10B504688C4201D0F72078
:104E600010BD4168914201D0F22010BD8068984287
:104E700001D0F02010BD002010BD0020704730B5DB
:104E80001D46144600F051F800280CD100220223E0
:104E900011462046FFF7DFFF002804D1E068401EDE
:104EA000042801D3EF2030BD2069007840F3C01002
:104EB0002860002007E02968090229602269125C45
:104EC0001143401C2960E1688142F4D8002030BDC4
:104ED00010B5144600F029F8002807D10423204615
:104EE0000022BDE810401146FFF7B5BF10BD10B558
:104EF000144600F01AF8002807D1062320460022A5
:104F0000BDE810401146FFF7A6BF10BD10B514460E
:104F100000F00BF8002807D1204610230022BDE83E
:104F200010400121FFF797BF10BD70B539B303786A
:104F3000002503F0C00353600378C3F340131360EC
:104F4000037803F01F031F2B09D2936001239942BA
:104F500031D0C45C802C13D25B1CD46025E00123CB
:104F60009560994227D0C45C966866F3DF1494601C
:104F7000C45C03F101032406E9D5052BF1D91AE03D
:104F8000A4F181067E2E16D204F07F04042C12D8E0
:104F9000CE1AA6420FD35B1CD56034B1C65C5B1C35
:104FA00046EA0525D560641EF8D118441061D06822
:104FB000C91A814201D2EF2070BD1844506100200F
:104FC00070BD00002DE9F041074680689846144600
:104FD0001F2801D2002513E0802801D201250FE00F
:104FE000B0F5804F01D202250AE0B0F5001F01D2D2
:104FF000032505E0B0F1805F01D2042500E005251E
:10500000FA68802A01D200260EE0FF2A01D8012684
:105010000AE0B2F5803F01D2022605E0B2F1807FBE
:1050200001D2032600E00426ECB30029396909D037
:1050300021B11AB1A41A2046FBF79AFDA819241A27
:10504000A41E06E029B122B160193044801CFBF790
:105050008FFD38792070396811B140F02000207040
:10506000C0B225B140F01F002070002011E0397A55
:10507000084320700FE000BFB968C0EBC002D14008
:105080002A1A01F07F01A15410B141F08001A1540E
:10509000401CA842F0D33EB1611946F08000487030
:1050A0000020A9190DE00EE0387B611900F07F00A7
:1050B000487008E0FA68C300DA400B1A2344401C29
:1050C0005A70B042F6D3F8684119B01C08447861B0
:1050D000B8F1000F09D0A819801CC8F80000396980
:1050E00019B1F9680144C8F800100020BDE8F0814A
:1050F0002DE9F04799465FEA000A00D159B9B9F1A4
:10510000000F08D0002006460346044605468446A4
:10511000DFF8988014E00220BDE8F0871AF80C70E0
:105120000D2F0BD00A2F09D03D2F0ED0802F04D287
:1051300018F80770402F00D24DB1EB200CF1010C94
:105140008C4514D20028E9D027E06D1CF6E7761CC8
:1051500047EA8414042EF1D12AB1260CD654270A2A
:10516000D6187770B47000263446DB1CE6E7A0B989
:1051700055EA060111D0012D02D0022D0AD00BE014
:10518000032E09D122B1A10AD1541A44A1085170A9
:105190009B1C02E0022E03D0EC20C9F80030BBE7D4
:1051A0000AB12109D1545B1CF7E70000B72D0208B2
:1051B0002DE9F0470324B1FBF4F404EB440C0CF1AB
:1051C00001070026354D4FF03D094FF0040A8F428C
:1051D00015D1A8B3A2B310F80C108F088907890E57
:1051E000EF5D02F824706F5C02EB84014F7081F870
:1051F000029081F8039022E00AEB840128E00CF190
:1052000002078F421FD1D8B1D2B110F80C7084447C
:10521000B9089CF801C0BF07BF0E47EA1C17695CBC
:1052200002F824104FEA0C7C02EB84014FEA9C6CDC
:10523000EF5D4F7015F80C708F7081F803900E7150
:10524000002BD9D105E00AB102F824600BB1A1000E
:105250001960002800D0EAB9BDE8F08704EB4403E8
:10526000C65C0344B108B607B70E5E789B7847EA80
:105270001617695C360702F82410B60E02EB84019B
:1052800046EA9316EF5D4F7003F03F03AE5D8E70FC
:10529000EB5CCB70641EE1D2DEE70000772D0208E4
:1052A0002DE9FF479846DDE90C5617468946044626
:1052B0001BE041466846FBF716FC236A2A46414636
:1052C00048469847002004E0295C3A5C5140295444
:1052D000401CE1688142F7D80A4669463846FBF728
:1052E00002FCE06880440544361AE268B242E0D924
:1052F0001EB1EC2004B0BDE8F0870020FAE72DE9EC
:10530000F0471F46DDE9085690468946044618E0F6
:10531000002005E0395C18F8002051402954401C59
:10532000E1688142F6D82A46E36911464846984723
:1053300029464046E268FBF7D6FBE068074405448F
:10534000361AE068B042E3D916B1EC20BDE8F08728
:105350000020FBE72DE9F047CAB0DDE95648DDE95A
:105360005265DDE954A9589F102F03D0EC204AB0B4
:10537000BDE8F087CDE900230B460246142120A8A2
:1053800000F058F90028F2D1202342AA002120A8D9
:1053900000F010F900222023114620A800F00AF99D
:1053A00042A902A80AF032F82A46314602A80AF0B9
:1053B000EBF928070CD005F00F00C0F110063146BC
:1053C00042A8FBF7B0FC324642A902A80AF0DCF979
:1053D0002246514602A80AF0D7F920070CD004F063
:1053E0000F00C0F11006314642A8FBF79CFC324684
:1053F00042A902A80AF0C8F98DF80851280A8DF8C8
:1054000009010026280C8DF80A018DF80C61280E80
:105410008DF80D618DF80B018DF80E618DF80F611F
:10542000082242A902A80AF0AFF98DF80841200A23
:105430008DF80901200C8DF80A018DF80C61200E01
:105440008DF80D618DF80B018DF80E618DF80F61EF
:10545000082242A902A80AF097F942A902A809F075
:1054600013FF23464A46514620A800F0A3F8002126
:10547000084642AB18F800401A5C401C62401143D9
:10548000B842F7D309B1012071E700206FE72DE999
:10549000F043CBB00DF5AC7EDDF848819EE81012EC
:1054A0000DF5A67EBCF1100F9EE8E00003D0EC20C5
:1054B0004BB0BDE8F083CDE900230B460246142132
:1054C00020A800F0B7F80028F2D1202342AA00213A
:1054D00020A800F06FF800222023114620A800F039
:1054E00069F823463A46314620A800F063F842A9FD
:1054F00002A809F08BFF2A46414602A80AF044F9A7
:1055000028070CD005F00F00C0F11006314642A864
:10551000FBF709FC324642A902A80AF035F92246F7
:10552000394602A80AF030F920070CD004F00F0029
:10553000C0F11006314642A8FBF7F5FB324642A9FE
:1055400002A80AF021F98DF80851280A8DF80901FE
:105550000026280C8DF80A018DF80C61280E8DF8B4
:105560000D618DF80B018DF80E618DF80F61082229
:1055700042A902A80AF008F98DF80841200A8DF81E
:105580000901200C8DF80A018DF80C61200E8DF8B0
:105590000D618DF80B018DF80E618DF80F610822F9
:1055A00042A902A80AF0F0F8494602A809F06CFEE8
:1055B00000207DE7F0B51E4615460F46044636E04E
:1055C000D4F8840008B140280CD3204600F014F928
:1055D000606B401C606302D1A06B401CA063002084
:1055E000C4F884000146C0F14000B04200D9304602
:1055F000BDB104F144020A444FF000013FB90DE08F
:105600007B5C12F801C083EA0C036B54491C814295
:10561000F6D3074404E0535C6B54491C8142FAD32F
:105620000544D4F88410361A0144C4F88410002EBE
:10563000C6D1F0BDF0B50028DDE9055611D0002A2D
:10564000FCD0002DFAD0082903D00C2901D0142950
:1056500007D10160041D6349634F102B02D0202B3A
:1056600044D08FE02160614961606149C4E902175B
:105670009378118863F31F41D37841EA0361216174
:105680009379918863F31F41D37941EA03616161A2
:10569000937A118963F31F41D37A41EA0361A161CF
:1056A000937B918963F31F41D37B41EA0361E161FD
:1056B0009378118863F31F41D37841EA0361216233
:1056C0009379918863F31F41D37941EA0361616261
:1056D000937A118963F31F41D37A41EA0361A1628E
:1056E000937B9189D27B63F31F4143E02160414961
:1056F00061603F49091FC4E902179378118863F379
:105700001F41D37841EA036121619379918863F362
:105710001F41D37941EA03616161937A118963F38F
:105720001F41D37A41EA0361A161937B918963F3BD
:105730001F41D37B41EA0361E161937C118A63F3EA
:105740001F41D37C41EA03612162937D918A63F317
:105750001F41D37D41EA03616162937E118B63F344
:105760001F41D37E41EA0361A162937F918BD27F77
:1057700063F31F4141EA0261E1620021082E03D078
:105780000C2E11D00220F0BD21636163AB782A8812
:1057900063F31F42EB7842EA0362A263AB79AA8803
:1057A00063F31F42EB7915E02163AB782A8863F33A
:1057B0001F42EB7842EA03626263AB79AA8863F323
:1057C0001F42EB7942EA0362A263AB7A2A8963F350
:1057D0001F42EB7A42EA0362E263C0F884100020C1
:1057E000F0BD0000657870617465206B6E642031D7
:1057F000362D62796E6420332DE9F04F88B000F1C8
:105800004401002200EB82035B6841F82230521C05
:10581000102AF7D30025D0E00B680A690C6A9E189D
:105820000B6B73404FEA33431C4462404FEA3252E1
:1058300006EB020883EA08034FEA3363E618724076
:10584000069603934FEA726B4B684A694C6A9E183E
:105850004B6B73404FEA33431C4462404FEA325271
:1058600006EB020C83EA0C034FEA336A54446240AD
:105870004FEA7266079605948B688A698C6B1344AD
:105880005C408E6A4FEA3444264472404FEA3252FA
:1058900013445C404FEA3464029333195A40049332
:1058A0004FEA72630193CA69CB6891469F18CA6B2D
:1058B0007A404FEA3243CA6AD61889EA06024FEAAA
:1058C000325217447B404FEA336306EB030982EA06
:1058D0000902079ECDF800904FEA726208EB0609B4
:1058E00083EA09034FEA334E049B73445E404FEA58
:1058F0003658CDF81080C8448EEA08064FEA36665E
:10590000C1F800803344CE638B62DDF8108088EAF2
:1059100003084FEA78634B61019BDDF800900CEBC4
:105920000308039B83EA08034FEA3346019B09EB14
:10593000060C83EA0C034FEA3353984486EA0806C0
:105940004FEA3666C1F804800E63664473404FEA3E
:105950007363CE628B61029B069E03EB020C8AEAA4
:105960000C034FEA33431E4472404FEA32529444D0
:1059700083EA0C034FEA3363C1F808C04B63334436
:105980005A404FEA726207EB0B067440C1E90723E5
:105990004FEA3443059C1C448BEA04024FEA32521E
:1059A000164473404FEA3363CE608B6323445A40FE
:1059B0004FEA72624B62AD1C0A610268AA423FF66E
:1059C0002BAF002200EB820451F82230646823449C
:1059D00041F82230521C102AF4D30020401C102819
:1059E000FCD308B0BDE8F08F10B503880C880246E0
:1059F0004FF0FF30A34203D303D900BF4FF00100A3
:105A000010BD93788C78A342FAD3F7D8D378CC78AA
:105A1000A342F5D3F2D853794C79A342F0D3EDD811
:105A200093798C79A342EBD3E8D8D379CC79A3428C
:105A3000E6D3E3D8128909898A42E1D3DED84FF050
:105A4000000010BD30B5022903D80C31401EC9B288
:105A500080B26424B0FBF4F3B0FBF4F504FB150052
:105A60001A24491C11FB04F10A24B1FBF4F111447E
:105A7000014401EB900003EB8301084400EB930029
:105A80000721401DB0FBF1F201FB1200401C30BDAC
:105A90007047000030B50C46002121813C21B0FB4D
:105AA000F1F201FB1202B0FBF1F0E271B0FBF1F296
:105AB00001FB1202B0FBF1F0A2711821B0FBF1F270
:105AC00001FB1202B0FBF1F162712248224A00EBA5
:105AD0008100B0FBF2F00F300144A1EB90001F49B0
