:020000040800F2
:10000000E0DC012081030008EF3F000835390008DB
:10001000ED3F0008A7170008156400080000000065
:10002000000000000000000000000000C102000805
:10003000F1170008000000001D030008A941000896
:100040009B0300089B0300089B0300089B03000818
:100050009B0300089B0300089B0300089B03000808
:100060009B0300089B0300089B0300089B030008F8
:100070009B0300089B0300089B0300089B030008E8
:100080009B0300089B0300089B0300089B030008D8
:100090009B0300089B0300089B0300089B030008C8
:1000A0009B0300089B0300089B0300089B030008B8
:1000B000954400089B0300089B0300089B0300086D
:1000C0009B0300089B0300089B0300089B03000898
:1000D0009B0300089B0300089B0300089948000845
:1000E0009B0300089B0300089B0300089B03000878
:1000F0009B0300089B0300089B0300089B03000868
:100100009B0300089B030008A14400089B03000810
:100110009B0300089B030008B94400089B030008E8
:100120009B0300089B0300089B0300089B03000837
:100130009B030008F51700089B0300089B030008B9
:100140009B0300089B0300089B030008F13F000885
:100150009B0300089B0300089B0300089B03000807
:100160009B0300089B0300089B0300089B030008F7
:100170009B0300089B0300089B030008000000008D
:100180009B0300089B03000800F002F800F089F8C8
:100190000AA090E8000C82448344AAF10107DA45E2
:1001A00001D100F07EF8AFF2090EBAE80F0013F0AB
:1001B000010F18BFFB1A43F001031847A05D0200AE
:1001C000E05D02000A444FF0000C10F8013B13F010
:1001D000070408BF10F8014B1D1108BF10F8015BA0
:1001E000641E05D010F8016B641E01F8016BF9D193
:1001F00013F0080F1EBF10F8014BAD1C0C1B09D1EA
:100200006D1E58BF01F801CBFAD505E014F8016B5B
:1002100001F8016B6D1EF9D59142D6D370470000ED
:10022000103A24BF78C878C1FAD8520724BF30C822
:1002300030C144BF04680C607047000000230024F4
:1002400000250026103A28BF78C1FBD8520728BFE6
:1002500030C148BF0B607047642900F013827529D4
:1002600000F01082782900F04982732900F0A986F5
:10027000002070471FB522F031FC9DE8030000F01C
:10028000E1FD00F0BFFD04000020002122F010FC81
:10029000401C606000F0FCFE1FBD10B500F061FF67
:1002A00010BD01F0D0F81146FFF7E4FF0DF09EFB02
:1002B00001F0E2F903B4FFF7F0FF03BC01F02CFA00
:1002C0002C4B19680868B0E8F04F80F30988BFF339
:1002D0006F8F4FF0000080F311887047000000001E
:1002E00008480068006880F308884FF0000080F339
:1002F000148862B661B6BFF34F8FBFF36F8F00DF14
:1003000000BF00BF08ED00E0DFF80C00016841F419
:1003100070010160704700BF88ED00E0EFF30980D5
:10032000BFF36F8F134B1A681EF0100F08BF20ED3C
:10033000108A20E9F04F106009B44FF0500080F3AC
:100340001188BFF34F8FBFF36F8F1EF07FFD4FF00B
:10035000000080F3118809BC19680868B0E8F04F04
:100360001EF0100F08BFB0EC108A80F30988BFF3AD
:100370006F8F7047E4060020EFF3058070470000A0
:100380000948804709480047FEE7FEE7FEE7FEE729
:10039000FEE7FEE7FEE7FEE7FEE7FEE70448054965
:1003A000054A064B704700006942000889010008B1
:1003B000E89C0020E0DC0120E89C0120E0D801203E
:1003C00010B500F01FFD001D10BD00BFE5260200A6
:1003D00070B5064600F012FD056806F10B0020F02E
:1003E0000704B4429CBF002070BD2B466A68BAB1B6
:1003F0001068A04210D304F1080188423CBF506845
:10040000586007D35168101941601168091B0160D9
:1004100058601460101D70BD13465268002AE7D161
:100420002146284600F0FAFC0028DED170BD70B5E8
:100430000446051F00F0E2FC0068002C14BF44686D
:1004400070BD002C18BFAC423CBF20466468F8D396
:1004500001680A18AA4218BF456003D12A680546F8
:100460001144016028684119A1421CBF6C6070BD35
:100470006168696021680844286070BD53EA020C15
:1004800000F069802DE9F04B4FF00006002B1FBFF4
:10049000B3FA83F503FA05F424FA05F65E4012BFB9
:1004A0001643B2FA82F502FA05F4C5F120051EBF23
:1004B00022FA05FC44EA0C04203556EA044C4FEAC3
:1004C000144418BF641C4FF000084FF0000990421C
:1004D00071EB030C39D3002919BFB1FA81F701FA86
:1004E00007F6B0FA80F700FA07F6C7F120071EBF3B
:1004F00020FA07FC46EA0C062037B6FBF4FCA7EB13
:100500000507103F07F01F0BCBF120060CFA0BFB81
:100510002CFA06F644BFB3460026202FA4BF5E4641
:100520004FF0000B5BEA060C08BF4FF0010B19EB14
:100530000B09ABFB027C48EB0608C01B06FB02CC98
:100540000BFB03CC71EB0C01C1E70B4602464146A5
:100550004846BDE8F08B13B54FF000004FF00001A6
:10056000AFF30080BDE81C40704710B50446FFF7AC
:1005700027FF0068005DC00602D504F1200010BD11
:10058000204610BD10B50446FFF71AFF0068005D55
:10059000000704D5DF2C02D0A4F1200010BD2046B6
:1005A00010BD0FB4014610B504AA039800F00EFD6B
:1005B00010BC5DF814FB00000FB41CB5084B06AA74
:1005C0007B4469460090059800F0D1FC0446002069
:1005D000694600F0DFFC20461CBC5DF814FB0000FF
:1005E000D109000070B5044685690068C10601D5CF
:1005F000302600E02026C00707D070BDD4E90121D5
:1006000030469047206A401C20626D1EF6D570BDB2
:1006100070B5044685690078C00707D170BDD4E97C
:10062000012120209047206A401C20626D1EF6D5D3
:1006300070BD70B50C460546012A05D028788006A5
:1006400000D5EA69002302E0012305E05B1C934228
:1006500002D2E05C0028F9D1A869E618C01AA861A6
:10066000286A184428622846FFF7BCFF04E0D5E951
:10067000012114F8010B9047B442F8D32846FFF744
:10068000C7FF70BD2DE9F0410646002410687529AA
:10069000314616A510D0AFF30080002802DA4042A0
:1006A00013A507E031688A0701D512A502E04907C2
:1006B00004D511A5012401E0AFF3008000210A2236
:1006C00006F1240709E0B0FBF2FCB0FBF2F302FBF9
:1006D0001C00303078541846491C0028F3D12346BA
:1006E0002A463046BDE8F04100F0E2BB00000000C1
:1006F0002D0000002B0000002000000070B5044613
:100700000D4621461068AFF300802188090502D507
:100710000F4A7A4402E00E4A7A440E32002104F174
:10072000240305E000F00F060009965D5E54491CA5
:100730000028F7D120780023000704D5702D02D0BF
:1007400009B1022311322046BDE8704000F0B0BB71
:10075000995302002DE9F05F894604464FF0000AE4
:10076000DFF824B1FB44C0F820A02046E1688847A8
:1007700000287DD0252806D0D4E901219047206AA1
:10078000401C2062F1E700255F462046E16888476B
:100790002028064607DB312E05D2B81910F8200CA8
:1007A00008B10543F1E7A80701D525F00405C4F811
:1007B0001CA00027C4F818A02A2E09D0304605F046
:1007C00073FE38B304EB8708303EC8F8186019E0B0
:1007D00059F8041B204604EB87029161E1688847C1
:1007E000012F064618D1E069002820DA25F02005FF
:1007F0001DE0D8F8180000EB800006EB4000303810
:10080000C8F818002046E1688847064605F04CFE07
:100810000028EED1012F0AD02E2E08D12046E16803
:1008200088477F1C0646022F45F02005C4DBA069DF
:10083000002803DA404245F00105A061E80701D035
:1008400025F01005A6B1A6F14100192802D82036DE
:1008500045F400654A463146204625604D46FFF77F
:10086000FBFC60B1012807D0ED1D25F0070000E07A
:1008700007E000F1080978E705F1040975E730465B
:100880007AE7206ABDE8F09F6F5302002DE9F05F20
:1008900093460F4680460446002600F0B7FAD0F88B
:1008A0000090824614F8015B2DB1FFF789FD0068C6
:1008B000405DC007F6D12B2D02D02D2D1AD0641E1D
:1008C0000021CAF800105A463946204600F090FB35
:1008D000014627B13868A04201D1C7F80080DAF894
:1008E0000000022809D0CAF80090700505D54842DA
:1008F000BDE8F09F46F48066E2E70846F8E700F0BE
:1009000063BC401ECAB210F8011F8A4202D00029FF
:10091000F9D10020704740EA010310B59B070FD1C1
:10092000042A0DD310C808C9121F9C42F8D020BA5F
:1009300019BA884201D9012010BD4FF0FF3010BD17
:100940001AB1D30703D0521C07E0002010BD10F8E5
:10095000013B11F8014B1B1B07D110F8013B11F8AB
:10096000014B1B1B01D1921EF1D1184610BD40EA6C
:100970000103024630B59B0710D14FF0013400E06F
:1009800008C208C91D1B9D4315EAC41FF8D013F007
:10099000FF0102F8011B0DD01B0AF8E711F8013B1B
:1009A000002B02F8013B05D011F8013B002B02F8A7
:1009B000013BF3D130BD2DE9F041054690460E468E
:1009C0000020044600E0641C44450BD2285DFFF77C
:1009D000CCFD0746305DFFF7C8FD381A02D1295D0E
:1009E0000029F0D1BDE8F0812DE9F0410E46054621
:1009F000002400E0641C285DFFF7B7FD0746305D6A
:100A0000FFF7B3FD381A02D1295D0029F2D1BDE804
:100A1000F08110B5431C02E010F8011B71B1810791
:100A2000FAD14FF0013202C88C1A8C4314EAC21179
:100A3000F9D0C01A0A0603D0C01E10BDC01A10BDDE
:100A40000A0401D0801E10BD0902FCD0401E10BD5A
:100A500040EA010370B59B072ED14FF00136042AFE
:100A60002AD308C810C99D1B9D43121F15EAC6153D
:100A700017D0D8B2E1B2401A50EA056110D198B24D
:100A8000A1B2401A50EA05410AD123F07F4024F078
:100A90007F41401A50EA052102D1180EA0EB1460E4
:100AA00070BDA342DBD018BA21BA884201D9012017
:100AB00070BD4FF0FF3070BD0AB9002070BD10F856
:100AC000013B11F8014B63B1A3420AD1521E08D079
:100AD00010F8013B11F8014B1BB1A34201D1521E8A
:100AE000EDD1181B70BD032A40F2308010F0030CCA
:100AF00000F0158011F8013BBCF1020F624498BF71
:100B000011F801CB00F8013B38BF11F8013BA2F10D
:100B1000040298BF00F801CB38BF00F8013B11F088
:100B2000030300F06780083AC0F0088051F8043BE6
:100B3000083A51F804CBA0E80810F5E7121D5CBF95
:100B400051F8043B40F8043BAFF30080D20724BFC8
:100B500011F8013B11F801CB48BF11F8012B24BF5C
:100B600000F8013B00F801CB48BF00F8012B7047AB
:100B7000431A28BF9A427FF6B6AF032A10441144A5
:100B800040F2268010F0030F1EBF11F8013D521EE7
:100B900000F8013D10F0030F7FF4F6AF11F00303EE
:100BA00000F06D80083AC0F00B8051F8043D083A1F
:100BB00051F804CD40F8043D40F804CDFFF7F3BFF1
:100BC000121D5CBF51F8043D40F8043DAFF30080B6
:100BD000D20724BF11F8013D11F801CD48BF11F82B
:100BE000012C24BF00F8013D00F801CD48BF00F8FA
:100BF000012C704710B5203AC0F00B80B1E81850B6
:100C0000203AA0E81850B1E81850A0E81850BFF4F6
:100C1000F5AF5FEA027C24BFB1E81850A0E8185095
:100C200044BF18C918C0BDE810405FEA827C24BFE9
:100C300051F8043B40F8043B08BF7047D20728BF77
:100C400031F8023B48BF11F8012B28BF20F8023BC6
:100C500048BF00F8012B7047431A28BF9A427FF61D
:100C6000C9AF104410F0030F11441EBF11F8013D2D
:100C7000521E00F8013D10F0030F7FF4F6AF103A5A
:100C8000C0F00A8010B531E91850103A20E9185028
:100C9000BFF4F9AFBDE81040530724BF31E9081095
:100CA00020E9081044BF51F8043D40F8043D12F01B
:100CB000030F08BF7047D20728BF31F8023D48BF75
:100CC00011F8012C28BF20F8023D48BF00F8012C84
:100CD000704702F0FF0343EA032242EA024200F0B7
:100CE00002B84FF000020429C0F0128010F0030C8B
:100CF00000F01B80CCF1040CBCF1020F18BF00F80F
:100D0000012BA8BF20F8022BA1EB0C0100F00DB8BD
:100D10005FEAC17C24BF00F8012B00F8012B48BF1B
:100D200000F8012B70474FF0000200B513469446BF
:100D30009646203922BFA0E80C50A0E80C50B1F133
:100D40002001BFF4F7AF090728BFA0E80C5048BF47
:100D50000CC05DF804EB890028BF40F8042B08BFE5
:100D6000704748BF20F8022B11F0804F18BF00F8E1
:100D7000012B70474FF0013C50F8042B51F8043B15
:100D80009A4221D1A2EB0C03934313EACC1317D15F
:100D900050F8042B51F8043B9A4215D1A2EB0C03F6
:100DA000934313EACC130BD150F8042B51F8043BB6
:100DB0009A4209D1A2EB0C03934313EACC13DBD084
:100DC0004FF00000704700BFD01A01BAB1FA81F1AC
:100DD00001F0180122FA01F0CB40C1F12001DBB291
:100DE000C0B2C01A2CFA01F3D11A914311EAC3110F
:100DF000E6D1704770477047704700000048704761
:100E000088D8012000487047A0D8012000487047CA
:100E100080D80120704770477047704738B5044646
:100E20000A4600206946AFF30080002808BF38BD9D
:100E300002460099204600F0EDF9012038BD01205E
:100E400000F0DBBAF8B5AFF30080054600200C4691
:100E5000102000BF0646A819A0420DD932466946A7
:100E60000020AFF30080070008BF00F0C6FA00982A
:100E7000A04218BF0546C419FFF7C0FF056007462A
:100E8000F01D20F007004619284600F00AF8B44289
:100E900008BFF8BDA21B31463868BDE8F84000F035
:100EA000B9B900210160C0E90110704710207047F6
:100EB0002DE9F0470D4699469246044600F1240874
:100EC0000168880604D5E06921F01001216000E086
:100ED0000120A84201DD471B00E00027A1697A1923
:100EE00002EB0900081AA0612078C00602D420464F
:100EF000FFF778FB002608E0D4E901211AF8060084
:100F00009047206A401C761C20624E45F4DB207816
:100F1000C0060AD52046FFF765FB06E0D4E90121AB
:100F200030209047206A401C2062381EA7F101073C
:100F3000F4DC07E0D4E9012118F805009047206AA5
:100F4000401C2062281EA5F10105F3DC2046FFF7B6
:100F50005FFB2078000602D50220BDE8F087012063
:100F6000FBE7000001694A1C02610878704700B580
:100F70008FB0CDE901310021059105497944CDE9D2
:100F8000031011466846FFF7E5FB0FB000BD0000F7
:100F9000E5FFFFFF0A6802F8010B0A60704710B511
:100FA000436913B1AFF3008001E0FFF742FB01207A
:100FB00010BD127800F124010A7000224A7001224B
:100FC000EDE711684FF0FF32E9E70000074B70B51D
:100FD0000D467B44FFF7CBFF0446284600F042F95C
:100FE00010B14FF0FF3070BD204670BDA7A70000C4
:100FF0002DE9F05F824615468B4600270AF1010471
:10100000B9460078302801D09DB113E014F8010BE7
:101010000127782803D0582801D045B10AE00DB146
:10102000102D07D1002714F8010B102502E0082528
:1010300000E00A250026B0460EE005FB080005FB8F
:1010400006F101271FFA80F801EB1046B6F5803F44
:1010500000D3B94614F8010B294600F0F5F8002832
:10106000EBDABBF1000F05D00FB1641E00E054466F
:10107000CBF80040B9F1000F06D0FFF7C7FE022100
:101080000160C81EBDE8F09F48EA0640FAE700008C
:1010900010B542485421FFF746FE41485421FFF75E
:1010A00042FE40485421FFF73EFE3F493B483C4A40
:1010B0003F4B08603D490A603A491960531C03657B
:1010C000481C1065012008653B48344A39A1784422
:1010D00000F0F0F820B9384878440A3800F086F972
:1010E00037482F4A35A1784400F0E4F820B9344855
:1010F00078440A3800F07AF932482A4A2FA1784415
:1011000000F0D8F820B92F4878440A3800F06EF97A
:1011100040232248DC000021224600F0A7F820B13D
:1011200025487844543800F061F91D482246402390
:10113000002100F09BF820B121487844543800F099
:1011400055F9184822461023002100F08FF8002896
:1011500006D01C487844BDE81040563800F046B927
:1011600010BD104870B5006D20F001040B4800F070
:1011700017F90B4800F014F90A4800F011F909E0DA
:10118000206D20F00105204600F00AF92046FFF707
:101190004EF92C46002CF3D170BD00003C9C002081
:1011A0002CD80120909C002018C101206807002045
:1011B0001CC1012072000000C64902007700000037
:1011C000B5490200A54902002DE9F04115460E4639
:1011D000040002D12C6804B90BA4204600F024F9C5
:1011E0000444207870B127463146384600F00CF9A7
:1011F0000444207810B1002004F8010B38462C601C
:10120000BDE8F0810027F9E70000000000487047C2
:1012100080D80120034640688C46002818BF8842C9
:101220003CBF03464068F8D318681844884207D08A
:101230000CF1030020F00700001D411A521A01466C
:10124000081D0A60FFF7F3B83A2800D2303820F0C2
:101250002002412A01D3A2F13700884201D34FF086
:10126000FF307047007B00F08000704770B5C468A5
:10127000A50713D0650211D4B2F5807F09D0B2F56D
:10128000007F06D0B2F5806F08D1012300F1240160
:1012900006E05D1E6FF07F46B54201D3012070BDB0
:1012A0000161C361416024F470611143C160002099
:1012B00070BD00002DE9F0410C4607461646104669
:1012C00000F06EF82078611C61280AD0722802D0E4
:1012D00077283CD102E00125002405E00225042402
:1012E00002E0082448F2020511F8010B2B2806D071
:1012F000622809D011F8010C74280AD00BE045F0DF
:10130000030544F00204EFE745F0040544F001044E
:10131000EAE744F010043846214605F0EBF8411C9A
:1013200015D00021316171604FF40071F560F161F9
:101330007061200704D530460222002100F0A8F891
:10134000306D40F0010030653046BDE8F08100208E
:10135000FBE72DE9F0410D460646104C206DC10714
:1013600004D0410804D020F00104F7E722460EE043
:101370005420FFF72DF807000ED0206D47F0010133
:101380000843542120653846FFF7CDFC3A462946EC
:101390003046BDE8F0418DE70020D6E73C9C0020B8
:1013A0002DE9F04704464FF000094FF0FF37C568BC
:1013B000D4E90486A80707D0204600F019F9304682
:1013C00005F079F8002802DA3846BDE8F0872805EC
:1013D00002D54046FFF72BF84C212046FFF7A3FC2F
:1013E000206D20F0010020654846EEE710B500F0C2
:1013F00051F9BDE8104000F048B910B500F064F9AB
:10140000BDE8104000F041B930B503461D781DB16C
:101410000A4603E0AC4201D1181A30BD12F8014B64
:10142000002CF7D15B1CF1E730B503461D783DB1C8
:101430000A4612F8014B1CB1AC42FAD15B1CF5E72D
:10144000181A30BD70477546FFF7E0FEAE4605003E
:101450006946534620F00700854618B020B5FEF7D0
:101460009DFFBDE820404FF000064FF000074FF011
:1014700000084FF0000B21F00701AC46ACE8C009B2
:10148000ACE8C009ACE8C009ACE8C0098D467047BB
:101490002DE9F041044616460D464769007B80075A
:1014A0002ED0384605F019F850BB3EB3012E02D0BD
:1014B000022E25D104E0204600F034F905441DE059
:1014C000384605F004F8E168002841F01001E160B9
:1014D00005DA204600F058F80120BDE8F081C90384
:1014E0000BD56268E16A914200D81146A2691144A5
:1014F0002269891A814200DD08460544002D01DA7F
:101500000220EAE7E16A6068E268814206D291035C
:10151000E06203D522F4003141F01002A6690027F1
:10152000AE4213DCE16A814201D90B4600E003467A
:1015300003EB060C2369ACEB030CAC4506DD8142E2
:1015400001D98C4600E084469C4505D1A760276000
:1015500042F02000A5620DE0AD1BE669AE1B8142A2
:10156000A66000D90846C01A281A20605819606081
:1015700022F0200003490840E060002084F8487011
:10158000ABE70000BFCFD7FFC16821F4001141F0E5
:101590008001C16000218160016070472DE9F04742
:1015A000814614460E464FF0FF383248D5685769D9
:1015B000054209D03846A16904F0CAFF002811DBB2
:1015C0002C48C0430540E5602B4632464946384624
:1015D00004F0C1FFA16920F00042B21A11440028B2
:1015E000A16103D02046FFF7CFFF4046BDE8F0875A
:1015F00070B504460569C06A6168884200D808462B
:10160000E16821F42011E160C90312D5A84208D095
:101610002246411B2846FFF7C1FF10B14FF0FF30B3
:1016200070BD0020E562C4E90150E06820F480301C
:10163000E060002070BD10B50446C06820F02000B6
:10164000E060A16AA06988420DD02046FFF7D0FF74
:10165000E06820F4405040F01000E060A06AA06113
:101660002069E062606044F24001E0688843E06025
:1016700010BD00001000020010B50446AFF300805A
:101680002046BDE81040FEF715BE002801D000F04E
:1016900043B8704710B5014602A000F064F801207D
:1016A00010BD000053494752545245443A205265F8
:1016B0006469726563743A2063616E2774206F7089
:1016C000656E3A200000000010B5012805D0002109
:1016D00003A000F048F8012010BD09A1F8E70000C0
:1016E00053494752544D454D3A204F7574206F660B
:1016F0002068656170206D656D6F72790000000073
:101700003A2048656170206D656D6F727920636F56
:10171000727275707465640001491820ABBEFEE7F3
:101720002600020010B50146C268900703D090065B
:1017300007D5886A0AE0FFF769FB01210160881E6E
:1017400010BD8B69486818440B69C01A91F848307D
:101750001BB191F84910401A10BD1103FCD50028A7
:10176000FADD401E10BD70B505460C460A2000E0AB
:101770006D1C00F011F835B128780028F8D102E08E
:10178000641C00F009F814B120780028F8D1BDE8F5
:1017900070400A20AFF3008008B569468DF800005C
:1017A0000320ABBE08BDFEE7002070470020704755
:1017B00010B500220449054803F058FA04490348CB
:1017C00003F047FA002010BD481800206C0B0020E1
:1017D0004810002010B50146034803F03AFA0248C9
:1017E00003F010FA002010BD6C0B002000207047A1
:1017F000704700002DE9F041154D00246F69154E2A
:10180000F8074FF001080AD0C5F814807068006826
:10181000002804DB306854300FF095F90446780650
:1018200008D54020686131680B48C1F858800FF036
:101830008AF904434FF480306861002C06D00749D0
:1018400000030860BFF34F8FBFF36F8FBDE8F081D7
:1018500000900240300700208C20002004ED00E0C2
:1018600072B6FEE72DE9F0410446876D00F066F997
:10187000064694F835000025022806D080206065D1
:1018800084F834500120BDE8F0812068016821F01F
:10189000160101602068416921F080014161206CDE
:1018A00008B9A06C20B12068016821F0080101602E
:1018B0002068016821F0010101600CE000F03EF9B0
:1018C000801B052807D920206065032084F8350097
:1018D00084F83450D7E720680068C007EED194F848
:1018E0005C103F208840B860012084F8350084F8FF
:1018F00034500020C7E790F83510022903D080212A
:10190000416501207047052180F8351000680168A5
:1019100021F00101016000207047000070B504460D
:1019200000F00CF90546601C02D00448007804441D
:1019300000F004F9401BA042FAD370BD38C001206A
:101940002DE9F84FDFF8BCA10022012503264FF056
:101950000F090AF1040BAAF1040E00BF0B6805FA87
:1019600002F42340A34270D10F7907F00307012F3F
:1019700001D0022F16D187684FEA420806FA08FC08
:1019800027EA0C07D1F80CC00CFA08FC4CEA070C4B
:10199000C0F808C04768A7430C79C4F3001494400A
:1019A0003C4344600C79E443A4070AD0C4684FEA7E
:1019B000420C06FA0CF7BC438F6807FA0CF7274372
:1019C000C7600C7904F00304022C12D1D40800EB98
:1019D000840CDCF820405707FF0E09FA07F824EAC8
:1019E0000804D1F8108008FA07F848EA0408CCF88F
:1019F000208004684FEA420C06FA0CF7BC430F79CA
:101A000007F0030707FA0CF7274307604C6814F444
:101A1000403F70D03C4C276847F4804727602468DB
:101A200022F0030704F480440094384C07EB040CC4
:101A3000DCF8084897074FEA177809FA08F7BC431B
:101A4000334FB84202D1002724E054E0314FB8426E
:101A500001D101271EE0304FB84201D1022719E021
:101A60002E4FB84201D1032714E02D4FB84201D1C7
:101A700004270FE02B4FB84201D105270AE02A4F77
:101A8000B84201D1062705E0284FB84201D1072707
:101A900000E0082707FA08F72743CCF80878DAF8B7
:101AA00000405746D1F804C09C435FEACC2C00D5D7
:101AB0001C433C60DBF800405F46D1F804C09C4307
:101AC0005FEA8C2C00D51C433C60DEF80040774672
:101AD000D1F804C09C435FEA8C3C00D51C433C60B9
:101AE000084F083F3C68D1F804C09C435FEACC3CF7
:101AF00000D51C433C60521C102AFFF42FAFBDE8F8
:101B0000F88F0000083C014044380240003001409A
:101B1000000002400004024000080240000C0240A5
:101B2000001002400014024000180240001C024055
:101B30000AB1816170470904FBE700000148806831
:101B40007047000038C0012070B5040025D094F81B
:101B50003D00002520B984F83C50204600F050F9A3
:101B6000242084F83D002068016821F00101016013
:101B70002068016841F4004101602068016821F497
:101B80000041016001F022F84D4A6168914201D89C
:101B90004C4900E04C49884201D2012070BD4B49BC
:101BA0002368B0FBF1F15E6826F03F060E435E60ED
:101BB0006368934206D94FF4967359434FF47A738E
:101BC000B1FBF3F12368491C1E6A26F03F0631433E
:101BD00019626168914210D84900401EB0FBF1F2D1
:101BE000521CC2F30B02042A01D2042022E0B0FBF3
:101BF000F1F0401CC0F30B001CE0A268F2B301EB53
:101C0000C10303EB0116431EB3FBF6F35B1C43F465
:101C100080431B0549D092B301EBC10202EB0111D5
:101C2000401EB0FBF1F0401CC0F30B0040F48040BC
:101C300040F400402168CA694CF6FF739A43104390
:101C4000C861D4E9071001432068026822F0C0028D
:101C500011430160D4E9030101432068826848F21E
:101C6000FF339A4311438160D4E905010843216899
:101C7000CA6822F0FF021043C86001E00EE016E0DF
:101C80002068016841F0010101602564202084F88A
:101C90003D00256384F83E50002070BD01EB4106F5
:101CA000431EB3FBF6F35B1CB3E70120C2E701EB75
:101CB0004101401EB0FBF1F0401CC0F30B00B7E740
:101CC000A086010080841E0000093D0040420F00F4
:101CD0002DE9FF4F83B09A46DDE9119793460446FC
:101CE000DDF84080FFF72AFF054694F83D002028E4
:101CF0007FD11923012240492046009501F0ACFE16
:101D0000002876D194F83C00012872D0012084F894
:101D10003C0020680168C90703D1016841F0010156
:101D200001602068016821F400610160212084F8CD
:101D30003D00402084F83E0000262664C4F824803C
:101D4000A4F82A90608D20852C48E062CDE90075CA
:101D500053465A462046049901F004FE70B930E01B
:101D60002A463946204601F0F6FE58B1206C042878
:101D700004D12068016841F400710160012007B0BE
:101D8000BDE8F08F606A216800780861606A401CD5
:101D90006062218D491E89B22185628D521E628545
:101DA00022685369DB435B070BD469B1007810618B
:101DB000606A401C6062208D401E2085608D401E40
:101DC0006085208D0028CBD12A463946204601F077
:101DD0001DFE0028CAD154F83D0B016841F4007182
:101DE0000160202004F81E09E67766770020C6E728
:101DF000FFE70220C3E70000020010000000FFFF21
:101E000010B586B0044614216846FEF78CFF1349CE
:101E10002068884220D112480021026842F0020264
:101E20000260006800F002000590C02000901220BF
:101E3000CDE901010320039004200490694609487C
:101E4000FFF77EFD06481030016841F40011016083
:101E5000006800F40010059006B010BD005400406A
:101E60003038024000040240024881680278114480
:101E70008160704738C001200B4810B5016841F4FB
:101E800000710160016841F480610160016841F402
:101E900080710160032000F08DF80F2000F006F83B
:101EA00000F03EF8002010BD003C024010B5014695
:101EB00088B00022362000F05DF8362000F04CF8A3
:101EC00013480024016841F010010160006805A971
:101ED00000F010000690684600F052FE00F076FE1A
:101EE0000C494000B0FBF1F10C480B4A491E02605E
:101EF00040F2E732C0E90324C0E9011401F04AF9D5
:101F000010B1012008B010BD044801F0A1F9F9E7B3
:101F10004038024040420F0000100040A8CB012092
:101F20000C4882B0016841F480410160006800F40F
:101F3000804000900748001F016841F08051016017
:101F40000068002200F0805000900F21901E02B027
:101F500000F010B844380240002809DB00F01F02EE
:101F6000012191404009800000F1E020C0F80011FB
:101F700070470000F0B40E4B1B680C46C3F30223FD
:101F8000C3F10705042D00D90425191D072901D225
:101F9000002300E0DB1E012606FA05F1491E214060
:101FA00099409E40761E16403143F0BC04F06CBA56
:101FB0000CED00E0064900F0070208684FF6FF0349
:101FC000184040EA0220034A1043086070470000AE
:101FD0000CED00E00000FA05704700684162002047
:101FE0007047F0B50368586A39B19C6A4FF482763D
:101FF00000EB144400204D1E0AE040EA02409862C3
:102000000FE006EB8007DF59401C04EB1744C0B219
:10201000A842F6D344EA02404FF4807202EB8101F9
:1020200058500020F0BDD0F8080503F0F5B801EBDA
:10203000C10200EB8202D0F80805D26C03F04AB866
:1020400001EBC10200EB8202D0F80805D2F88C2225
:1020500003F09BB8D0F8080503F0E0B80A0601F0D9
:102060000F0101EBC10100EB810101D53C3101E021
:1020700001F51F71006804F015B870B504460B0631
:1020800001F00F0000EBC00104EB81014FF00102F1
:102090004FF0000503D581F83D203C3103E081F885
:1020A0007D5201F51F71087094F8BC04012808D016
:1020B00084F8BC24206803F0AFFC84F8BC540020F2
:1020C00070BD022070BD70B5044601F00F0062685B
:1020D000904201D9012070BD0B0601F00F0101EB08
:1020E000C10104EB81014FF001024FF0000503D55F
:1020F00081F83D203C3103E081F87D5201F51F71EC
:102100008D70087094F8BC04012808D084F8BC24B1
:10211000206803F07DFE84F8BC54002070BD0220CE
:1021200070BD01F00F0101EBC10100EB8100D0F89F
:102130009C0270472DE9F04104460F0601F00F00A4
:1021400000EBC00104EB81014FF001064FF00005E8
:1021500003D581F83D603C3103E081F87D5201F503
:102160001F710870CA600B714A7802B10881022B96
:1021700000D14D7194F8BC04012809D084F8BC64E6
:10218000206803F0A1FB284684F8BC54BDE8F08128
:102190000220FBE770B50C4601F00F0505EBC50109
:1021A00000EB8101C1F89432C1F88C220023C1F800
:1021B0009C3281F87D3281F87C52036901F51F71F0
:1021C000012B00D14A612207027C006803D003F092
:1021D00077FE002070BD03F061FDFAE770B504469C
:1021E0000D4601F00F006168884201D9012070BDE1
:1021F00029064FF000064FF0010207D500EBC001A1
:1022000004EB810181F83D203C3107E005EBC5017D
:1022100004EB810181F87D6201F51F718A700870FD
:1022200094F8BC04012807D084F8BC24206803F08B
:102230001BFE280702D007E0022070BD217C04F2BB
:10224000C442206803F0B8FD84F8BC64002070BD6F
:1022500070B50C4601F00F0505EBC50100EB8101DF
:102260004B65CA640023CB65012381F83D3001F83A
:102270003C5F0369012B00D14A612207027C0068A0
:1022800003D003F01DFE002070BD03F007FDFAE748
:102290002DE9FC5F05680446284603F0A4FF0028EA
:1022A0007DD1206803F0CBFF002878D0D5F808084E
:1022B000C0F30D20C4F8FC04206803F0C0FF8007C1
:1022C00004D52068416901F002014161206803F0F2
:1022D000B6FFC10604F2C440009034D5206881697D
:1022E00021F0100181612F6A07F00F0000EBC000A0
:1022F00004EB8006C7F3434006F51F76022802D0A0
:10230000062811D01AE047F6F070074216D0C7F33E
:102310000A1217462846316903F095FF30693844A0
:102320003061306A384408E008222846009903F0FA
:102330008AFF306AC7F30A11084430622068816955
:1023400041F010018161206803F079FF00034FF034
:10235000080B4FF0000A4FF001097CD500262068D9
:1023600003F04CFF074674E0F80770D0F1B2206824
:1023700003F05DFF8046C00707D005EB4611C1F8AA
:10238000089B3146204601F039FE5FEA087024D5EB
:1023900005EB4611C1F808BB2068016C00E025E29E
:1023A00000EB46100191D0F8082BFC4B994205D95F
:1023B000110403D54FF40041C0F8081B204600F07B
:1023C00005FBF6490198884207D92069012804D104
:1023D00020680121009A03F0EFFC5FEAC86004D591
:1023E00005EB46111020C1F8080B5FEA88701DD577
:1023F0006869000605D5D5F8040840F48061C5F881
:10240000041806EBC60004EB800090F87F1200F57C
:102410001F70012905D180F803A0F1B2204600F019
:10242000EBF905EB46110220C1F8080B5FEA886062
:1024300004D505EB46102021C0F8081B5FEA884050
:1024400005D505EB46104FF40051C0F8081B7F0876
:10245000761C002F88D1206803F0F1FE40036FD571
:10246000206803F0C4FE0746002667E0F80763D043
:10247000F1B2206803F0C9FE8046C00723D006F001
:102480000F0209FA02F0D5F834288243C5F834283F
:1024900005EB4610C0F80899206901280FD106EB1A
:1024A000C60004EB8000D0E912211144C16436B9A2
:1024B000606D20B920680121009A03F07DFCF1B223
:1024C0002046FFF7B4FD5FEA087003D505EB46111F
:1024D000C1F808B95FEAC86004D505EB46111020C1
:1024E000C1F808095FEA486004D505EB46104021B1
:1024F000C0F808195FEA887017D53146284603F0FE
:1025000045FE06EBC60004EB800090F83F103C301F
:10251000012905D180F803A0F1B2204600F068F946
:1025200005EB46110220C1F808095FEA086003D5EF
:102530003146204601F0C8FD7F08761C002F95D15A
:10254000206803F07CFE002811DAD5F8040820F09A
:102550000101C5F8041894F8F40401282BD0204692
:1025600000F018FA2068416901F0004141612068DB
:1025700003F065FE00050BD5D5F80808C00702D0AA
:10258000204600F04BFA2068416901F40061416186
:10259000206803F054FEC00466D5D5F8040820F086
:1025A0000100C5F804081021206803F0EFFD0021A8
:1025B0004FF67F321FE084F8F4A400212046FFF795
:1025C0000BFDCFE705EB4110C0F80829D0F8003922
:1025D00023F40013C0F80039C0F8082BD0F8003BF2
:1025E00023F40013C0F8003BD0F8003B43F0006335
:1025F000C0F8003B491C60688842E3D8D5F81C0845
:1026000040F00111C5F81C18206B002828460DD099
:10261000D0F8840840F00B01C5F88418D5F84408B8
:1026200040F00B012846C5F844180DE0D0F8140816
:1026300042F22B010843C5F81408D5F8100840F001
:102640000B012846C5F81018D0F8000820F4FE61E8
:10265000C5F80018217C2068009A03F0ADFB2068C3
:10266000416901F480514161206803F0E8FD800474
:1026700015D5206803F068F9206803F0A7FDE06035
:1026800000F09EFA0146227B206803F03BFE2046C4
:1026900000F06AF92068416901F400514161206845
:1026A00003F0CDFD000707D5204600F077F920683C
:1026B000416901F008014161206803F0C0FD000696
:1026C00016D5A86920F08000A86101260DE000BFA2
:1026D00006EBC60004EB800090F87F02012803D1CE
:1026E000F1B22046FFF7BAFC761C6068B042EFD822
:1026F000206803F0A4FDC00221D501264F4616E054
:1027000005EB4610D0F8001906EBC60004EB80007C
:1027100090F84020012A09D1002907DA80F83F709B
:10272000F0B240F080012046FFF798FC761C60680C
:10273000B042E5D82068416901F480114161206808
:1027400003F07DFD800234D501204B4629E000BF17
:1027500005EB4011D1F8001B00EBC00204EB820630
:1027600096F88022012A1BD1002919DA94F8FC245A
:1027700001F4803102F00102914211D186F87F32DA
:10278000A96941F08002AA616969090608D4D5F8EF
:10279000040840F40070C5F8040805E00A30544FFE
:1027A000401C61688142D3D82068416901F400115E
:1027B0004161206803F043FD400007D52046FFF744
:1027C00032FC2068416901F080414161206803F0DA
:1027D00036FD40070AD520684568680702D52046BF
:1027E000FFF738FC2068416829434160BDE8FC9F41
:1027F000D0F8080502F066BDD0F8080502F076BDF5
:102800002DE9F0418AB0040005D094F8BD04266893
:10281000002520B108E001200AB0BDE8F08184F86D
:10282000BC54204600F05EF8032084F8BD04F06B31
:10283000C00500D42561206803F02AFA04F11001D4
:10284000282288466846FEF7D5F994E80F0003F081
:1028500089F80226C8BB0021206803F013FD002080
:1028600001270EE000EBC00104EB810181F83D700F
:1028700001F83C0F08810D71CD600D61401CC0B2A4
:102880008D6161688142EDD8002011E000EBC0014C
:1028900004EB810181F87D5281F87C0281F880523D
:1028A000C1F88852C1F88C52401CC0B2C1F8945291
:1028B00061688142EAD8282241466846FEF79AF9C3
:1028C00094E80F0003F02AF910B184F8BD64A2E780
:1028D00084F8385084F8BD74206803F011F90020A2
:1028E0009AE7000010B586B0044614216846FEF74A
:1028F0001AFA2068B0F1A04F2FD1194800210268C0
:1029000042F001020260006800F0010005904FF4FF
:10291000C05000900220CDE90101032003900A205D
:10292000049069460F48FFF70BF80D48001D016839
:1029300041F0800101600A481430016841F480418F
:1029400001600068002200F48040059005214320CA
:10295000FFF710FB4320FFF7FFFA06B010BD0000A1
:10296000303802400000024070B50446C0680125BE
:1029700070B1022801D0FEF773FF2946D4F808058C
:1029800002F022FDD4F80805BDE8704002F0D7BC83
:102990000025F2E7D0F8080502F0FFBCD0F80805E2
:1029A00002F005BD10B5044690F8BC0401280BD018
:1029B000012084F8BC0484F83810206803F090FCEF
:1029C000002084F8BC0410BD022010BDD0F80825FA
:1029D00000F2C441104602F003BD10B50446006881
:1029E00094F8BC14012906D0012184F8BC14A16A12
:1029F000012902D008E0022010BDA169012903D0FD
:102A0000816B41F480318163206803F09AFB206878
:102A100003F068F8002084F8BC0410BD10B504462B
:102A2000D0F8080502F01EFD2068D0F8001E41F025
:102A30000101C0F8001E206A002804D00248016885
:102A400041F00601016010BD10ED00E02DE9F047F6
:102A50000E46050065D0DFF81481D8F80000F7B203
:102A600000F00700B04207D288F80070D8F80000E4
:102A700000F00700B04254D128683D4C810712D5C0
:102A8000400703D5206840F4E05020602878000714
:102A900003D5206840F4604020602068A96820F0D9
:102AA000F000084320602878C0072DD030496868BE
:102AB0000839012812D0022813D0032811D0096840
:102AC000890700292DDA216821F0030101432160E3
:102AD000FFF734F8814641F2883A0EE0096889032D
:102AE000EFE709688901ECE7FFF728F8A0EB090197
:102AF000514502D90320BDE8F0872068696800F0DD
:102B00000C00B0EB810FEFD1D8F80010404601F077
:102B10000701B14207D90770006800F00700B04212
:102B200001D00120E7E72878400705D52068E9684B
:102B300020F4E050084320602878000706D520687C
:102B4000296920F4604040EAC100206000F05EF88E
:102B50002168084AC1F30311515CC8400649086066
:102B600006480068FFF7A2F90020C4E7003C0240D5
:102B7000083802401438020844C001203CC001203B
:102B80000F2202600C4A136803F0030343601368CA
:102B900003F0F0038360136803F4E053C36012682A
:102BA0004FF4E05303EAD20202610448006800F0E7
:102BB000070008607047000008380240003C0240EF
:102BC000014800687047000044C0012004480549DE
:102BD00000680968044AC1F38221515CC84070470B
:102BE00044C001200838024024380208044805493E
:102BF00000680968044AC1F34231515CC84070471B
:102C000044C001200838024024380208154810B595
:102C1000006810F00C02144813D01449042A0FD095
:102C2000082A0ED10F4C241F2268236802F03F02AD
:102C30005B0207D52068C0F38810A0FB010106E005
:102C4000084610BD2168C1F38811A1FB00010023D3
:102C5000FDF714FC2168C1F30141491C4900B0FB98
:102C6000F1F010BD083802400024F40040787D01E6
:102C70002DE9F84F04006ED02078DFF84C93C007A0
:102C8000A9F104054AD009F104000168C1F38101EA
:102C9000012908D00068C0F3810002280AD1D9F8C0
:102CA0000000400206D52868800337D560680028F8
:102CB000E1D033E06068B0F5803F10D0B0F5A02FD0
:102CC000286810D020F480302860286820F4802004
:102CD00028606068A8B1FEF731FF06460DE028685D
:102CE00040F48030F4E740F480202860F7E700BF2C
:102CF000FEF724FF801B642873D828688003F7D56B
:102D00000CE0FEF71BFF064605E000BFFEF716FFCE
:102D1000801B6428F0D828688003F7D42078DFF877
:102D2000AC8280074FF0000A3ED5A748001D01681D
:102D300011F00C0F08D00068C0F3810002280BD1FD
:102D4000D9F80000400207D42868800716D5E0684B
:102D5000012800D112E033E1E068B8B10120C8F8E1
:102D60000000FEF7EBFE064605E000BFFEF7E6FEBC
:102D7000801B0228C0D828688007F7D528682169F9
:102D800020F0F80040EAC10028600DE0C8F800A07B
:102D9000FEF7D4FE064604E0FEF7D0FE801B0228B4
:102DA0001FD828688007F7D42078000722D5864FDF
:102DB00087486169703771B101210160FEF7BEFE7D
:102DC000064604E0FEF7BAFE801B022809D83868E0
:102DD0008007F7D50EE0C0F800A0FEF7AFFE06466C
:102DE00005E082E0FEF7AAFE801B02287DD8386845
:102DF0008007F7D42078400768D5DFF8CCB10027EA
:102E00000BF13C0BDBF80000C0000BD4DBF800102A
:102E100041F08051CBF80010DBF80000012700F0F2
:102E2000805000906B4E3068C00510D4306840F47C
:102E300080703060FEF782FE009005E0FEF77EFEB7
:102E40000099401A022850D83068C005F6D55E4E69
:102E5000A0686C3601280FD00528306810D020F00B
:102E600001003060306820F004003060A068B8B124
:102E7000FEF764FE00900FE0306840F00100F4E7D8
:102E800040F004003060F7E7FEF758FE0099411A61
:102E900041F28830814266D830688007F4D50EE070
:102EA000FEF74CFE009007E0FEF748FE0099411A3D
:102EB00041F28830814256D830688007F4D42FB16F
:102EC000DBF8001021F08051CBF80010A069C8B3E6
:102ED0003D49091D0968C1F3810102294AD0022830
:102EE000504607D0C8F8600000E03CE0FEF726FE40
:102EF00004463BE04746C8F86000FEF71FFE064662
:102F000005E000BFFEF71AFE801B02282BD82868B8
:102F10008001F7D4D4E907010843A16A2E4A490881
:102F200002EB0141626A41EA8211084394F82C10D5
:102F300040EA0161C9F8001001203866FEF7FEFD85
:102F4000044606E03EE000BFFEF7F8FD001B022845
:102F500009D828688001F7D534E000BFFEF7EEFD00
:102F6000001B022802D90320BDE8F88F28688001E1
:102F7000F4D427E00128F7D0D9F80000E26900F482
:102F8000800191421CD1226A00F03F01914217D189
:102F900047F6C071626A0140B1EB821F10D1A26A8C
:102FA0004FF0FF3300F4403103EB5202B1EB024F1C
:102FB00006D194F82C1000F07060B0EB016F01D0D6
:102FC0000120D1E70020CFE704380240000047424B
:102FD000800E4742007000400000FFFF10B5040063
:102FE00011D02068016821F00C010160206841685F
:102FF00021F060014160204600F060F8002060711F
:10300000A060207110BD012010BD00002DE9F04727
:103010000446007900278A4601280ED00125257133
:1030200060794FF00009012809D00420A060012731
:1030300084F804903846BDE8F0870220FBE74FF0A3
:10304000020884F80580FEF779FD064611E000BF0E
:10305000FEF774FD801B02280BD920684068C0432E
:10306000C00706D06571C4F8088084F80490012078
:10307000E1E720684068C043C007E9D12068806864
:10308000E060CAF800006571D2E770B5040003D0B3
:103090006079002510B105E0012070BD2571204642
:1030A00000F01AF8022060712068016841F0040104
:1030B000016001206071A560002070BD00680449B6
:1030C000884204D10348016821F040010160704743
:1030D000000806503438024008B5006806498842A6
:1030E00008D10648016841F040010160006800F025
:1030F0004000009008BD000000080650343802402F
:103100007047704770B590F83C20012A32D00124F6
:1031100080F83C40022280F83D2003685A689D6890
:1031200022F070060A6832435A60134B02689A42D2
:1031300014D0B2F1804F11D0104B9A420ED0104BE8
:103140009A420BD00F4B9A4208D00F4B9A4205D0AF
:103150000E4B9A4202D00E4B9A4204D1496825F098
:1031600080031943916080F83D40002180F83C10B5
:10317000084670BD022070BD000001400004004000
:1031800000080040000C00400004014000400140E5
:103190000018004010B5040003D094F83D0010B1B1
:1031A00007E0012010BD002084F83C00204600F01C
:1031B0001FF8022084F83D00211D206801F082F9EB
:1031C000012084F8460084F83E0084F83F0084F82B
:1031D000400084F8410084F8420084F8430084F8F9
:1031E000440084F8450084F83D00002010BD000034
:1031F00008B501681448B1F1804F14D0134A9142C8
:1032000020D1016841F0080101600068002200F04F
:103210000800009005213220FEF7ACFE3220BDE808
:103220000840FEF799BE016841F0010101600068A5
:10323000002200F00100009005211C20FEF79AFEFC
:103240001C20ECE708BD000040380240000C0040A4
:1032500090F83D10012901D001207047022180F82B
:103260003D100168CA6842F00102CA600068114955
:10327000884214D0B0F1804F11D00F4988420ED04F
:103280000E4988420BD00E49884208D00D49884229
:1032900005D00D49884202D00C49884204D181688A
:1032A00001F00701062903D0016841F00101016026
:1032B000002070470000014000040040000800406A
:1032C000000C004000040140004001400018004094
:1032D00070B5044690F83C000025012817D001265F
:1032E00084F83C60022084F83D002068826822F067
:1032F000770222F47F4282600868502838D00DDCC3
:1033000020284FD005DC90B3102811D14AE00220CC
:1033100070BD302846D040280AD13BE060282FD02D
:1033200070280DD0B0F5805F03D0B0F5005F12D0EB
:10333000012584F83D60002084F83C00284670BDDB
:10334000CB68D1E90121206801F020F9206881686B
:1033500041F0770109E0CB68D1E90121206801F053
:1033600015F92068816841F480418160E1E719E046
:10337000CA684968206801F01BF95021206806E0FE
:10338000CA684968206801F024F96021206801F0CA
:1033900007F9CEE7CA684968206801F009F94021B9
:1033A0002068F4E7226801461046F0E7704770B5E0
:1033B0000446006801694FF00005C943890715D428
:1033C000C168C943890711D4E91E01610120207732
:1033D000206880698007204602D0FFF7E7FF04E0FD
:1033E00000F098F8204600F096F8257720680169EB
:1033F000C943490717D4C168C943490713D46FF0BB
:1034000004010161022020772068806910F4407F68
:10341000204602D0FFF7CAFF04E000F07BF8204608
:1034200000F079F8257720680169C943090716D4A7
:10343000C168C943090712D46FF008010161042073
:1034400020772068C0698007204602D0FFF7AEFFD2
:1034500004E000F05FF8204600F05DF82577206872
:103460000169C943C90617D4C168C943C90613D441
:103470006FF010010161082020772068C06910F406
:10348000407F204602D0FFF791FF04E000F042F8B1
:10349000204600F040F8257720680169C943C90734
:1034A00008D1C168C943C90704D1891E01612046FA
:1034B00000F032F820680169C943090609D4C168DF
:1034C000C943090605D46FF0800101612046FFF76A
:1034D00017FE20680169C943490609D4C168C94378
:1034E000490605D46FF040010161204600F01EF846
:1034F00020680169C94389060BD4C168C94389069C
:1035000007D46FF0200101612046BDE87040FFF74D
:10351000F8BD70BD7047704700680349884201D10B
:10352000FEF7A2BC704700000010004070477047D3
:1035300070470000F8B5016804460868CA684B691E
:1035400010F00F0F4FF0000559D003F0010602F400
:103550009077374365D0C10705D0D10503D5216CDD
:1035600041F001012164410705D5D90703D0216C41
:1035700041F002012164810705D5D90703D0216CF0
:1035800041F004012164010707D502F02001314315
:1035900003D0216C41F008012164216C00293AD04C
:1035A000800604D5900602D5204601F053F8206825
:1035B0004069216CC0F38010090700D460B3204635
:1035C00001F021F820684069400621D520681430B8
:1035D00050E8001F21F0400140E80012002AF5D118
:1035E000A06BA8B16C490165A06BFEF784F90028B7
:1035F00011D0A06B016D01B0BDE8F0400847830613
:103600000FD593060DD52046BDE8F84001F022B84D
:103610002046FFF78DFFF8BD2046FFF789FF2564A0
:10362000F8BD266B2023012E79D1C60677D5D606A4
:1036300075D50868486800904869400640D5A16B78
:10364000086840680004000CEAD0A28D8242E7D9E5
:10365000E085C869B0F5807F2DD020680C3050E837
:10366000001F21F4807140E80012002AF5D1206883
:10367000143050E8001F21F0010140E80012002A38
:10368000F5D12068143050E8001F21F0400140E8D7
:103690000012002AF5D184F83E30256320680C30F2
:1036A00050E8001F21F0100140E80012002AF5D177
:1036B000A06BFEF7D7F8A08DE18D401A81B229E00A
:1036C000A08DE18D401A81B2E08D0028A8D000299C
:1036D000A6D020680C3050E8002F22F4907240E809
:1036E0000026002EF5D12068143050E8002F22F07B
:1036F000010240E80026002EF5D184F83E30256313
:1037000020680C3050E8002F22F0100240E800231F
:10371000002BF5D12046FFF70AFFF8BDFFE70506AD
:103720002BD5150629D594F83D002128F5D1A068A0
:10373000B0F5805F01D12069B0B1206A411C2162DF
:10374000216800784860E08C401E0004000CE08492
:10375000E3D12068C16821F08001C1602068C168A0
:1037600041F04001C160D8E7206A0088C0F308003A
:103770004860206A801C2062E5E74006CDD55006EF
:10378000CBD5CA68204622F04002CA6084F83D309A
:1037900000F0CFF8C1E70000F745000870B504005D
:1037A00004D094F83D00002510B106E0012070BD62
:1037B00084F83C50204600F023F8242084F83D0093
:1037C0002068C16821F40051C160204600F0A2FFCA
:1037D0002068016921F4904101612068416921F06C
:1037E0002A0141612068C16841F40051C16025642B
:1037F000202084F83D0084F83E00002070BD0000C9
:1038000010B586B0044614216846FDF78CFA1849B5
:103810002068884229D117480021026842F480229A
:103820000260006800F48020059012481038026899
:1038300042F008020260006800F0080005904FF4B2
:10384000407000900220CDE9010103200390072081
:10385000049069460848FEF773F8002205212720E6
:10386000FEF788FB2720FEF777FB06B010BD0000AF
:103870000048004040380240000C02407047000001
:103880002DE9F843044690F83D001F4616460D46C4
:1038900020284CD1C5B1BEB194F83C00012846D0D7
:1038A000012084F83C004FF00008C4F8408021203B
:1038B00084F83D00FEF742F9A6848146E684A068BC
:1038C000B0F5805F03D004E00120BDE8F8832069F3
:1038D00028B12E465FF0000584F83C800EE00026FB
:1038E000FAE78021204600F09BFFA0B9AEB116F8A0
:1038F000010B21684860E08C401EE084E08C4B4660
:103900004FF0000200970028EBD14FF04001204615
:1039100000F086FF30B10320D7E735F8020BC0F383
:103920000800E6E7202084F83D000020CDE70220D3
:10393000CBE77047FEE701684A69D24352050FD4CE
:103940006FF480624A61002140F8301F20224273E8
:103950008173026942F00402026101730120704721
:10396000002070472DE9F843044600680D46DDE964
:10397000089701689846164641F4807101604B46ED
:1039800000224FF001112046009700F065F848B181
:1039900020680068C00502D54FF400702064032041
:1039A000BDE8F883216805F0FE0008613B464A4601
:1039B0001549204600F084F888B92068416980697B
:1039C00000903A464946204600F0C5F848B1206CC0
:1039D000042804D12068016841F4007101600120CD
:1039E000DEE7F5B2B8F1010F09D02168300A0861AD
:1039F0003A464946204600F0AEF80028E7D1206854
:103A000005610020CCE700000200010070B51646F9
:103A10000D4604460DE02046FFF78DFF08B101205A
:103A200070BD681C05D0FEF789F8801BA84207D836
:103A300035B120684069C0434007ECD4002070BD18
:103A4000002044F8300F20216173A073216941F0F8
:103A5000200121612073E2E72DE9F0471E469046E0
:103A60000D460446C1F30747DDF8209008E0701CBE
:103A700006D0FEF763F8A0EB0900B0420FD876B18C
:103A80002068012F18D0806925EA00000004000C8E
:103A900014D000214145EAD00020BDE8F087002085
:103AA00044F8300F20216173A073216941F0200197
:103AB000216120730120F0E74069E5E70121E9E792
:103AC0002DE9F0479A4691460E46044600254FF0F0
:103AD0002008C1F3074725E020684069C04340053E
:103AE00014D42068016841F40071016021686FF40A
:103AF00080604861256384F83D8084F83E50206CE6
:103B000040F00400206484F83C501FE0B9F1FF3F0E
:103B100008D0FEF713F8A0EB0A0149450CD8B9F11B
:103B2000000F09D02068012F13D0806926EA000019
:103B30000004000C0BD0CFE744F8305F84F80D8010
:103B4000A573206940F02000206125730120BDE8A5
:103B5000F0874069EAE770B516460D4604460DE069
:103B60002046FFF7E8FE08B1012070BD681C05D0B3
:103B7000FDF7E4FF801BA84207D835B120684069F3
:103B8000C0430006ECD4002070BD002044F8300F84
:103B900020216173A073216941F02001216120730C
:103BA000E2E70000F0B500210F4B0C4647F230551C
:103BB0004FF4007601EB810000EBC11003EB8002B3
:103BC000002082F80842C2F810521718BF7847B197
:103BD000401C80B2B042F8D3491C89B20329E9D312
:103BE000F0BDA2F80202F7E700000020F0B50023C4
:103BF0000A24302537261F4611E000BFB4EB107FA2
:103C000002D905EB107C01E006EB107C01F813C033
:103C100001EB430C00015B1C8CF80170DBB293429A
:103C2000ECD3F0BD2DE9F04387B014216846FDF7D1
:103C30007AF832480024016841F08001016001688F
:103C400001F080010591016841F001010160016806
:103C500001F001010591016841F010010160016866
:103C600001F010010591016841F00801016001684F
:103C700001F008010591016841F00201016000684E
:103C80001F4F00F002000590002290213846FDF7FA
:103C90004FFFDFF8708042F20306002231464046B3
:103CA000FDF746FFDFF86090012208214846FDF746
:103CB0003FFF00224FF404714846FDF739FF902082
:103CC00000900125CDE90154694638460394FDF77B
:103CD00037FE0096CDE90154694640460394FDF74E
:103CE0002FFE4FF406700090CDE901546946484616
:103CF0000394FDF725FE07B0BDE8F083303802409D
:103D000000000240001002400004024010B586B0DE
:103D100000241748009401940294039404944FF0F3
:103D20008041059401601021C0E901144FF47A71BB
:103D3000C0E9031480218161FFF72CFA08B172B643
:103D4000FEE74FF48050009069460948FFF7C0FA3B
:103D500008B172B6FEE7049404A905480594FFF77C
:103D6000D1F9002801D072B6FEE706B010BD000000
:103D700084C3012010B586B0002417480094019434
:103D80000294039404941349059401603C21C0E912
:103D900001144FF47A71C0E903148461FFF7FAF952
:103DA00008B172B6FEE74FF48050009069460A48A9
:103DB000FFF78EFA08B172B6FEE7049404A906482C
:103DC0000594FFF79FF9002801D072B6FEE706B010
:103DD00010BD0000000C0040CCC3012010B5002233
:103DE0000F49104801F051F908B1FDF739FD0E49AE
:103DF0000C4801F05FFB08B1FDF732FD0B490948A3
:103E000000F01CFF08B1FDF72BFD064801F0D6FBC2
:103E1000002803D0BDE81040FDF722BD10BD000012
:103E2000940600206C0B0020ACC0012024C00120AF
:103E30002DE9F041BAB0002010F01CFAFDF77EFE2B
:103E4000064678224F496846FCF7D4FE002102203E
:103E500010F08EFA4CA250A11EA8FCF7ADFB504DFD
:103E600001231EA8D5E9001210F022FB0A2102202E
:103E700010F07EFA40F6B8334AA24EA11EA8FCF715
:103E80009BFBD5E9001201231EA810F011FB1421A1
:103E9000022010F06DFA494C94F80802012857D01E
:103EA000228847A11EA8FCF787FBD5E90012012351
:103EB0001EA810F0FDFA1E21022010F059FA94F805
:103EC0001C0401284CD0B4F814223DA11EA8FCF714
:103ED00073FBD5E9001201231EA810F0E9FA28218E
:103EE000022010F045FA94F83006012841D0B4F8C9
:103EF000282433A11EA8FCF75FFBD5E9001201239B
:103F00001EA810F0D5FAE84642F2107438210220BB
:103F100010F02EFAD5E900120123684610F0C8FA15
:103F200010F038FA9DF80070742208F1010168461B
:103F3000FCF71EFE8DF87470FDF700FE0746322078
:103F40000CF0CCFDB81BA042E0D33AB0BDE8F08144
:103F500094F8043222881FA11EA8FCF72DFBA4E7C9
:103F600094F81834B4F814221AA11EA8FCF724FB04
:103F7000AFE794F82C36B4F8282416A11EA8FCF755
:103F80001BFBBAE7E83602083139322E3136382EBB
:103F900037302E31393900004E3A257300000000C9
:103FA00000C001203139322E3136382E37302E31D3
:103FB00036000000533A25733A25640000000020C3
:103FC0004E6F64652564203A204E4F204341525283
:103FD000494552004E6F646525643A204F6E6C6906
:103FE0006E65202D25642064426D0000FEE7FEE72B
:103FF0000148FEF74DB9000010CE01202DE9F04137
:1040000003680D4604461E6C03EB4511D1F8080BFE
:10401000D4F810E04FF400474FF0200C04F2C442F3
:10402000BEF1010F09D0DFF898E0764539D10204DE
:1040300032D500BFC1F8087B3FE0224B5FEA007E2B
:1040400004D59E4239D90004F4D436E05FEA806E8C
:1040500002D5C1F808CB30E010F0280F2DD19E42D8
:1040600001D90004E6D405EBC50004EB8000D1F8CB
:10407000101BD0F89832C1F31201591AC0F89C12E3
:1040800000F51F70ADB983691BB10269114401616C
:104090000FE0012120680AE080060AD5C1F808CBAC
:1040A00007E035B9D4F8940218B90021184601F098
:1040B00083FEE9B22046FDF7C3FF0020BDE8F08192
:1040C0000A31544F0A30544F2DE9F84F0E4601EB98
:1040D000C60100EB810481460568616DE06D3C34EA
:1040E000884202D90120BDE8F88F081AE1688142B0
:1040F00000D20846C01C870805EB46181BE000BF2D
:10410000A0EB010AE068504500D282460AF10300A4
:10411000870899F8100000901FFA8AF3F2B2284637
:10412000216902F063F9216901EB0A002061216A2B
:1041300001EB0A002062D8F8180980B2B84205D312
:10414000216AA069814201D20028D9D1216AA069DF
:10415000884208D806F00F0101208840D5F83418AD
:104160008143C5F834180020BDE70178407841EA62
:1041700000207047FFF732FEFFF75AFE01200CF0D7
:10418000ADFCF9E707480649416000214180FFF78F
:1041900009FD00BF1AF048FF01200CF09FFCF9E771
:1041A000A8C701201CC0012010B5502080F3118841
:1041B000BFF34F8FBFF36F8F1EF036FA18B104496B
:1041C0004FF080500860002080F3118810BD00007F
:1041D00004ED00E070B592B030216846FCF7A3FD15
:1041E00014210CA8FCF79FFD1D480025016841F033
:1041F00080510160006800F08050119019480168FA
:1042000041F4804101600068022400F48040119074
:10421000092000904FF4803001900120CDE9050481
:1042200080050F26CDE907069020CDE90904052079
:104230000B906846FEF71CFD08B172B6FEE74FF41E
:10424000A050CDE90E50CDE90C64109003210CA8CC
:10425000FEF7FCFB002801D072B6FEE712B070BD7D
:1042600040380240007000400248016841F470018B
:104270000160704788ED00E0ADF5087D0025ADF8E0
:1042800008520621012081950FF0C8FD060007D1D4
:104290000CF062FC4BA15048FCF783F90CF043FC96
:1042A000322130460FF08CFF38B10CF055FC4BA199
:1042B0004948FCF776F90CF036FC83A94EA008F0CB
:1042C00013FB502283A930460FF0F0FC38B10CF0FC
:1042D00043FC4DA14048FCF764F90CF024FC01219B
:1042E00030460FF081FD38B10CF036FC4BA13A4856
:1042F000FCF757F90CF017FC4E4C4FF480476078F0
:10430000012817D082AA85A930460FF07AFC5FEA0F
:10431000000819D048A101A8FCF74EF901A8FCF744
:1043200078FB0246002301A9404600970FF0BEFE2D
:10433000012060704FF4807281AB41A94046009229
:104340000FF0DCFD60B113E00CF006FC3FA1224849
:10435000FCF727F90CF0E7FB60780128EAD020E0B1
:104360000CF0FAFB2DA11C48FCF71BF90CF0DBFB51
:104370008198B0B141AA3EA101A8FCF71DF901A89E
:10438000FCF747FB0246002301A9404600970FF0C7
:104390008DFE0CF0E1FB39A10F48FCF702F90CF09F
:1043A000C2FB404611F00AF9A070052802D008B1FE
:1043B0000B2803D3657040460FF08AFC32200CF0C6
:1043C00094FB9CE72A2A2A4552524F5220736F636E
:1043D0006B202A2A2A0D0A00909C00202A2A2A45AE
:1043E00052524F52207365742074696D656F7574F5
:1043F000202A2A2A0D0A00003139322E3136382E71
:1044000037302E31393900002A2A2A4552524F526C
:104410002062696E64202A2A2A0D0A002A2A2A4567
:1044200052524F52204C697374656E202A2A2A0D0D
:104430000A00000008C001205374617274204D61AD
:1044400073746572206E6F64650D0A002A2A2A450E
:1044500072726F7220616363657074696E67206346
:104460006F6E6E656374696F6E2A2A2A0D0A0000EA
:10447000726563203D2025730D0A00002A2A2A4414
:1044800061746120696E636F6D6D696E67202A2AA1
:104490002A0D0A000148FEF78ABF000084C30120EC
:1044A00010B51DF017FD01F0B7FFBDE81040014841
:1044B000FEF77DBFCCC301200148FEF778BF0000A6
:1044C000A8CB0120F0B50268254C264D264E274F7B
:1044D000274B4FF0804CA04209D0604507D0A8423E
:1044E00005D0B04203D0B84201D0984204D122F0A6
:1044F000700E4A6842EA0E02A0421BD0604519D0F5
:10450000A84217D0B04215D0B84213D0984211D06B
:10451000184DA8420ED0184DA8420BD0174DA842F6
:1045200008D0174DA84205D0164DA84202D0164D0E
:10453000A84203D122F44075CA682A434D6922F08B
:1045400080022A4302608A68C2620A688262A042CC
:1045500001D0984201D10969016301214161F0BD97
:10456000000001400004004000080040000C004032
:104570000004014000400140004401400048014067
:1045800000180040001C00400020004010B5846866
:1045900042EA032224F47F440A432243826010BD8E
:1045A000826822F070020A4342F00701816070477E
:1045B00010B5036A046A24F001040462846924F0DB
:1045C000F00444EA021423F00A020A4384610262FE
:1045D00010BD10B5036A23F0100303628369046AF7
:1045E00023F4704343EA023224F0A00343EA0111AA
:1045F0008261016210BD10B5806B0021C185C1844C
:10460000FEF796FF10BD01680C3151E8002F22F42F
:10461000907241E80023002BF5D10168143151E874
:10462000002F22F0010241E80023002BF5D1016B9D
:10463000012909D101680C3151E8002F22F0100244
:1046400041E80023002BF5D1202180F83E10002105
:104650000163704708B590F83E10222901D002206E
:1046600008BD82684FF480539A4201D1016921B19B
:10467000816A9A421BD04AB10AE00268816A526894
:10468000C2F308020A80816A891C08E0026972B1DB
:104690000268526802F07F020A70816A491C8162D6
:1046A000C18D491E0904090CC18503D019E00268B7
:1046B0005268F1E70168CA6822F02002CA60016806
:1046C000CA6822F48072CA6001684A6922F0010255
:1046D0004A61202180F83E10016B012903D0FFF7C9
:1046E000CDF8002008BD0021016301680C3151E8BC
:1046F000002F22F0100241E80023002BF5D10168C1
:104700000A68D20602D50A6849680091818DFEF7D1
:104710000EFFE6E770B5044600680169E26821F41F
:104720004051114301612169A068E2690843616950
:10473000114308432168CA6849F20C639A43024353
:10474000CA6020684169A26921F440711143416146
:1047500031492068884202D03049884202D1FEF7B0
:1047600045FA01E0FEF732FAE269002319216425D7
:104770003226B2F5004F626828D0A0FB0101930FEA
:104780009200FBF77BFE0146B0FBF5F06FF01802DC
:10479000504301EB800006EB0010B0FBF5F000F099
:1047A000F002B1FBF5F002EB0012B1FBF5F06FF097
:1047B0001803584301EB800006EB0010B0FBF5F046
:1047C00000F00F0021681044886070BDA0FB01015B
:1047D00092185B41FBF752FE0146B0FBF5F0020177
:1047E000B1FBF5F06FF01803584301EB800006EBC6
:1047F000C000B0FBF5F000F0F80002EB4002B1FBA6
:10480000F5F0584301EB800006EBC000B0FBF5F07B
:1048100000F00700D6E7000000100140001401403E
:104820002DE9F041984617460E460446069D27E0BE
:10483000681C25D02DB1FDF781F9A0EB0800A84236
:104840001ED920680C3050E8001F21F4D07140E8D8
:104850000012002AF5D12068143050E8001F21F022
:10486000010140E80012002AF5D1202084F83D0023
:1048700084F83E00002084F83C000320BDE8F0816D
:104880002068006836EA000004D00020B842CFD08B
:104890000020F3E70120F9E710B51DF065FBBDE846
:1048A00010400148FEF746BE14C401202DE9F04136
:1048B0000C46D0F8D412D0F8C82200EB8101D1F810
:1048C000C01229B304F00F0606EB860300EB830544
:1048D0000027AB694BB106EBC60602EB8602926C71
:1048E000B3FBF2F602FB1632A2B1C1F81472D0F893
:1048F000D42200EB8200D0F8C40203692BB1D1F8B6
:104900000802224601F5047198470020BDE8F081B5
:104910000320FBE700231A462146AF6100F0ABFD00
:10492000F3E770B50546D0F8D40205EB8000D0F867
:10493000C04294B1284600F080FCC4F80C02D5F8BF
:10494000D412D4F8040205EB8101D1F8C412CA686C
:1049500004F503719047002070BD032070BD000076
:1049600070B5224D0446297800F0ABFB287800266C
:1049700000F00F0000EB800004EB80008684697873
:10498000204600F09EFB687800F00F0000EB8000EE
:1049900004EB8000A0F86461A978204600F091FB48
:1049A000A87800F00F0000EB800004EB8000868404
:1049B000C684D4F8D40204EB8000D0F8C01299B1B8
:1049C000D0F8C40240688047D4F8D40204EB8000D9
:1049D000D0F8C00200F073FFD4F8D40204EB8000DA
:1049E000C0F8C062C4F8BC62002070BD58C001208D
:1049F00010B5D0F8D41200EB8100D0F8C04284B1D9
:104A0000D0F8C41259B194F80002FF2807D08B687F
:104A100094F8012221469847FF2084F800020020E4
:104A200010BD032010BD00000A210180004870471E
:104A30005CC0012070B5064682210C4800F0D1FA16
:104A400005460121094800F0CCFA044681210748B7
:104A500000F0C7FA0DB11021A971402104B1A18065
:104A600000B1818043203080004870BD68C00120C3
:104A700070B5064682210D4800F0B3FA05460121C3
:104A80000A4800F0AEFA04468121084800F0A9FA6D
:104A90000DB11021A9714FF4007104B1A18000B1D2
:104AA000818043203080014870BD000068C0012033
:104AB00070B5064682210C4800F093FA05460121A4
:104AC000094800F08EFA04468121074800F089FA6F
:104AD0000DB11021A971402104B1A18000B18180E4
:104AE00043203080004870BD68C001202DE9F047A8
:104AF00004464FF40775284600F0E2FE06004FF02A
:104B0000000863D02946FCF70EF9D4F8D4023C4DD6
:104B100004EB80004FF01009C0F8C062C4F8BC621A
:104B2000207C4FF4007A0127F0B340230222297839
:104B3000204600F0EFFB2878402300F00F0000EB48
:104B4000800004EB8000878402226978204600F010
:104B5000E1FB6878082300F00F0000EB800004EB15
:104B600080000322A0F86471A978204601F00F01AB
:104B700001EB810104EB8101A1F82690A97800F0F6
:104B8000C9FBA87800F00F0000EB800004EB800068
:104B90008784C6F80482D4F8D402474604EB800028
:104BA000D0F8C402006800E018E006F501768047FE
:104BB0003761776132687AB1207CF8B14023697837
:104BC000204600F0B3FB0020BDE8F087D4F8D412F3
:104BD00004EB8101C1F8C0820220F5E753460222AE
:104BE0002978204600F096FB2878534600F00F0005
:104BF00000EB800004EB80008784A5E75346DEE7E6
:104C000058C0012010B5D0F8D41200EB8101D1F8C2
:104C1000C01259B1027C084C002AD1F8042207D0F6
:104C20004023617800F082FB002010BD032010BDFE
:104C30004FF40073F5E7000058C0012039B1D0F8F7
:104C4000D42200EB8200C0F8C41200207047032079
:104C50007047D0F8D42200EB8200D0F8C00218B11F
:104C6000C0F804120020704703207047D0F8D432F7
:104C700000EB8300D0F8C00228B1C0F81022C0F8C1
:104C8000081200207047032070472DE9FC410646BA
:104C9000D0F8D4020C4606EB80000021D0F8C07298
:104CA0008DF80010ADF804100D4637B1217811F0E1
:104CB00060022FD0202A4BD102E00320BDE8FC8106
:104CC000E288F2B109060DD5D0F8C40263783946FE
:104CD000D0F808C01846E047E288072A00D9072222
:104CE00039462DE0607887F80002E088402800D33C
:104CF0004020C2B287F801223946304600F058F809
:104D00002BE0D0F8C402637800228668214618465A
:104D1000B04722E0607830B101281ED00A2809D0BF
:104D20000B2815D110E096F89C02032810D102221E
:104D300001A905E096F89C02032809D101226946E1
:104D4000304600F04FF808E096F89C02032804D0A3
:104D50002146304600F021F803252846AEE710B57D
:104D6000D0F8B82200245268904700B103242046AE
:104D700010BD0020704700207047134610B50A464A
:104D8000002100F0D3FA002010BD134610B50A46EA
:104D9000002100F070FB002010BD10B504468021FA
:104DA00000F04EFB2046BDE81040002100F048BB5B
:104DB00010B50323C0F89432C0F858211346C0F848
:104DC0005C210A46002100F0B1FA002010BD10B5A8
:104DD0000521C0F8941200231A46194600F0A6FADD
:104DE000002010BD10B50223C0F894328261134632
:104DF000C2610A46002100F03EFB002010BD10B544
:104E00000421C0F8941200231A46194600F033FB1F
:104E1000002010BD10B50A46024903A000F005F9B4
:104E2000004810BD480E002043444320436F6E6687
:104E3000696700001220088000487047B40600200F
:104E400010B50A46024903A000F0EFF8004810BD73
:104E5000480E002043444320496E746572666163C6
:104E6000650000000420088000487047B00600205C
:104E700010B50A46024903A000F0D7F8004810BD5B
:104E8000480E002053544D6963726F656C656374FE
:104E9000726F6E696373000010B50A46024903A081
:104EA00000F0C3F8004810BD480E002053544D33A5
:104EB00032205669727475616C20436F6D506F7249
:104EC0007400000010B51A2008800A480168001D0F
:104ED0000468001D0068081809D008220649FEF77A
:104EE00085FE0549042210312046FEF77FFE024868
:104EF000801E10BD107AFF1FCA060020F8B50446B8
:104F00000020ADF8000048880D46010A08295FD24C
:104F1000DFE801F05E0409175E5E3C45D4F8B41288
:104F2000207C0A6819E0207C02260028D4F8B80208
:104F300005D0C16A684688470146467039E0816AF3
:104F4000F8E7C0B2062843D2DFE800F0030A1014E5
:104F5000181CD4F8B402426805E0694690471CE08A
:104F6000D4F8B402826892B3207CF6E7D4F8B40295
:104F7000C268F8E7D4F8B4020269F4E7D4F8B402DE
:104F80004269F0E7D4F8B4028269ECE7207CF0B91A
:104F9000D4F8B802416B68468847014609E0207C96
:104FA000A8B9D4F8B802016B6846884701460720C3
:104FB0004870EA888AB1BDF8000040B1824200D949
:104FC0000246ADF800202046FFF70CFFF8BDFFE7D2
:104FD00029462046FFF7E1FEF8E72046FFF70FFFDE
:104FE000F4E778B50E4642880178002504468A42E7
:104FF00012D9ADF800100AE0694600F00FF84178C8
:10500000052904D181780546B14205D00025618883
:10501000BDF800209142EFD8284678BD0A88037871
:105020001A440A8001780844704770B500230028AC
:105030001ED00025044602E06D1CEDB2641C2678EB
:10504000002EF9D1022404EB450414801278CA54CE
:105050005B1C0322CA5400245B1C06E0CA545B1C80
:10506000DAB28C54521CD3B2401C0278002AF5D11B
:1050700070BD01004FF0000004D0012901D00229C9
:1050800001D0032070470120704778B10023C0F899
:10509000B832C0F8C432C0F8D03209B1C0F8B41286
:1050A000012180F89C12027000F0CCB803207047F8
:1050B00010B5D0F8C802FDF706F8BDE81040FFF7BC
:1050C000D8BF10B5D0F8C802FCF7D7FFBDE8104034
:1050D000FFF7CFBF2DE9F04117460446002521B167
:1050E00094F89C02032842D04CE0D4F8941204F1C6
:1050F0001400022935D1D0E902639E4206D9F21A82
:10510000826039462046FFF740FE0FE0B34214D1DB
:105110004068984211D3D4F8981288420DD20022E8
:1051200011462046FFF731FEC4F8985200231A4674
:105130001946204600F0FAF813E094F89C02032880
:1051400008D1D4F8B802C16821B1C4F8D452C168FA
:10515000204688478021204600F072F92046FFF75C
:1051600036FE94F8A00268B184F8A0520AE0D4F8A0
:10517000B802426932B1C4F8D4524269204690471D
:10518000002800D10020BDE8F08170B51346044628
:10519000002221B194F89C02032830D03AE0D4F8E0
:1051A000941204F5AA70032934D1D0E902518D423A
:1051B0000AD96A1A82600846824200D3024619461A
:1051C0002046FFF7DAFD25E094F8AA0210F01F0050
:1051D00003D0012802D0022800D0002294F89C02BB
:1051E000032808D1D4F8B802016921B1C4F8D42247
:1051F0000169204688472046FFF701FE0AE0D4F8FF
:10520000B802836933B1C4F8D4228269204690473A
:10521000002800D1002070BD0020704710B5002488
:10522000012180F89C12D0F8B82222B1526801798D
:10523000904700B10324204610BDD0F8C802FCF707
:1052400070BF000010B5017839BB15490222C1F8C2
:105250000805C0F8C8124FF0A0400860042048605C
:105260000020C1E90320C1E9062008624862C86243
:1052700008630846FDF7C4FA08B1FCF7F1FA80218B
:105280000748FCF7AAFE402200210548FCF7A9FECA
:10529000802201210248FCF7A4FE002010BD00007E
:1052A00010CE01200A0601F07F01D0F8C80201EB00
:1052B000C10100EB810002D590F83E00704790F8E4
:1052C0007E02704710B5D0F8D42200EB8202D2F8EB
:1052D000B82222B190F89C32032B02D004E00320C4
:1052E00010BD126A02B19047002010BD10B5D0F871
:1052F000D42200EB8202D2F8B82222B190F89C327C
:10530000032B02D004E0032010BD526A02B1904783
:10531000002010BD10B51C461346D0F8C802224626
:10532000FCF708FFBDE81040FFF7A3BE10B5D0F8AA
:10533000C802FCF72FFFBDE81040FFF79ABE2DE929
:10534000F04100260125044680F89C52C4F894627E
:105350006660C4F8A46280F8A062D0F8B80230B1E8
:10536000426822B100212046904700B10326002266
:10537000402311462046FFF7CDFF4027A4F8645193
:105380003B46002280212046C4F86071FFF7C2FF2F
:10539000A58430462762BDE8F08190F89C1204296C
:1053A00003D190F89D1280F89C120020704710B530
:1053B00090F89C12032905D1D0F8B81211B1C9692F
:1053C00001B18847002010BD01740020704710B55E
:1053D000D0F8C802FDF7E6FABDE81040FFF749BE75
:1053E00070B5044600F2AA20054600F04DF80120F1
:1053F000C4F89402B4F8B002C4F8980294F8AA026F
:1054000010F01F010AD001290ED0022912D000F09D
:1054100080012046BDE8704000F012B829462046C1
:10542000BDE8704000F0CCB829462046BDE8704089
:1054300000F00CBA29462046BDE8704000F056B98D
:1054400010B5D0F8C802FCF7C9FEBDE81040FFF760
:1054500010BE10B5D0F8C802FDF7BFFABDE8104085
:10546000FFF707BE90F89C1280F89D12042180F887
:105470009C120020704710B5D0F8C802FCF7E8FE77
:10548000BDE81040FFF7F5BD70B5054611F8010BFA
:105490002870087868704C1C2046FEF766FE68800D
:1054A000A41C2046FEF761FEA880A01CFEF75DFE4E
:1054B000E88070BD38B504460020ADF80000A1B109
:1054C000C4F8B812D4F8D40204EB8000D0F8B802C3
:1054D000C16A19B168468847C4F8D002D4F8D80226
:1054E000401CC4F8D802002038BD032038BD024655
:1054F0000020D2F8B832002B02D01B6810461847A3
:10550000704700002DE9F04188462B4E8978002530
:1055100004463170012906D941462046FFF73DFC7B
:105520000320BDE8F08194F89C02022702280CD0E9
:1055300003281DD041462046FFF72FFC3178204636
:10554000FFF70DFC03252846EBE789B32046616091
:10555000FFF7CDFF050004D041462046FFF71DFCB4
:105560001DE02046FFF74BFC032084F89C02EAE78D
:10557000C1B1606888421BD0C1B22046FFF7EFFB83
:10558000317820466160FFF7B2FF050010D0414638
:105590002046FFF702FC21792046FFF7E0FB84F864
:1055A0009C72D0E784F89C7220466160FFF7D7FBBD
:1055B0002046FFF724FCC6E754C00120FFF749BF8F
:1055C0002DE9F0410A78002512F060020CD0202A63
:1055D00001D0402A7DD1D0F8D42200EB8202D2F84B
:1055E000B8229268904731E04B78002201260A2BBE
:1055F0006FD2DFE803F041666E586E08056E2D2904
:10560000FFF77CFC67E004468888D8B9C888C8B929
:105610004888802816D200F07F0794F89C0203285F
:1056200010D084F89E7239462046FFF7D0FE2046FF
:10563000FFF7E5FB1FB1022084F89C024BE084F8E1
:105640009C6248E0204644E0FFF75CFF054642E0EC
:10565000CB88012B3DD190F89C32012B04D0022B3A
:1056600002D0032B35D104E08260012200F1080151
:1056700016E00122011D13E090F89C22012A03D0BC
:10568000022A01D0032A24D1CA88022A21D1C66065
:10569000D0F8A41209B10321C160022200F10C016B
:1056A000FFF7A0FB17E04A88012A02D0022A03D0A4
:1056B0000FE0C0F8A46216E08988090A80F8A012F9
:1056C00011E090F89C32012B08D0022B06D0032B5E
:1056D00004D0FFF762FB2846BDE8F0814988012924
:1056E000F9D1C0F8A422FFF78AFBF4E72DE9F041D5
:1056F000054608780C790E464FF0000810F060005F
:105700000BD0202801D040286AD121462846FFF737
:1057100030FBFF2800D0D8B395E07078C8B30128DB
:1057200024D003285CD195F89C02022802D00328DB
:1057300056D10CE0002C53D0802C51D02146284665
:10574000FFF77EFE80212846FFF77AFE7BE0708817
:1057500040B93CB1802C05D0C88818B921462846EC
:10576000FFF76EFE2846FFF74AFB6CE095F89C02B7
:105770000228DFD0032863D1708880BB600603D085
:1057800021462846FFF794FC2846FFF738FBBCE784
:1057900000E00AE0C5F8D402D5F8B8028268F2B198
:1057A00031462846904780464DE095F89C020027F8
:1057B000022802D0032843D113E00CB1802C3FD142
:1057C000200604F07F0000EB800005EB800101D58E
:1057D000143101E001F5AA7102220F602CE032E0E1
:1057E0002EE0200604F00F0000EB800005EB8000A7
:1057F00009D5808C20B304F07F0000EB800005EB1E
:10580000800614360AE0B0F86401C8B104F07F00E5
:1058100000EB800005EB800606F5AA764CB1802CE3
:1058200007D021462846FFF73DFD10B1012030602A
:1058300000E03760022231462846FFF7D3FA02E043
:105840002846FFF7AAFA4046BDE8F08170B5054644
:10585000087800240E4610F0600003D0202801D004
:10586000402827D195F89C02012803D0022801D0B6
:1058700003281FD1B088C1B201291AD8C1B2284665
:10588000FFF779FAFF280CD058B9D5F8B8128A6812
:105890003AB1C5F8D4028A68314628469047044692
:1058A00000E00324F088204307D12846FFF7A7FA39
:1058B00003E031462846FFF770FA204670BD704776
:1058C00000487047F0CB012070B50A78012302F040
:1058D0000F054E78AB401B4CD0F81C58012E17D04A
:1058E00045EA0343C0F81C3800EB4210D0F8002B07
:1058F00012040BD4D0F8002B8B890979C3F30A0367
:105900001A4344EA81410A43C0F8002B002070BDCD
:105910009BB21D43C0F81C5800EB4210D0F8003970
:105920001B04F3D4D0F800398D890979C5F30A0531
:1059300089042B4341EA82510B432343C0F80039C9
:10594000E4E7000000800010D0F800196FF30A01AE
:10595000C0F80019D0F8041841F48071C0F8041898
:105960000020704770B5044606990A9E049D0D9864
:10597000012916D0E06840F04000E060204600F0C9
:105980002BF8A16B1EB321F48031A163012D07D147
:10599000A16841F00601A160A16841F02001A16069
:1059A00070BDA16B21F48031A163E168094A114007
:1059B000E160E16821F44011E160012803D1E06871
:1059C00040F48010E060204600F006F8DEE741F485
:1059D0008031DAE7BFFFBDFF08B500220D49009214
:1059E000009B5B1C00938B420CD80369002BF7DAF9
:1059F0000092026942F001020261009A521C009278
:105A00008A4201D9032008BD0269D207F5D10020DE
:105A100008BD0000400D030030B54C780A78012322
:105A200000EB4212012C2CD0D2F8004B002C0BDAE8
:105A3000D2F8004B44F00064C2F8004BD2F8004B9F
:105A400044F08044C2F8004BD0F83C580C7804F085
:105A50000F0403FA04F425EA0444C0F83C48D0F8E3
:105A60001C48097801F00F018B4024EA0341C0F87B
:105A70001C18D2F8000B19490840C2F8000B00208E
:105A800030BDD2F80049002C0BDAD2F8004944F0BE
:105A90000064C2F80049D2F8004944F08044C2F8DA
:105AA0000049D0F83C480D7805F00F0503FA05F5DC
:105AB000ADB2AC43C0F83C48D0F81C48097801F0BE
:105AC0000F018B4099B28C43C0F81C48D2F80009F2
:105AD00003490840C2F80009D1E700000078F3EF5D
